:0200000490006A
:1000000000000520D9110090691400906B14009035
:100010006D1400906F1400907114009000000000A7
:1000200000000000000000000000000073140090B9
:10003000751400900000000077140090791400906F
:100040002912009029120090291200902912009084
:1000500029120090291200907D140090291200901E
:100060008514009029120090291200902912009006
:100070002912009029120090291200902912009054
:100080002912009029120090291200902912009044
:100090002912009029120090291200902912009034
:1000A0002912009029120090291200902912009024
:1000B0002912009029120090291200902912009014
:1000C0002912009029120090291200902912009004
:1000D00029120090291200902912009029120090F4
:1000E00029120090291200902912009029120090E4
:1000F00029120090291200902912009029120090D4
:1001000029120090291200902912009029120090C3
:1001100029120090291200902912009029120090B3
:1001200099140090A51400902912009029120090B3
:100130002912009029120090291200902912009093
:100140002912009029120090291200902912009083
:1001500029120090291200908D140090291200900D
:100160002912009029120090291200902912009063
:100170002912009029120090291200902912009053
:100180002912009029120090291200902912009043
:100190002912009029120090291200902912009033
:1001A0002912009029120090291200902912009023
:1001B0002912009029120090291200902912009013
:0801C0002912009029120090A1
:1001C80010B5054C237833B9044B13B10448AFF389
:1001D80000800123237010BD1000002000000000E3
:1001E8000015009008B5034B1BB103490348AFF352
:1001F800008008BD000000001400002000150090D9
:1002080053B94AB9002908BF00281CBF4FF0FF3175
:100218004FF0FF3000F06EB9ADF1080C6DE904CE77
:1002280000F006F8DDF804E0DDE9022304B07047C9
:100238002DE9F047089D04468C46002B40F083804A
:100248008A42174647D9B2FA82F242B1C2F1200077
:1002580024FA00F09140974040EA010C94404FEA9C
:100268001748230CBCFBF8F61FFA87FE08FB16C1DB
:1002780043EA014306FB0EF1994209D9FB1806F13E
:10028800FF3080F01981994240F21681023E3B44CA
:100298005B1AA4B2B3FBF8F008FB103344EA03443A
:1002A80000FB0EFEA64509D93C1900F1FF3380F08A
:1002B8000581A64540F2028102383C4440EA0640E6
:1002C800A4EB0E0400261DB1D4400023C5E9004369
:1002D8003146BDE8F08702B9FFDEB2FA82F2002AA1
:1002E80050D1CB1B4FEA174E1FFA87F80126B3FBF4
:1002F800FEFC210C0EFB1C3341EA034108FB0CF306
:100308008B4207D979180CF1FF3002D28B4200F2E8
:10031800E9808446C91AA3B2B1FBFEF00EFB1011A6
:1003280043EA014408FB00F8A04507D93C1900F14D
:10033800FF3302D2A04500F2D9801846A4EB080486
:1003480040EA0C40BFE78B4209D9002D00F0B1808C
:100358000026C5E9000130463146BDE8F087B3FA0A
:1003680083F6002E4AD18B4202D3824200F2B88033
:10037800841A61EB030101208C46002DA8D0C5E941
:10038800004CA5E7C2F1200320FA03F6974001FAD2
:1003980002F04FEA174ED9403043030CB1FBFEF68A
:1003A8001FFA87F80EFB161143EA014306FB08F112
:1003B800994204FA02F409D9FB1806F1FF3C80F0CF
:1003C8008D80994240F28A80023E3B445B1A81B29A
:1003D800B3FBFEF00EFB103341EA034100FB08F3C8
:1003E8008B4207D9791800F1FF3C73D28B4271D93F
:1003F80002383944CB1A40EA064678E7C6F1200CA1
:1004080003FA06F422FA0CF31C4320FA0CF701FA5B
:1004180006F34FEA144E21FA0CF11F433B0CB1FBD3
:10042800FEF91FFA84F80EFB191143EA014109FB92
:1004380008FA8A4502FA06F200FA06F308D96118A2
:1004480009F1FF3048D28A4546D9A9F10209214469
:10045800A1EB0A01BFB2B1FBFEF00EFB101147EA97
:10046800014700FB08F8B84507D9E71900F1FF3143
:100478002ED2B8452CD90238274440EA0940A7EBC8
:100488000807A0FB02894F45C64649461AD317D02C
:100498005DB1B3EB0E0267EB010707FA0CFCF24003
:1004A8004CEA0202F740C5E9002700263146BDE8BC
:1004B800F0872E4628460BE70646E9E61846FDE68D
:1004C8004345E5D2B8EB020E69EB04010138DFE7DA
:1004D8000846D2E760468DE78146B9E7664675E784
:1004E80030464AE7ACF1020C394413E702383C4481
:1004F80024E700BF704700BF30B5044687B0C8B9CD
:100508000D4B022501A90D481A6B42F480721A633B
:100518001B6B03F480730093009B0123CDE9015307
:1005280003930323049300F091FA224629460348D3
:1005380000F072FB07B030BD0038024000200240D6
:1005480018B90221014800F06CBB70470020024036
:100558000F490020D1F8883043F47003C1F888307F
:100568000C4B1A6842F001021A6098601A6822F06F
:10057800847222F480321A60074A5A601A6822F498
:1005880080221A60D8604FF010438B60704700BF1C
:1005980000ED00E0003802401030002470470000F1
:1005A80070B50E4E05464FF47A730D4A3078B3FB9A
:1005B800F0F31068B0FBF3F000F0A0F8044650B96F
:1005C8000F2D08D8024629464FF0FF3000F056F8A4
:1005D8002046756070BD0120FCE700BF04000020C4
:1005E8000000002008B5094B03201A6842F4007285
:1005F8001A601A6842F480721A6000F02DF80F2011
:10060800FFF7CEFFFFF7CAFF002008BD003C0240FD
:10061800034A044B11681B780B441360704700BFF2
:100628002403002004000020014B1868704700BF15
:100638002403002038B50446FFF7F6FF0546631C7F
:100648001EBF044B1B78E418FFF7EEFF431BA342C1
:10065800FAD338BD0400002007490302CA6803F42E
:10066800E06322F4E0621204120C134343F0BF6308
:1006780043F40033CB60704700ED00E0164B30B513
:10068800DC68C4F30224C4F10705231D042D28BF28
:100698000425062B4FF0FF338CBF033C002403FADC
:1006A80005F5002803FA04F321EA050122EA03020A
:1006B80001FA04F141EA02034FEA0313DBB206DB55
:1006C80000F1604000F5614080F8003330BD00F073
:1006D8000F00024A1354F9E700ED00E014ED00E0C2
:1006E800002808DB4209012300F01F0003FA00F08C
:1006F800014B43F82200704700E100E00138B0F1F7
:10070800807F0AD2064BF021064A5860002082F802
:100718002310072298601A6070470120704700BFB5
:1007280010E000E000ED00E0036802461820D9B2AE
:100738001039B1FBF0F010B5054C5F29205CD0658D
:1007480023F47F7020F0030088BF0430906510BD4B
:100758003015009070B50446FFF766FF0546002C7B
:1007680073D00023226884F83430022384F83530AB
:10077800136823F00103136021680B68D8072FD48E
:100788000B68334DA0691D40D4E901231343E26887
:1007980013432269134362691343E2690343134312
:1007A800226A1343626A042A43EA050302BFD4E9B2
:1007B8000B5635432B43042A0B604B6923F0070380
:1007C80043EA020333D1A26AE56A13437DB390B9C1
:1007D800012A21D032F0020229D1EA0127D51EE0F0
:1007E800FFF722FF401B0528C6D920230320636595
:1007F80084F8350070BDB0F5005F14D1032A16D80F
:1008080001A050F822F000BF27080090E3070090ED
:100818002708009021080090B5F1C07F07D1402338
:1008280001206365E4E7022AF9D9032AD5D04B6190
:100838002046FFF779FFE26D3F2393408360002055
:100848000123606584F83530D4E70120D2E700BF82
:100858003F8010F070B590F83440866D012C34D08C
:100868000124002580F8344090F83540012C4FF0E1
:10087800020428D180F8354004684565256825F4C8
:100888008025256063608368402B19D1A260E160F0
:10089800C26D3F239340B360236843F0160323607F
:1008A800636943F080036361036C1BB1236843F001
:1008B800080323602368002043F00103236070BD10
:1008C800A160E260E4E780F834500220F7E7000016
:1008D8000023F7B5019308225B4B0446856D1F681A
:1008E800C36D2E689A4032420CD0016808684007F0
:1008F80008D5086820F004000860AA60626D42F01C
:100908000102626501229A40324208D02168496991
:10091800090604D5AA60626D42F0020262650422EB
:100928009A40324208D021680968880704D5AA602D
:10093800626D42F00402626510229A40324210D081
:100948002368196809070CD5AA601A68500337D5B7
:100958001B68190301D4236C00E0A36C0BB120467B
:100968009847E16D20228A4032423AD023681868BD
:10097800C60636D5AA6094F83520052A1A6827D104
:1009880022F016021A605A6922F080025A61226C1B
:100998000AB9A26C1AB11A6822F008021A603F2339
:1009A8008B40AB60002384F83430012384F8353061
:1009B800236D002B45D0204603B0BDE8F040184712
:1009C8001A68D205C7D41A6822F008021A60C2E76A
:1009D800500327D51B68190331D4636C0BB120462B
:1009E8009847636D6BB3636DDA0719D54FF41653E7
:1009F8002268B7FBF3F7052384F83530136823F032
:100A080001031360019B0133BB42019302D81368B1
:100A1800DB07F7D4002384F83430012384F8353019
:100A2800E36CC6E71A6812F4807208D1196821F0DD
:100A380010011960012384F8342084F83530E36B01
:100A4800CCE703B0F0BD00BF000000202DE9F74F50
:100A58000023DFF8BC816C4ADFF8B89101240D68E7
:100A68009C4004EA0506AC4340F0B4804C684FEA69
:100A7800430E032524F0100C05FA0EF50CF1FF3790
:100A8800ED43012F11D8876807EA050ACF6807FAEE
:100A98000EF747EA0A078760476827EA060AC4F399
:100AA80000179F4047EA0A074760C768BCF1020F72
:100AB80007EA050A8F6807FA0EF747EA0A07C760C8
:100AC80016D14FEAD30A03F0070B4FF00F0C00EBD7
:100AD8008A0A4FEA8B0BDAF820700CFA0BFC27EA2B
:100AE8000C0C0F6907FA0BF747EA0C07CAF82070D5
:100AF80007683D4004F0030707FA0EFE4EEA0505B5
:100B08000560E50066D5D8F8445023F0030703F0E4
:100B1800030C4FF00F0E45F4804507F180474FEA6C
:100B28008C0CC8F8445007F59C37D8F8445005F4A5
:100B380080450195019D0EFA0CF5D7F808A02AEA20
:100B4800050E324DA8424CD005F58065A8424AD022
:100B580005F58065A84248D005F58065A84246D0CD
:100B680005F58065A84244D0484544D005F50065A0
:100B7800A84242D005F58065A84240D005F58065B9
:100B8800A8423ED005F58065A8420CBF09250A2574
:100B980005FA0CF514F4803F45EA0E05BD606FEACE
:100BA800060715680CBF3D40354314F4003F156037
:100BB80055680CBF3D40354314F4801F5560956857
:100BC8000CBF3D403543A4029560D56854BF3D40F5
:100BD8003543D5600133102B7FF440AF03B0BDE837
:100BE800F08F0025D4E70125D2E70225D0E70325B9
:100BF800CEE70425CCE70525CAE70625C8E707257B
:100C0800C6E70825C4E700BF003C014000000240D9
:100C180000380240001402400AB18161704709049B
:100C2800FBE743690B4218BF0904816170477047AD
:100C3800044A5169014208B502D05061FFF7F7FF35
:100C480008BD00BF003C0140194B37B51A6C194C60
:100C580042F080521A641B6C03F080530193019B8D
:100C6800236843F480332360FFF7DEFC054663689E
:100C7800DA030CD523680F4D43F400332360FFF7E4
:100C8800D3FC04466B689B030AD5002006E0FFF7F7
:100C9800CBFC401BB0F57A7FE9D9032003B030BD07
:100CA800FFF7C2FC001BB0F57A7FEBD9F5E700BF70
:100CB80000380240007000402DE9F341044640B37B
:100CC8000368D80710D42368990764D423681907E0
:100CD80000F1AA8023685A0700F1CB80A269002A94
:100CE80040F0348100202BE0964B9A6802F00C0209
:100CF800042A07D09A6802F00C02082A0BD15A6815
:100D0800520208D58F4B1B689B03DCD56368002B08
:100D1800D9D1012014E06268B2F5803F13D11A6876
:100D280042F480321A60FFF77FFC864E054633682E
:100D38009F03C8D4FFF778FC401B6428F7D9032029
:100D480002B0BDE8F0817F4D2B6892B923F480335F
:100D58002B602B6823F480232B60FFF765FC064685
:100D68002B689803AFD5FFF75FFC801B6428F7D981
:100D7800E5E7B2F5A02F07D143F480232B602B6859
:100D880043F480332B60CEE723F480332B602B6849
:100D980023F48023F6E76B4B9A6812F00C0F07D008
:100DA8009A6802F00C02082A11D15A6851020ED42E
:100DB800644B1A68920702D5E268012AA9D11A6819
:100DC800216922F0F80242EAC1021A607EE7E2686D
:100DD800C2B11A685B4D42F001021A60FFF724FCA9
:100DE80006462B689F0707D52B68226923F0F8036E
:100DF80043EAC2032B6069E7FFF716FC801B022851
:100E0800EFD99CE71A684F4E22F001021A60FFF7EB
:100E18000BFC0546336898077FF558AFFFF704FCCD
:100E2800401B0228F6D98AE76369464D83B16B6F88
:100E380043F001036B67FFF7F7FB06466B6F9B07F1
:100E48003FF548AFFFF7F0FB801B0228F6D976E79D
:100E58006B6F23F001036B67FFF7E6FB06466B6FCA
:100E68009F077FF537AFFFF7DFFB801B0228F6D916
:100E780065E7344B1A6CD00027D41A6C012742F06E
:100E880080521A641B6C03F080530193019B2E4D12
:100E98002B68D9051BD5A3682A4D012B27D12B6FA9
:100EA80043F001032B6741F28838FFF7BDFB254E5D
:100EB8000546336F9B073FD5002F3FF40FAF214AFC
:100EC800136C23F08053136408E70027DFE72B68CF
:100ED80043F480732B60FFF7A7FB06462B68DA05FF
:100EE800D9D4FFF7A1FB801B6428F7D927E7ABB952
:100EF8002B6F41F2883823F001032B672B6F23F007
:100F080004032B67FFF790FB06462B6F9807D3D592
:100F1800FFF78AFB801B4045F7D910E7052B2B6F9D
:100F280003D143F004032B67B9E723F001032B67D0
:100F38002B6F23F00403B5E7FFF776FB401B404512
:100F4800B7D9FCE60038024000700040384DAB6865
:100F580003F00C03082B41D02B68022A23F080737E
:100F68002B602ED1FFF760FB06462B68990122D42F
:100F7800A36A5B085A1ED4E907310B4343EA0243CC
:100F8800626A43EA8213E26A43EA026343F0005367
:100F98006B602B6843F080732B60FFF745FB244D93
:100FA80004462B689A013FF59DAEFFF73DFB001BF9
:100FB8000228F6D9C3E6FFF737FB801B0228D4D9ED
:100FC800BDE6FFF731FB04462B689B017FF58AAE2F
:100FD800FFF72AFB001B0228F6D9B0E6012A6B6846
:100FE8003FF497AE03F48002E1698A427FF491AE40
:100FF80003F03F02216A8A427FF48BAE47F6C07243
:10100800616A1A40B2EB811F7FF483AEA26A03F4CF
:1010180040315208013AB1EB024F7FF47AAE03F047
:101028007063E26AB3EB026F3FF45CAE71E600BF37
:1010380000380240134908B58B6803F00C03042BF1
:101048001BD0082B1BD14A684B68496802F03F0245
:1010580013F48003C1F388111ABF0B4800230B480F
:10106800A1FB0001FFF7CCF8064B5B68C3F3014313
:1010780001335B00B0FBF3F008BD0348FCE703480D
:10108800FAE700BF0038024040787D010024F400F0
:101098002DE9F0410D46044610B90120BDE8F08164
:1010A800464A136803F00F038B4228D32268970738
:1010B80030D4D00744D4414A136803F00F03AB423D
:1010C80067D82268510770D4130707D53C4A2169AD
:1010D800936823F4604343EAC1039360FFF7AAFFD0
:1010E800374B384A9B68C3F30313D35CD840364B5D
:1010F8001860364B1868FFF753FA0020CEE71368DC
:1011080023F00F030B431360136803F00F038B42A4
:10111800C3D1CBE712F0040F294B03D0996841F4EF
:10112800E0519960160703D5996841F460419960C8
:101138002349A0688B6823F0F00303438B60B8E76A
:1011480061681F4B01291A681BD112F4003FA4D013
:101158009A6841F288381A4F22F003020A439A60CB
:10116800FFF762FA0646BB68626803F00C03B3EB4C
:10117800820FA0D0FFF758FA801B4045F3D903200F
:101188008CE7022902D112F0007FE0E712F0020F8B
:10119800DDE7136823F00F032B431360136803F094
:1011A8000F03AB427FF479AF8BE70549E0688B68A2
:1011B80023F4E05303438B6086E700BF003C024002
:1011C8000038024018150090000000200800002098
:1011D800DFF834D0002103E00C4B5B584350043156
:1011E8000B480C4B42189A42F6D30B4A02E00023F4
:1011F80042F8043B094B9A42F9D3FFF7A9F900F0EA
:101208004FF900F063F8704700000520C8150090FA
:10121800000000201000002010000020880300209B
:10122800FEE70000BFF34F8FBFF36F8F084B00221C
:10123800C3F85022BFF34F8FBFF36F8F5A6942F440
:1012480000325A61BFF34F8FBFF36F8F704700BFF3
:1012580000ED00E0014B01221A7070475402002093
:10126800014B01225A6070475402002010B54FF418
:10127800803392B00121022419201094CDE906137D
:101288004FF48003CDE90C434FF4C873CDE90E0346
:10129800082306A81193FFF70FFD00B1FEE7FFF73B
:1012A800D3FC00B1FEE70F234FF4A05203900621B0
:1012B80001A8CDE901344FF48053CDE90423FFF7A9
:1012C800E7FE00B1FEE712B010BD00002DE9F341C2
:1012D800564CFFF7A7FF564DFFF784F9002700206B
:1012E800544EFFF709F9FFF7C1FF80225521204628
:1012F8006F6000F0F9F8FFF795FF3268BFF34F8F82
:101308004D4BC3F86822BFF34F8FBFF36F8FD3F8ED
:10131800942022F00102C3F89420484AC3F8987038
:10132800C3F89C40C3F8A020D3F89420444F42F05F
:1013380005023946C3F894200422C3F89C22336876
:101348001A1F03F17C0051F8044B42F8044F824203
:10135800F9D180333B4C4FF400714FF48050336027
:10136800394B1A6B42F480021A6380221B6B03F418
:1013780080030193019B0023C4E901324FF480628A
:10138800E3612363C4E903124FF48042C4E9050210
:101398004FF400322046C4E908230322C4E90A2393
:1013A8002A4B23602A4BE3632A4BE364FFF7D2F905
:1013B800024600B1FEE70146DFF8A0803820FFF7BB
:1013C8005DF93820FFF78CF920234246174920465B
:1013D800FFF740FA00B1FEE72B78002BFCD0002382
:1013E80057F8041B58F8042B914204D0D5F88820EC
:1013F8000132C5F888200133202BF1D1164B336018
:10140800D5F888304BB10023C5F888300020FFF7A5
:1014180097F86420FFF70EF9F8E70020FFF790F837
:101428004FF4FA70FFF706F9F7E700BF0000012054
:10143800540200200C00002000ED00E01700020319
:10144800381500902803002000380240106402403C
:101458005D12009069120090DC0200205C020020FE
:101468007047FEE7FEE7FEE7FEE770477047704704
:10147800FFF7CEB84FF40060FFF7DABB0420FFF7A0
:10148800D7BB0000014B186FFFF722BAB00000204D
:10149800014B186BFFF71CBAF0020020FEE70000B2
:1014A80070B50D4D0D4C641BA4100026A64209D141
:1014B8000B4D0C4C00F020F8641BA4100026A6422B
:1014C80005D170BD55F8043B98470136EEE755F84D
:1014D800043B98470136F2E7C0150090C01500900C
:1014E800C0150090C415009002440346934200D1F1
:1014F800704703F8011BF9E7F8B500BFF8BC08BC52
:101508009E467047F8B500BFF8BC08BC9E467047B9
:10151800000000000000000001020304060708099B
:101528000000000001020304000610160006101651
:1015380004030201080706050C0B0A09100F0E0D1B
:1015480014131211181716151C1B1A19201F1E1D0B
:1015580024232221282726252C2B2A29302F2E2DFB
:1015680034333231383736353C3B3A39403F3E3DEB
:1015780044434241484746454C4B4A49504F4E4DDB
:1015880054535251585756555C5B5A59605F5E5DCB
:1015980064636261686766656C6B6A69706F6E6DBB
:1015A80074737271787776757C7B7A79807F7E7DAB
:0815B80080ECFF7F0100000040
:0415C000ED010090A9
:0415C400C9010090C9
:1015C8000024F400010000001000000000000120C9
:04000005900011D97D
:00000001FF
