:0200000490006A
:100000000000052001050090F5070090F70700901B
:10001000F9070090FB070090FD070090000000002A
:10002000000000000000000000000000FF0700903A
:1000300001080090000000000308009005080090EF
:100040005105009051050090510500905105009018
:100050005105009051050090510500905105009008
:1000600051050090510500905105009051050090F8
:1000700051050090510500905105009051050090E8
:1000800051050090510500905105009051050090D8
:1000900051050090510500905105009051050090C8
:1000A00051050090510500905105009051050090B8
:1000B00051050090510500905105009051050090A8
:1000C0005105009051050090510500905105009098
:1000D0005105009051050090510500905105009088
:1000E0005105009051050090510500905105009078
:1000F0005105009051050090510500905105009068
:100100005105009051050090510500905105009057
:100110005105009051050090510500905105009047
:100120005105009051050090510500905105009037
:100130005105009051050090510500905105009027
:100140005105009051050090510500905105009017
:100150005105009051050090510500905105009007
:1001600051050090510500905105009051050090F7
:1001700051050090510500905105009051050090E7
:1001800051050090510500905105009051050090D7
:1001900051050090510500905105009051050090C7
:1001A00051050090510500905105009051050090B7
:1001B00051050090510500905105009051050090A7
:0801C00051050090510500906B
:1001C80010B5054C237833B9044B13B10448AFF389
:1001D80000800123237010BDA00000200000000053
:1001E800F855009008B5034B1BB103490348AFF31A
:1001F800008008BD00000000A4000020F855009011
:1002080053B94AB9002908BF00281CBF4FF0FF3175
:100218004FF0FF3000F06EB9ADF1080C6DE904CE77
:1002280000F006F8DDF804E0DDE9022304B07047C9
:100238002DE9F047089D04468C46002B40F083804A
:100248008A42174647D9B2FA82F242B1C2F1200077
:1002580024FA00F09140974040EA010C94404FEA9C
:100268001748230CBCFBF8F61FFA87FE08FB16C1DB
:1002780043EA014306FB0EF1994209D9FB1806F13E
:10028800FF3080F01981994240F21681023E3B44CA
:100298005B1AA4B2B3FBF8F008FB103344EA03443A
:1002A80000FB0EFEA64509D93C1900F1FF3380F08A
:1002B8000581A64540F2028102383C4440EA0640E6
:1002C800A4EB0E0400261DB1D4400023C5E9004369
:1002D8003146BDE8F08702B9FFDEB2FA82F2002AA1
:1002E80050D1CB1B4FEA174E1FFA87F80126B3FBF4
:1002F800FEFC210C0EFB1C3341EA034108FB0CF306
:100308008B4207D979180CF1FF3002D28B4200F2E8
:10031800E9808446C91AA3B2B1FBFEF00EFB1011A6
:1003280043EA014408FB00F8A04507D93C1900F14D
:10033800FF3302D2A04500F2D9801846A4EB080486
:1003480040EA0C40BFE78B4209D9002D00F0B1808C
:100358000026C5E9000130463146BDE8F087B3FA0A
:1003680083F6002E4AD18B4202D3824200F2B88033
:10037800841A61EB030101208C46002DA8D0C5E941
:10038800004CA5E7C2F1200320FA03F6974001FAD2
:1003980002F04FEA174ED9403043030CB1FBFEF68A
:1003A8001FFA87F80EFB161143EA014306FB08F112
:1003B800994204FA02F409D9FB1806F1FF3C80F0CF
:1003C8008D80994240F28A80023E3B445B1A81B29A
:1003D800B3FBFEF00EFB103341EA034100FB08F3C8
:1003E8008B4207D9791800F1FF3C73D28B4271D93F
:1003F80002383944CB1A40EA064678E7C6F1200CA1
:1004080003FA06F422FA0CF31C4320FA0CF701FA5B
:1004180006F34FEA144E21FA0CF11F433B0CB1FBD3
:10042800FEF91FFA84F80EFB191143EA014109FB92
:1004380008FA8A4502FA06F200FA06F308D96118A2
:1004480009F1FF3048D28A4546D9A9F10209214469
:10045800A1EB0A01BFB2B1FBFEF00EFB101147EA97
:10046800014700FB08F8B84507D9E71900F1FF3143
:100478002ED2B8452CD90238274440EA0940A7EBC8
:100488000807A0FB02894F45C64649461AD317D02C
:100498005DB1B3EB0E0267EB010707FA0CFCF24003
:1004A8004CEA0202F740C5E9002700263146BDE8BC
:1004B800F0872E4628460BE70646E9E61846FDE68D
:1004C8004345E5D2B8EB020E69EB04010138DFE7DA
:1004D8000846D2E760468DE78146B9E7664675E784
:1004E80030464AE7ACF1020C394413E702383C4481
:1004F80024E700BF704700BFDFF834D0002103E0D5
:100508000C4B5B58435004310B480C4B42189A4231
:10051800F6D30B4A02E0002342F8043B094B9A4207
:10052800F9D300F0BDFE04F059FF00F00FF8704752
:10053800000005208898009000000020A0000020FE
:10054800A0000020C4050020FEE7000070B5ADF54E
:10055800976DBFF34F8FBFF36F8F9A4B0021C3F88E
:100568005012BFF34F8FBFF36F8F5A6942F40032B6
:100578005A61BFF34F8FBFF36F8FC3F88410BFF377
:100588004F8FD3F8802043F6E070C2F3C901C2F35D
:100598004E32520102EA00060D4646EA8574013DD4
:1005A800C3F86042F9D2203A12F1200FF2D1BFF31A
:1005B8004F8F5A6942F480325A61BFF34F8FBFF3AD
:1005C8006F8F00F0B7FE4FF4803301210224192009
:1005D800AB94CDE9A1134FF48003CDE9A7434FF4C1
:1005E800C873CDE9A9030823A1A8AC9301F0F4FBD3
:1005F80000B1FEE701F0B8FB00B1FEE70F234FF4AE
:10060800A0521790062115A8CDE915344FF4805350
:10061800CDE9182301F0CCFD044600B1FEE700F057
:100628005BFB4FF04041204600F030F9204600F0D7
:1006380065F900F083FA4FF4887322462146204674
:1006480000934FF4F073604C00F05EF928465F4D5C
:1006580000F07CF900F0A2FC00F096FB01282BD1F9
:100668004FF0FF3000F072F9574800F065F958492B
:10067800082000F04FFA574B0CAA03F12005186820
:10068800083353F8041C1446AB4203C42246F6D17F
:10069800186803A92060504804F0B2FD04460028F9
:1006A80050D1024603A9A1A804F06AFA054658B138
:1006B800204600F0A5F8FEE7204600F03DF929465F
:1006C800082000F027FAC7E70A22444915A804F0D1
:1006D8008BFA18B1284600F093F8FEE704AB232202
:1006E8000CA915A804F04AFC3D4A05AB10685168EE
:1006F80003C3906805A92322186004AB15A804F069
:100708003DFC384B08AA03F108051868083353F86C
:10071800041C1446AB4203C42246F6D118682322AF
:100728001B7908A9206015A8237104AB04F026FCE6
:10073800049B03B118B1002000F062F8FEE715A889
:1007480004F02BFD03A804F077FD4FF4FA7000F0D5
:1007580015FE1D4800F0F0F82349082000F0DAF9EA
:1007680001221E4915A804F03FFA05AB189A15A8EE
:10077800089904F051FB4FF07F4000F0DDF808A91C
:10078800082000F0C7F94FF4FA6000F0F7FD189A56
:1007980005AB0899013215A804F03EFB4FF07F40E5
:1007A80000F0CAF808A9082000F0B4F94FF4FA607C
:1007B80000F0E4FD15A804F0F0FC4FF47A7000F0A6
:1007C800DDFDFEE700ED00E00000FFFF7A970090F6
:1007D800A4970090F5970090B8930090C99700905F
:1007E8001998009025980090D49700907047FEE7DC
:1007F800FEE7FEE7FEE770477047704700F0ACBDC4
:1008080020B901220221024801F030B9704700BF27
:10081800002002402DE9F347194C98464FF4403325
:100828000E4617463421174A814663602046236CDA
:10083800DDF82CA001FB03239D6C0A9B022DE360CD
:1008480018BF0025104BA560236000F014FFA0B965
:100858004946204600F0D6FF78B93B463246514615
:100868002046CDF8008000F032FF30B90A2120463A
:1008780002B0BDE8F04700F044BF02B0BDE8F08721
:10088800BC0000205004002000B0024070B5184D94
:100898000446342617482A6C8EB0002306FB020251
:1008A8000A91FF21166E526E0193ADF834308DF81F
:1008B8003630CDE90423CDE90613CDE902634FF4C0
:1008C800C0610723CDE90B62CDE90813224601A9CF
:1008D80001F0C4F90C204FF0FF3300FB045083648F
:1008E800054BC3644FF07F4343640EB070BD00BF37
:1008F800BC0000205004002000000020014B1864B8
:10090800704700BFBC0000202DE9F041094F0446A4
:100918000D4616461946BDF818200346384601F01C
:10092800CAF92346324629463846BDE8F04101F067
:10093800EFB900BF50040020034A0C21136C01FBDF
:1009480003235864704700BFBC000020084B13B550
:100958001C6C3421074B0190204601FB0431002315
:100968000093D1E91823C96DFFF754FF02B010BDF9
:10097800BC000020500400200A4B30B51B6C342505
:10098800094C05FB0343D3E917459B6C05FB0101A3
:10099800022B03D192B224F8112030BD44F8212053
:1009A800FBE700BFBC000020500400202DE9F04FF9
:1009B80085B0A2F120054FF00008CDE900012848D4
:1009C8000C21D0F840B001FB0B01C96CB1F80490C0
:1009D800B1F806A009F107060A680AFB05F5F61042
:1009E800C9EBC60006FB052509F1FF3252FA80F370
:1009F8000293019BD04503EB080189B202D305B0ED
:100A0800BDE8F08F012E2C7804D0022E09D12C8855
:100A180064BAA4B20027B9450AD808F101083544D8
:100A2800E7E76A78240444EA0224AA781443F1E741
:100A3800009B01220391D819029BA3EB070C084BDA
:100A480080B2013702FA0CF222424FF00C0202FB8C
:100A58000B3214BF526C926CFFF78EFF0399DAE7E2
:100A6800BC0000202DE9F04705468A461646144684
:100A780012F8010B0028FAD124480C22012B016C32
:100A880002FB01024FF03400D76C214AB7F804E0AA
:100A980000FB0120006EB0FBFEF021D0022B27D016
:100AA8002BB24FF034084FF00009002B08FB012847
:100AB800D8BF0125BC881FFA89F3D8F8600016F85A
:100AC800092009F1010904FB13039BB2A34234BFB7
:100AD80000230123002A08BF00237BB9BDE8F08763
:100AE800341B04440EFB04F405EB540085B2D7E72D
:100AF800341B044414FB0EF4601BF7E728465146E8
:100B0800FFF754FFB888284485B2D3E7BC0000201B
:100B18005004002010B4084C0A460C21236C01FB39
:100B280003435DF8044BDB6CDB8813FB00F0032305
:100B380081B20020FFF796BFBC00002008B5094B22
:100B48004FF4805108481A68936943F00103936190
:100B5800012200F08BFF012208210448BDE808406B
:100B680000F084BF5004002000200240002802400A
:100B78004B4B4C485A6C42F08062F0B55A648FB0C7
:100B88005A6C02240E2509A902F080624FF480579E
:100B9800454E0092009A1A6B42F400021A631A6BCF
:100BA80002F400020192019A1A6B42F010021A63D1
:100BB8001A6B02F010020292029A1A6B42F040027B
:100BC8001A631A6B02F040020392039A1A6B42F4FA
:100BD80080721A631A6B02F480720492049A1A6B78
:100BE80042F400721A631A6B02F400720592059AB5
:100BF8001A6B42F480621A631A6B02F480620692DE
:100C0800069A1A6B42F480721A631A6B02F48072A5
:100C18000792079A1A6B42F480621A631B6B0D9550
:100C280003F480630893089B1023CDE9093400235B
:100C3800CDE90B3400F02EFE092309A91B480D93BA
:100C4800CDE9097400F026FE4FF4664309A9304641
:100C58000D95CDE9093400F01DFE4EF6FF7309A984
:100C680013480D95CDE9093400F014FEF72309A9BE
:100C78000D950125CDE909340E4C204600F00AFEF9
:100C880009A9304609970A9500F004FE082309A926
:100C98002046CDE9093500F0FDFD0FB0F0BD00BFDD
:100CA80000380240001002400020024000180240B4
:100CB800002402400028024006480823C365C023D8
:100CC8005C3043610523C3614FF48033C36201F094
:100CD8000FBB00BFBC00002010B52822244C0923FC
:100CE800352140F21B1040F21D1CC4E905230B23DB
:100CF800C4E9071340F215230021C4E9093040F282
:100D080035232046C4E90B3CFFF7D6FF4FF4F07EAD
:100D18004FF488732046C4E918E30023A38684F8B7
:100D28003630C4E90133C4E90333124B236001F0C0
:100D380018F8014610B92046FFF71AFF0C4800F0D2
:100D480021FF01224FF480510B4800F08FFE012251
:100D580008210A4800F08AFE00F064FA084A0C21CB
:100D68000020136C01FB0323064ADA6410BD00BFA0
:100D78005004002000680140002002400028024082
:100D8800BC00002000000020012307B54FF40051EB
:100D980007488DF8073000F063FE012802D10023D0
:100DA8008DF807309DF8070003B05DF804FB00BF1D
:100DB8000008024007B5009313460A460146044856
:100DC80001F086FD003818BF012003B05DF804FB70
:100DD800F804002007B5009313460A460146044864
:100DE80001F072FE003818BF012003B05DF804FB63
:100DF800F8040020534B5A6C42F400622DE9F04F7E
:100E08005A648BB05A6C032705464FF0040802F465
:100E1800006205A94C48002601924FF4804B019AC4
:100E28004FF0200A1A6B4FF44039484C42F48002C4
:100E38001A631A6B02F480020292029A1A6B42F049
:100E480004021A631A6B02F004020392039A1A6BE3
:100E580042F008021A6302221B6B03F00803049392
:100E6800049B0123CDE906230C23CDE908734FF435
:100E7800F853059300F00EFD05A93548CDF8148008
:100E880000F008FD00220E21312000F09BFA3120ED
:100E980000F0CAFA4FF480624FF000614FF48053BB
:100EA8002C482C6420602046A762E660A563C4E94C
:100EB8000423C4E901164FF400134FF40001C4E9F8
:100EC80006BAC4E90B13C4E9089800F067FB20468A
:100ED80000F0E4FA4FF480624FF48053C4F888704D
:100EE8004FF4000740214FF00060E666C4F89850C0
:100EF800C4E91C234FF40013C4E92373164B274697
:100F0800C4E9190147F8603F3846EF63C4E91EBADF
:100F1800C4E9209800F042FB384600F0BFFA324698
:100F28000F213B2000F04EFA3B2000F07DFA3246BC
:100F38000F21452000F046FA452000F075FA0BB065
:100F4800BDE8F08F00380240000802409C010020F4
:100F5800000C024058640240A06402407FB50D4B6B
:100F680001210D481A6B42F004021A634FF4005233
:100F78001B6B03F004030093009B0023CDE90123BE
:100F88000323CDE9031301A900F084FC07B05DF841
:100F980004FB00BF003802400008024070B5134C43
:100FA8000026134B31462046A661C4E90036C4E941
:100FB8000266C4E90466FFF7D1FFFFF7E5FE0128E2
:100FC800054611D120463146FFF714FF204601F0AF
:100FD800FFFF38B94FF40061204602F027F8851B5F
:100FE80018BF0125284670BD0225FBE7F80400203C
:100FF800002C014008B5034802F0AAF8043818BFCD
:10100800012008BDF80400200146014801F0FBBF9B
:10101800F80400202DE9F743214C0126214D4FF01B
:1010280000081027214681464FF6FF722846CDF862
:101038000480C4E90067C4E9026802F0BEF83046DB
:1010480000F09CF9022321464FF6FF722846C4E9B6
:101058000037C4E9026802F0B0F8032321464FF6CE
:10106800FF722846C4E900370823C4E9023802F0B1
:10107800A4F84FF4087321464FF6FF720193042336
:101088002846A660C4E90037019BE36002F095F8A2
:101098004946284603B0BDE8F04302F0A5B800BFB2
:1010A8001C0300207C050020554B9A6B42F001027E
:1010B80070B59A638EB09A6B064609A9514802F03A
:1010C800010200240192019A1A6B42F480021A6309
:1010D8001A6B02F480020292029A1A6B42F004021E
:1010E8001A631A6B02F004020392039A1A6B42F015
:1010F80008021A631A6B02F008020492049A1A6B27
:1011080042F010021A631A6B02F010020592059A57
:101118001A6B42F020021A631A6B02F02002069240
:10112800069A1A6B42F040021A631A6B02F04002E8
:101138000792079A1A6B42F080021A6301221B6B0E
:1011480003F080030893089B0223CDE90A320C932D
:101158000C230D930823099300F09CFB4CF20373B6
:1011680009A92948099300F095FB4FF6837309A94B
:101178002648099300F08EFB4FF63F0309A924483F
:10118800099300F087FB48F2331309A92148099312
:1011980000F080FB282309A91F48099300F07AFB77
:1011A8001E4B80224FF400714FF480501D461C6482
:1011B800DC62C3E905424FF48062C3E907124FF4C9
:1011C8008042C3E909024FF40032C3E90C24032228
:1011D800C3E90E24124A45F8102F284635639E6449
:1011E80000F0DCF9284600F059F922460F21382092
:1011F80000F0E8F8382000F017F90EB070BD00BF15
:101208000038024000080240000C02400010024072
:101218000014024000180240001C02401C03002079
:101228001064024038B51A4C07211A4B04221A4D93
:101238004FF4006023600223E260C5F88830C5E9F6
:101248001C31C5E91E21C5E92033102240230021A5
:10125800C4E904234FF48073A162C4E906314FF452
:101268008053C4E908032046C4E90111FFF71CFFB5
:1012780005F170012046094C01F07FFF003818BFC6
:101288000120207040F20360FFF7C4FE207838BDCB
:101298007C050020400100A01C030020280000203D
:1012A8000F490020D1F8883043F47003C1F8883022
:1012B8000C4B1A6842F001021A6098601A6822F012
:1012C800847222F480321A60074A5A601A6822F43B
:1012D80080221A60D8604FF010438B60704700BFBF
:1012E80000ED00E000380240103000247047000094
:1012F80070B50E4E05464FF47A730D4A3078B3FB3D
:10130800F0F31068B0FBF3F000F09CF8044650B915
:101318000F2D08D8024629464FF0FF3000F052F84A
:101328002046756070BD0120FCE700BF300000203A
:101338002C000020074A032008B5136843F4007303
:10134800136000F02DF80F20FFF7D2FFFFF7CEFF54
:10135800002008BD003C0240034A044B11681B787A
:101368000B441360704700BFB00500203000002018
:10137800014B1868704700BFB005002038B5044617
:10138800FFF7F6FF0546631C1EBF044B1B78E418E5
:10139800FFF7EEFF431BA342FAD338BD300000200D
:1013A80007490302CA6803F4E06322F4E062120406
:1013B800120C134343F0BF6343F40033CB60704710
:1013C80000ED00E0164B30B5DC68C4F30224C4F12C
:1013D8000705231D042D28BF0425062B4FF0FF33D6
:1013E8008CBF033C002403FA05F5002803FA04F334
:1013F80021EA050122EA030201FA04F141EA0203A3
:101408004FEA0313DBB206DB00F1604000F56140F0
:1014180080F8003330BD00F00F00024A1354F9E79A
:1014280000ED00E014ED00E0002808DB420901238C
:1014380000F01F0003FA00F0014B43F82200704748
:1014480000E100E00138B0F1807F0AD2064BF021BC
:10145800064A5860002082F82310072298601A6014
:1014680070470120704700BF10E000E000ED00E089
:10147800036802461820D9B21039B1FBF0F010B554
:10148800054C5F29205CD06523F47F7020F00300B1
:1014980088BF0430906510BD0493009070B5044671
:1014A800FFF766FF0546002C73D00023226884F8F6
:1014B8003430022384F83530136823F001031360B5
:1014C80021680B68D8072FD40B68334DA0691D40DD
:1014D800D4E901231343E268134322691343626981
:1014E8001343E26903431343226A1343626A042ADB
:1014F80043EA050302BFD4E90B5635432B43042ABC
:101508000B604B6923F0070343EA020333D1A26A55
:10151800E56A13437DB390B9012A21D032F0020263
:1015280029D1EA0127D51EE0FFF722FF401B052835
:10153800C6D920230320636584F8350070BDB0F553
:10154800005F14D1032A16D801A050F822F000BF7A
:101558006F1500902B1500906F150090691500907D
:10156800B5F1C07F07D1402301206365E4E7022A73
:10157800F9D9032AD5D04B612046FFF779FFE26DF0
:101588003F239340836000200123606584F8353051
:10159800D4E70120D2E700BF3F8010F038B50546F8
:1015A80020B390F83530022BDCB21DD0036800243C
:1015B8001A6822F001021A6021221C605C609C609B
:1015C800DC601C615A61FFF753FFEA6D3F239340CB
:1015D80083606C6585F8344085F83540C5E90F446B
:1015E800C5E91144C5E91344204638BD0124FBE789
:1015F80070B50468049D666C45EA034306F04046EE
:10160800334363644368E263B3F5403F30D186688F
:101618001EB1012E03D121F07F41A16370BD022EBE
:1016280001F47F0301F47F45C8B207D1DB0CAD0A92
:10163800DB0243EA451343EAD001EEE7032E01F04B
:101648007F420AD1DB0CED0A9B02D10F43EA451316
:1016580043EAD00343EAC131DFE7190D2D0B090234
:10166800130F41EA051141EA101141EA0331D4E7A9
:10167800E160D3E7704710B5044630B390F83930CD
:1016880003F0FF021BB980F83820FFF7F3FF226848
:1016980002236168002084F83930136823F440334A
:1016A8000B43A1681360536B23F007030B43E168F6
:1016B8005363136C23F47F5323F03F030B431364EA
:1016C8000123E06384F8393010BD0120FCE773B5CD
:1016D80090F838500446012D4FF002050FD080F8DD
:1016E80039500126069D80F838600095FFF780FF85
:1016F8002268002013683343136002B070BD284687
:10170800FBE7002373B50193044603680D461B6885
:10171800DB0717D42268D369526A13439E0606D59D
:10172800FFF726FE064623685A68D20643D5236883
:10173800122200209A60012384F8380084F8393096
:1017480002B070BDFFF714FE064623685A68920778
:10175800E0D45A680192019A12F0210F17D0019A29
:10176800950603D5E26B42F00202E263019AD007C4
:1017780003D5E26B42F00102E26321229A6004235E
:10178800012084F83930002384F83830D8E7691C00
:10179800DCD0FFF7EDFD801BA84201D8002DD4D185
:1017A800E36B032043F02003E363002384F839004C
:1017B80084F83830C4E75A680192019A12F0290F68
:1017C80016D0019A160703D5E26B42F00402E263D1
:1017D800019A950603D5E26B42F00202E263019A90
:1017E800D00703D5E26B42F00102E2632922C5E784
:1017F800691C99D0FFF7BCFD801BA842D0D8002DEA
:1018080091D1CDE7F0B590F83830012B4FF00203B5
:101818002BD080F83930012200EB01131C4F80F8DF
:1018280038200E015D6AD3E9074244EA0242093CC6
:10183800012C96BF05F07F4342EA05621A4303680C
:10184800A9B9596A012C01EA070142EA01025A6260
:1018580082699A6103D8426A22F07F429A62012320
:1018680080F83930002380F838301846F0BDD9693F
:10187800012C01EA070142EA0102DA6100EB0602E3
:1018880092691A61EBD825F07F451D62E7E700BF32
:10189800F0FFFC002DE9F74F0023DFF8BC816C4A0C
:1018A800DFF8B89101240D689C4004EA0506AC43B2
:1018B80040F0B4804C684FEA430E032524F0100C26
:1018C80005FA0EF50CF1FF37ED43012F11D88768A3
:1018D80007EA050ACF6807FA0EF747EA0A0787609A
:1018E800476827EA060AC4F300179F4047EA0A0731
:1018F8004760C768BCF1020F07EA050A8F6807FA54
:101908000EF747EA0A07C76016D14FEAD30A03F071
:10191800070B4FF00F0C00EB8A0A4FEA8B0BDAF833
:1019280020700CFA0BFC27EA0C0C0F6907FA0BF76E
:1019380047EA0C07CAF8207007683D4004F003071F
:1019480007FA0EFE4EEA05050560E50066D5D8F8EB
:10195800445023F0030703F0030C4FF00F0E45F437
:10196800804507F180474FEA8C0CC8F8445007F5CA
:101978009C37D8F8445005F480450195019D0EFA2E
:101988000CF5D7F808A02AEA050E324DA8424CD02B
:1019980005F58065A8424AD005F58065A84248D07B
:1019A80005F58065A84246D005F58065A84244D073
:1019B800484544D005F50065A84242D005F5806544
:1019C800A84240D005F58065A8423ED005F580655F
:1019D800A8420CBF09250A2505FA0CF514F4803F26
:1019E80045EA0E05BD606FEA060715680CBF3D4065
:1019F800354314F4003F156055680CBF3D4035432E
:101A080014F4801F556095680CBF3D403543A4020F
:101A18009560D56854BF3D403543D5600133102BE0
:101A28007FF440AF03B0BDE8F08F0025D4E701256F
:101A3800D2E70225D0E70325CEE70425CCE7052524
:101A4800CAE70625C8E70725C6E70825C4E700BF93
:101A5800003C0140000002400038024000140240EF
:101A68000369194214BF0120002070470AB181613F
:101A780070470904FBE7D201D1F800C02DE9F04313
:101A8800843204684F680CF10106A318E5684FF02A
:101A9800000ED1F818905868C5F30B4500F4704053
:101AA8003D445860E068C0F30B40304440EA0540CC
:101AB800CD685860E068C0F30A000544986800F4EF
:101AC800704098608868E6680130C6F30A063044BA
:101AD8000E6940EA05409860186920F0070018610F
:101AE8001E619D6991F8320091F83180C3F818E0C1
:101AF80091F8305045EA096545EA082545EA004568
:101B08009D61586920F0FF00586148695861D8699B
:101B180020F4E06020F00700D861D1E907500543C0
:101B2800DD61986A486AC3F828E098621EB3012EFE
:101B380023D0B01E022822D9072E0CBF0220012074
:101B4800DD6AA7EB0C0705F0E025DD628D6AC96A3E
:101B580045437843033040EA0540D862186B20F4C7
:101B6800FF6020F0070018631963A35843F00103CE
:101B7800A350BDE8F0830420E2E70320E0E7022059
:101B8800DEE7704738B50446002863D090F8A130E6
:101B980003F0FF021BB980F8A020FFF7F2FF022331
:101BA80084F8A13023689A6922F070429A61996991
:101BB800D4E901200243E0680243206902436069D6
:101BC8000A4325499A619A680A409A609A6842EAE3
:101BD8000042A0690243E0699A60DA680A40DA6064
:101BE800DA6842EA0042206A0243606ADA601A69E7
:101BF8000A401A611A6942EA0042A06A02431A615D
:101C08005A6911405961E16A5A6942EA0142216BF5
:101C18000A435A61D96A94F8360001F07F4194F872
:101C28003550D962D96A94F834200A4342EA052229
:101C380042EA00420020DA625A6B42F006025A6316
:101C48009A6942F001029A610123C4F8A40084F859
:101C5800A13038BD0120FCE700F800F02DE9F04183
:101C680090F8A03006460F469446012B4FF002002C
:101C78001FD034244FF001080D4686F8A10004FB5C
:101C8800026486F8A08038340FCD0FC40FCD0FC47E
:101C98000FCD0FC42B683046624639462360FFF7E4
:101CA800EAFE33680020C3F8248086F8A18086F80D
:101CB800A000BDE8F081F8B590F8A05004469E4613
:101CC800012D4FF0020521D080F8A15034250127BD
:101CD8005D4380F8A0704619B36B03EB010C336CBD
:101CE800C6E91812C6F83CC005F1380103EB020C2E
:101CF80072460144C6F844C0FFF7BDFE23680020C1
:101D08005F6284F8A17084F8A000F8BD2846FCE75B
:101D1800F8B590F8A05004469C46012D4FF00205F6
:101D28001DD080F8A150342501275D4380F8A070AC
:101D38004619336EB1631944C6E90F12716E0A442D
:101D480005F13801726401446246FFF794FE236886
:101D580000205F6284F8A17084F8A000F8BD2846CE
:101D6800FCE790F8A1007047194B37B51A6C194C6D
:101D780042F080521A641B6C03F080530193019B5C
:101D8800236843F480332360FFF7F2FA054663685B
:101D9800DA030CD523680F4D43F400332360FFF7B3
:101DA800E7FA04466B689B030AD5002006E0FFF7B4
:101DB800DFFA401BB0F57A7FE9D9032003B030BDC4
:101DC800FFF7D6FA001BB0F57A7FEBD9F5E700BF2D
:101DD80000380240007000402DE9F341044640B34A
:101DE8000368D80710D42368990764D423681907AF
:101DF80000F1AA8023685A0700F1CB80A269002A63
:101E080040F0348100202BE0964B9A6802F00C02D7
:101E1800042A07D09A6802F00C02082A0BD15A68E3
:101E2800520208D58F4B1B689B03DCD56368002BD7
:101E3800D9D1012014E06268B2F5803F13D11A6845
:101E480042F480321A60FFF793FA864E05463368EB
:101E58009F03C8D4FFF78CFA401B6428F7D90320E6
:101E680002B0BDE8F0817F4D2B6892B923F480332E
:101E78002B602B6823F480232B60FFF779FA064642
:101E88002B689803AFD5FFF773FA801B6428F7D93E
:101E9800E5E7B2F5A02F07D143F480232B602B6828
:101EA80043F480332B60CEE723F480332B602B6818
:101EB80023F48023F6E76B4B9A6812F00C0F07D0D7
:101EC8009A6802F00C02082A11D15A6851020ED4FD
:101ED800644B1A68920702D5E268012AA9D11A68E8
:101EE800216922F0F80242EAC1021A607EE7E2683C
:101EF800C2B11A685B4D42F001021A60FFF738FA66
:101F080006462B689F0707D52B68226923F0F8033C
:101F180043EAC2032B6069E7FFF72AFA801B02280D
:101F2800EFD99CE71A684F4E22F001021A60FFF7BA
:101F38001FFA0546336898077FF558AFFFF718FA78
:101F4800401B0228F6D98AE76369464D83B16B6F57
:101F580043F001036B67FFF70BFA06466B6F9B07AD
:101F68003FF548AFFFF704FA801B0228F6D976E759
:101F78006B6F23F001036B67FFF7FAF906466B6F87
:101F88009F077FF537AFFFF7F3F9801B0228F6D9D3
:101F980065E7344B1A6CD00027D41A6C012742F03D
:101FA80080521A641B6C03F080530193019B2E4DE1
:101FB8002B68D9051BD5A3682A4D012B27D12B6F78
:101FC80043F001032B6741F28838FFF7D1F9254E1A
:101FD8000546336F9B073FD5002F3FF40FAF214ACB
:101FE800136C23F08053136408E70027DFE72B689E
:101FF80043F480732B60FFF7BBF906462B68DA05BC
:10200800D9D4FFF7B5F9801B6428F7D927E7ABB90E
:102018002B6F41F2883823F001032B672B6F23F0D5
:1020280004032B67FFF7A4F906462B6F9807D3D54F
:10203800FFF79EF9801B4045F7D910E7052B2B6F5A
:1020480003D143F004032B67B9E723F001032B679F
:102058002B6F23F00403B5E7FFF78AF9401B4045CF
:10206800B7D9FCE60038024000700040384DAB6834
:1020780003F00C03082B41D02B68022A23F080734D
:102088002B602ED1FFF774F906462B68990122D4EC
:10209800A36A5B085A1ED4E907310B4343EA02439B
:1020A800626A43EA8213E26A43EA026343F0005336
:1020B8006B602B6843F080732B60FFF759F9244D50
:1020C80004462B689A013FF59DAEFFF751F9001BB6
:1020D8000228F6D9C3E6FFF74BF9801B0228D4D9AA
:1020E800BDE6FFF745F904462B689B017FF58AAEEC
:1020F800FFF73EF9001B0228F6D9B0E6012A6B6803
:102108003FF497AE03F48002E1698A427FF491AE0E
:1021180003F03F02216A8A427FF48BAE47F6C07211
:10212800616A1A40B2EB811F7FF483AEA26A03F49E
:1021380040315208013AB1EB024F7FF47AAE03F016
:102148007063E26AB3EB026F3FF45CAE71E600BF06
:1021580000380240134908B58B6803F00C03042BC0
:102168001BD0082B1BD14A684B68496802F03F0214
:1021780013F48003C1F388111ABF0B4800230B48DE
:10218800A1FB0001FEF73CF8064B5B68C3F3014373
:1021980001335B00B0FBF3F008BD0348FCE70348DC
:1021A800FAE700BF0038024040787D010024F400BF
:1021B8002DE9F0410D46044610B90120BDE8F08133
:1021C800464A136803F00F038B4228D32268970707
:1021D80030D4D00744D4414A136803F00F03AB420C
:1021E80067D82268510770D4130707D53C4A21697C
:1021F800936823F4604343EAC1039360FFF7AAFF9F
:10220800374B384A9B68C3F30313D35CD840364B2B
:102218001860364B1868FFF76BF80020CEE7136894
:1022280023F00F030B431360136803F00F038B4273
:10223800C3D1CBE712F0040F294B03D0996841F4BE
:10224800E0519960160703D5996841F46041996097
:102258002349A0688B6823F0F00303438B60B8E739
:1022680061681F4B01291A681BD112F4003FA4D0E2
:102278009A6841F288381A4F22F003020A439A609A
:10228800FFF776F80646BB68626803F00C03B3EB09
:10229800820FA0D0FFF76CF8801B4045F3D90320CC
:1022A8008CE7022902D112F0007FE0E712F0020F5A
:1022B800DDE7136823F00F032B431360136803F063
:1022C8000F03AB427FF479AF8BE70549E0688B6871
:1022D80023F4E05303438B6086E700BF003C0240D1
:1022E80000380240EC9200902C00002034000020BE
:1022F80003682DE9F74313F0010604460BD0AA4AF8
:10230800916821F400019160466B91683143B6FAF7
:1023180086F67609916013F4002512D0A249E56B80
:10232800D1F88C20B5F5801F22F4401208BF012691
:1023380042EA050216BFB5FA85F500256D09C1F810
:102348008C20DF0210D59848216CD0F88C20B1F58C
:10235800800F22F4400242EA0102C0F88C2000F00B
:102368008481002908BF012513F0807F18BF01264A
:10237800980631D58C4B8D4F1A6C42F080521A64F6
:102388001B6C03F080530193019B3B6843F48073FB
:102398003B60FEF7EDFF80463B68D90540F1678159
:1023A800814F3B6F13F4407340F06C81236B03F44F
:1023B8004072B2F5407F7C4A40F08A81916823F0F0
:1023C800704021F4F81120F4407001439160C3F388
:1023D8000B03116F0B4313672368D8060CD5724A99
:1023E800D2F88C1021F08071C2F88C10D2F88C10C1
:1023F800A06B0143C2F88C10590408D56A49606E75
:10240800D1F8902022F440320243C1F890201A04F7
:1024180008D56549A06ED1F8902022F440220243E5
:10242800C1F89020DF0308D55F49E06ED1F890200D
:1024380022F440120243C1F89020980308D55A4963
:10244800206FD1F8902022F440020243C1F8902076
:10245800590608D55449606CD1F8902022F003023F
:102468000243C1F890201A0608D54F49A06CD1F84C
:10247800902022F00C020243C1F89020DF0508D515
:102488004949E06CD1F8902022F030020243C1F8AB
:102498009020980508D54449206DD1F8902022F065
:1024A800C0020243C1F89020590508D53E49606D25
:1024B800D1F8902022F440720243C1F890201A0506
:1024C80008D53949A06DD1F8902022F44062024322
:1024D800C1F89020DF0408D53349E06DD1F8902089
:1024E80022F440520243C1F89020980408D52E499E
:1024F800206ED1F8902022F440420243C1F8902087
:10250800590208D52849A06FD1F8902022F080629E
:102518000243C1F890209A020CD52348E16FD0F805
:102528009020B1F1006F22F0006208BF01250A4334
:10253800C0F8902013F0080F18BF01255F0308D5D5
:102548001949606FD1F8902022F040720243C1F817
:102558009020180209D51449D4F88000D1F89020A9
:1025680022F080520243C1F89020012E00F0B4807E
:10257800990100F1B180012D75D10B4D2B682E46C4
:1025880023F080532B60FEF7F3FE07462B689B0071
:1025980000F126812268150301D5E36B43B1D0020F
:1025A80021D5236CFBB903E00038024000700040DD
:1025B800D6F88830D6F8881003F4403301F0E041AB
:1025C8000B43616943EA8113A16943EA0163C6F8D1
:1025D8008830D6F88C30A16A23F4F853013943EADD
:1025E8000123C6F88C30910215D5E36FB3F1006F63
:1025F80011D18249D1F88830D1F8880003F070638E
:1026080000F0E0400343606943EA8013206A43EA2C
:102618000043C1F88830120719D5784AD2F88810D3
:10262800D2F8883001F0706103F440330B436169DC
:1026380043EA8113E16943EA0173C2F88830D2F8AA
:102648008C30E16A23F440330B43C2F88C306B4C76
:10265800236843F080532360FEF78AFE054623680B
:102668009B0040F1C480002009E001267CE6FEF7CB
:102678007FFEA0EB080064287FF68EAE032003B02F
:10268800BDE8F083226B02F4407293423FF48EAEB1
:102698003B6F3A6F23F4407342F480323A673A6FE3
:1026A80022F480323A673B673B6FDA077FF57EAEEC
:1026B800FEF75EFE41F2883980463B6F9B073FF587
:1026C80075AEFEF755FEA0EB08004845F5D9D5E7ED
:1026D800916821F4F81179E6484E336823F0806355
:1026E8003360FEF745FE074633681A0172D4226844
:1026F800D30712D5636B83B9D6F88430D6F8841023
:1027080003F4403301F070610B43616843EA8113BD
:10271800A16843EA0173C6F88430170303D5E36B55
:10272800B3F5801F05D0D6021ED5236CB3F5800FF4
:102738001AD13249D1F88430D1F8840003F44033F7
:1027480000F0E0400343606843EA8013E06843EA2E
:102758000063C1F88430D1F88C00636A20F01F0050
:10276800013B0343C1F88C30D00111D52349D1F87E
:102778008430D1F8840003F0706300F0E040034334
:10278800606843EA8013206943EA0043C1F8843053
:1027980091010DD5236962681B0443EA8213E2683C
:1027A80043EA0263A26843EA0273144AC2F8843017
:1027B800124E336843F080633360FEF7D9FD074655
:1027C80033681A013FF5D7AEFEF7D2FDC01B642867
:1027D800F6D953E7FEF7CCFDC01B642884D94DE732
:1027E800FEF7C6FDC01B64287FF6D0AE46E7FEF7AD
:1027F800BFFD401B64287FF632AF3FE70038024038
:10280800F0B5054689B00E46FEF7B2FD002307462F
:1028180008212868CDE9003300F0BBFE0446D8B98A
:10282800296D2868090400F0C1FF0446A0B94FF0DB
:10283800FF320823302106902868CDE902230223BD
:10284800CDE90413012302A9079300F08FFE28683D
:1028580000F0F5FF044690B1204609B0F0BD426B88
:10286800930212D500F058FE08AB03EB8403013441
:1028780043F8200CFEF77CFDC01B013023D02868EC
:10288800426B12F02A0FEAD002E0426B9104F1D4B5
:10289800426B120702D508248463DDE7426B930775
:1028A80001D50224F8E7446B14F0200401D0202459
:1028B800F2E7019B40F23A521BBA82633360009BF5
:1028C8001BBA7360C8E74FF00044C5E770470000C3
:1028D8002DE9F04F0D4687B0044616469A46FEF796
:1028E80047FD80462DB9A36B43F000630127A3631E
:1028F80010E094F83430012BDFB240F0DF8006EBB3
:102908000A03E26D00219342A16307D9A36B43F048
:102918000073A363384607B0BDE8F08F032320682F
:1029280000224FF0010B84F834304FF00209636C39
:10293800C1626946012B4FF0FF3300934FEA4A23E7
:1029480018BF760201939023CDE9042BCDE9023913
:1029580000F00CFEDA4512D931462068C4F83090F0
:1029680000F047FE90B12368564A9A63A36B184358
:10297800A063012384F8343000232363CAE7314677
:102988002068C4F830B000F01CFEEBE7019E206818
:10299800436B13F4957F436B17D0DB0509D5BAF168
:1029A800010F06D9636C032B03D000F06BFE0028DF
:1029B800D9D12368596B11F0080136D0414A9A637E
:1029C800A36B43F00803A363D3E71A0418D5BEB179
:1029D80005F1040B05F1240920680BF1040B00F044
:1029E8009BFD0BF8080C020A0BF8072C020C000ED2
:1029F8000BF8062C0BF8050CD945EDD12035203EF7
:102A0800FEF7B6FC109BA0EB08009842BFD32368E2
:102A180003272C4A9A63A36B43F00043A363012363
:102A280084F834300023236374E75A6B12F00202EF
:102A38000AD0244A9A63A36B43F00203A3630123D9
:102A480084F83430216365E7596B890627D51D4919
:102A58009963A36B43F02003A363012384F8343004
:102A6800226357E700F058FD05F8040C030A043EFA
:102A7800043505F8073C030C05F8063C030E05F879
:102A8800053CFEF775FC109BA0EB0800984207D3A5
:102A980023680C4A9A63A36B43F0004393E7043519
:102AA8002068436B9B0201D5002EDBD140F23A53DC
:102AB80000278363012384F834302BE7A36B43F0AA
:102AC800005313E7FF0540002DE9F04F0D4689B08C
:102AD800044692461F46FEF74BFC814635B9A36B68
:102AE80043F000634FF00108A36311E094F8343019
:102AF800012B5FFA83F840F0AC800AEB0703E26D24
:102B080000219342A16307D9A36B43F00073A36329
:102B1800404609B0BDE8F08F0323206884F83430BC
:102B2800636CC1629021012B4FF0FF3302934FEA8F
:102B3800472318BF4FEA4A2A03930023CDE9041319
:102B48000693012302A9079300F010FD012F12D963
:102B5800202351462068236300F07BFD90B1236851
:102B68003E4A9A63A36B1843A063012384F8343068
:102B780000232363CCE7102351462068236300F029
:102B880050FDEBE7039E2068436B13F48D7F436B86
:102B980016D0DB0508D5012F06D9636C032B03D0AB
:102BA80000F070FD0028DAD12368586B10F0080097
:102BB80029D02A4A9A63A36B43F00803A363D4E796
:102BC8005A040CD55EB105F1200B55F8043B01A958
:102BD8002068019300F0A3FCAB45F6D1203EFEF738
:102BE800C7FB129BA0EB09009842CCD323684FF097
:102BF80003081A4A9A63A36BA363012384F8343049
:102C08000023236384E7596B11F002010AD0134AA9
:102C18009A63A36B43F00203A363012384F834305F
:102C2800206375E75A6B12F010020AD00B4A9A63B8
:102C3800A36B43F01003A363012384F834302163AA
:102C480066E740F23A5190469963012384F834309C
:102C58005EE7A36B43F0005344E700BFFF05400065
:102C6800436E9A0F0A70C3F383624A70C3F301621A
:102C78008A70C3F30742CA70C3F30722DBB20A7132
:102C88004B71836E1A0DCA80C3F303420A72C3F3F1
:102C9800C0324A72C3F380328A72C3F34032CA72B6
:102CA800C3F300320A7300224A73426C10B5002A3B
:102CB8006BD140F6FC74C26E04EA830343EA927354
:102CC8000B61C2F3C2630B75C2F302634B75C2F3A7
:102CD80042538B75C2F38243C2F3C232CB750A7674
:102CE8000B690A7E013302F0070202329340436502
:102CF8000A7A02F00F040122A2408265520A534365
:102D0800C3654FF400730366C36EC3F380324A761B
:102D1800C3F3C61203F07F038A76CB76036F0020D5
:102D2800DA0F0A77C3F341724A77C3F382628A776C
:102D3800C3F38352CA77C3F3405281F82020C3F308
:102D4800004281F8210081F82220C3F3C03281F8C3
:102D58002320C3F3803281F82420C3F3403281F862
:102D68002520C3F3003281F82620C3F3812281F89D
:102D78002720C3F30122C3F3460381F8282081F8F2
:102D88002930012381F82A3010BD012A0FD11B04F4
:102D9800B0F86E2003F47C1313430B610B69013305
:102DA8009B024365C3654FF400738365ABE7036813
:102DB800054A9A63836B43F080538363012380F849
:102DC80034301846E0E700BFFF0540002DE9F04128
:102DD800002398B004460B93CDE90933CDE90733B6
:102DE80076230C930AAB93E8070007AB8DE807003E
:102DF80020680ECB00F074FB054650BB2068436882
:102E080023F48073436000F08FFB2068436843F429
:102E180080734360069500F067FC054698B9206802
:102E280000F088FC30B12068A56400F05DFC90B12A
:102E3800054608E00123A3640021206800F0B6FCE1
:102E480060B14FF08055012084F83400A36B2B4308
:102E5800A3630125B3E0A36C012BEDD04FF6FE76FA
:102E68000021DFF86881374614E0206800F09EFCF6
:102E780005460028E7D14146206800F0AFFC00284D
:102E8800DFD12946206800F06EFB069B0546C10F7E
:102E980001330693069BB34201D80029E5D0069B6F
:102EA800BB420CD8C5F38075012320686564ADF872
:102EB800163000F041FB28B94FF0806079E04FF000
:102EC8008075C0E7636C032B43D0206800F0CFFC0B
:102ED80000286ED10146206800F045FB0421606798
:102EE800206800F040FB0821A067206800F03BFB49
:102EF8000C21E067206800F036FB636CC4F88000A2
:102F0800032B26D00DF11601206800F0DBFC002809
:102F18004FD1636C2068032B1BD0BDF816102165B8
:102F2800090400F0B9FC002843D10146206800F0EC
:102F38001AFB04216066206800F015FB0821A066D2
:102F4800206800F010FB0C21E066206800F00BFB05
:102F580020670421206800F006FB0DA9000DE0643D
:102F68002046FFF77DFE054608BB226D0346206814
:102F7800120400F0A1FBE0B904F1100393E8070084
:102F8800231D8DE8070020680ECB00F0A9FA4FF446
:102F98000071206800F0FDFA88B1236801250A4A0B
:102FA8009A63A36B1843A06384F8345007E04FF08A
:102FB8008050012584F83450A16B0143A163284651
:102FC80018B0BDE8F08100BFFF054000000010C147
:102FD80010B5044608B9012010BD90F8343003F04C
:102FE800FF0213B90277FFF771FC0323204684F828
:102FF8003430FFF7EBFE0028EDD10123A0632063F6
:1030080084F83430E8E7436C0B60836C4B60C36C26
:103018008B60036DCB60436D0B61836D4B61C36D3A
:103028008B61036E0020CB61704700000323F0B56D
:1030380080F834308BB0436C04460D46032B02D025
:10304800B1F5805F03D1A36B43F0805365E0B1F520
:10305800006F00683CD10021CDE9041100F083FA2B
:10306800800130D404A92046FFF7CAFB60B9059B4C
:1030780059032AD5216D2068090400F097FB18B977
:103088000221206800F0C3FBA36B1843A063A66B62
:103098002768002E43D02D4B0125BB6384F834509C
:1030A8004FF40071206800F074FA30B123680125EC
:1030B800264A9A63A36B1843A0630123284684F821
:1030C80034300BB0F0BD2846DEE74FF08060DBE718
:1030D80001BBCDE9041100F046FA820114D404A919
:1030E8002046FFF78DFB60B9059BDB030FD5216DEB
:1030F8002068090400F05AFB18B90146206800F05E
:1031080086FBA16B0843C1E74FF40060F9E74FF075
:103118008060F6E7A36B43F00063A363B7E76368D7
:103128000493A3680593E368CDE9063563693546DA
:103138000893A36909930AAB13E9070004AB8DE868
:10314800070038460ECB00F0CBF9A9E7FF05400091
:10315800016D10B509040446006800F005FC30B99B
:103168000146206800F0FFF9C0F3432010BDA16BB1
:103178000843A0630020F7E7704738B50D460446BA
:10318800C8B190F82C3003F0FF021BB980F82D204D
:10319800FFF7F2FF0223211D206884F82C3000F08D
:1031A80035F862682946206800F066F80123002097
:1031B80084F82C3038BD0120FCE738B590F82C3065
:1031C80004460D46022BD8B20DD00223206884F89D
:1031D8002C3000F094F82B680020022B0CBF05233C
:1031E800012384F82C3038BD10B590F82C300446F3
:1031F800022BD8B209D00223206884F82C3000F0C2
:1032080090F80123002084F82C3010BD2DE9F041FE
:103218004A6AD1E90743D1E90158D1E903ECD1E978
:103228000576096823430468012912490FD01A4317
:1032380021402A4342EA080343EA0E0343EA0C0307
:103248003B4333430B4303600020BDE8F081134345
:10325800426824F4F844114045EA0802234342EA4C
:103268000E02036042EA0C023A4332430A434260C8
:10327800EAE700BF0080FFFFCB68012AF0B50C68C1
:1032880003F1FF374B698E6804F1FF3C0D6903F1C8
:10329800FF334C6806F1FF3689694FEA035304F19E
:1032A800FF3405F1FF3501F1FF314FEA06264FEAF9
:1032B80004144FEA05454FEA016143EA07330CD08D
:1032C80043EA0C038268234302F0704233432B43E2
:1032D8000B43134383600020F0BD8768344327F411
:1032E800700744EA0C0227F470472A433B43C76837
:1032F8000A4307F0704783603A43C260EBE702690C
:1033080010B5D1E90034920D2343CC68920543EA05
:10331800442313438A68013A43EA421303610020B5
:1033280010BD436943EA4101416100207047000034
:10333800114B4FF4FA5102461B68B3FBF1F141F20D
:1033480088334B43013B13D3516B11F0450FF9D030
:103358000905F7D4536B5B0702D5042090637047C7
:10336800506B10F0010014BF0123C523936370470D
:103378004FF00040704700BF2C0000200F4B4FF467
:10338800FA5102461B68B3FBF1F141F288334B4313
:10339800013B0FD3516B11F0450FF9D00905F7D454
:1033A800506B10F0040002D0042090637047C523CE
:1033B800936370474FF00040704700BF2C00002017
:1033C800454B10B51B6804464FF4FA50B3FBF0F3B5
:1033D8005A43002A49D0636B13F0450F07D01B05E9
:1033E80005D4636B580704D50420A06310BD013AC7
:1033F800EFE7606B10F0010002D00123A363F5E74B
:10340800C523A3632369DBB2994231D16369334889
:1034180018400028EAD0002B2CDB5A002DD49C0041
:103428002DD4D9002DD41A012ED45C012FD4D90162
:1034380030D41A0231D45C0232D4990233D4DA027D
:1034480034D45C0335D4990336D4DA0337D41C0456
:1034580038D4590439D49A043AD413F0080F14BF55
:103468004FF400004FF48030C0E74FF00040BDE754
:103478000120BBE74FF00070B8E74020B6E7802096
:10348800B4E74FF48070B1E74FF40070AEE74FF443
:103498008060ABE74FF40060A8E74FF48050A5E7E1
:1034A8004FF40050A2E74FF480409FE74FF40040EC
:1034B8009CE74FF4003099E74FF4802096E74FF4EB
:1034C800002093E74FF4801090E74FF400108DE749
:1034D8004FF480008AE700BF2C00002008E0FFFDC1
:1034E80084B010B503AC84E80E000B46049942681A
:1034F8000B43059922F4FD420B43069922F07F0203
:103508000B4307990B4308990B43BDE8104013433D
:1035180004B0436000207047D0F8800070470B6803
:10352800C0F880300020704708B5032303600220EC
:10353800FDF724FF002008BD006800F00300704775
:103548000B6810B58360C268D1E9013422F47F6248
:103558002343CC68096922F00F0223430B4313432A
:10356800C360002010BD1430405870470B6810B578
:1035780043624B688362C26AD1E9023422F0F702DF
:1035880023430C69496923430B431343C362002057
:1035980010BD30B5402387B01025002204460191A4
:1035A80001A9CDE902534FF48063CDE90423FFF765
:1035B800C7FF41F2883229462046FFF701FF07B0CE
:1035C80030BD30B5402387B0112500220446019153
:1035D80001A9CDE902534FF48063CDE90423FFF735
:1035E800AFFF41F2883229462046FFF7E9FE07B0CF
:1035F80030BD30B5402387B0122500220446019122
:1036080001A9CDE902534FF48063CDE90423FFF704
:1036180097FF41F2883229462046FFF7D1FE07B0CE
:1036280030BD30B5402387B01825002204460191EB
:1036380001A9CDE902534FF48063CDE90423FFF7D4
:103648007FFF41F2883229462046FFF7B9FE07B0CE
:1036580030BD30B5402387B01925002204460191BA
:1036680001A9CDE902534FF48063CDE90423FFF7A4
:1036780067FF41F2883229462046FFF7A1FE07B0CE
:1036880030BD000030B5002387B00C254022044629
:1036980001A9CDE90323CDE901354FF480630593F2
:1036A800FFF74EFF034A29462046FFF789FE07B079
:1036B80030BD00BF00E1F50530B5402387B00725D0
:1036C80004460192002201A9CDE902534FF4806318
:1036D800CDE90423FFF734FF41F28832294620461A
:1036E800FFF76EFE07B030BD10B5002386B0044664
:1036F80001A9CDE90133CDE903334FF48063059384
:10370800FFF71EFF0A4B4FF4FA521B68B3FBF2F2A5
:1037180041F288335343013B07D3626B1206FAD553
:10372800C5230020A36306B010BD4FF00040FAE7A0
:103738002C00002010B54FF4D57C86B008234FF03C
:10374800400E01A90446CDE901C30023CDE903E3F6
:103758004FF480630593FFF7F3FE134B4FF4FA52CF
:103768001B68B3FBF2F241F288335343013B18D391
:10377800626B12F0450FF9D01105F7D4636B5A0745
:1037880003D50420A06306B010BD606B10F00100E3
:1037980002D00123A363F6E7636B5B06F3D54023EE
:1037A800F8E74FF00040EEE72C00002030B540234A
:1037B80087B0372500220446019101A9CDE90253BB
:1037C8004FF48063CDE90423FFF7BAFE41F2883253
:1037D80029462046FFF7F4FD07B030BD41F000410F
:1037E8002922402341F4801110B586B00446CDE962
:1037F800022301914FF480630021CDE9041301A94C
:10380800FFF79EFE2046FFF7B9FD06B010BD30B5A4
:10381800402387B0062500220446019101A9CDE97D
:1038280002534FF48063CDE90423FFF789FE41F288
:10383800883229462046FFF7C3FD07B030BD30B5B2
:10384800002387B033254022044601A9CDE903238C
:10385800CDE901354FF480630593FFF771FE41F21E
:10386800883229462046FFF7ABFD07B030BD10B5BA
:10387800002386B00222044601A9CDE90132C02204
:10388800CDE903234FF480630593FFF759FE2046E3
:10389800FFF74EFD06B010BD10B5092286B0C02353
:1038A800044601910021CDE902234FF48063CDE95C
:1038B800041301A9FFF744FE2046FFF739FD06B0BF
:1038C80010BD000030B5002387B003220D4601A9C2
:1038D8000446CDE901324022CDE903234FF4806349
:1038E8000593FFF72DFE1F4B4FF4FA521B68B3FBED
:1038F800F2F241F288335343013B2AD3626B12F050
:10390800450FF9D01005F7D4636B590703D5042088
:10391800A06307B030BD606B10F0010002D0012336
:10392800A363F6E72369DBB2032B15D1C523A36391
:10393800636913F4604002D11B0C2B80E9E75A0439
:103948000CD413F4004F14BF4FF480504FF4803060
:10395800DFE74FF00040DCE70120DAE74FF40050E2
:10396800D7E700BF2C00002030B5402387B00D25D5
:1039780000220446019101A9CDE902534FF4806366
:10398800CDE90423FFF7DCFD41F2883229462046C1
:10399800FFF716FD07B030BD034B1A1803EB800084
:1039A8004368107B5B68184734040020064B1A5C98
:1039B80042B901221A541A1803EB8003107B5B6882
:1039C8001B681847002070473404002030B4054CA9
:1039D800251804EB800040688468287BA44630BC26
:1039E800604700BF3404002030B4054C251804EBB0
:1039F80080004068C468287BA44630BC604700BF8C
:103A080034040020054B10B41C1803EB80004368F5
:103A1800207B1B695DF8044B184700BF3404002065
:103A28000020704742884378007843EA022340EA3E
:103A3800032070470B0A017043700B0C090E83704A
:103A4800C1707047024400F8011B9042FBD17047D7
:103A58001B4A136830B563B104689C4207D15468A7
:103A680083689C4203D1946843699C4220D0002417
:103A780000E001241369CBB10568AB4207D1556951
:103A880083689D4203D1956943699D4215D06CB9FD
:103A980002290CBF0020122030BD02EB03129389CB
:103AA800B3F5807F14BF00201020F5E70020F3E76E
:103AB80000230029F1D01020EEE70123F9E700BF29
:103AC800080400201F4AF0B5136806689E4207D113
:103AD80055688468A54203D145699468A5421BD0FE
:103AE8001469B44207D157698568AF4203D1976911
:103AF8004569AF4219D00BB1ACB901231D0102EBE6
:103B080003145651856840696560A0600020A08153
:103B180069B14FF480710FE0002341B102EB03114A
:103B280089890029F5D000200AE00123F5E702EB96
:103B380003118989013189B202EB0312581C918162
:103B4800F0BD00BF080400200138012815D80C4A30
:103B5800010102EB00108389B3F5807F04D10023B3
:103B68008381002050507047002BFAD0013B9BB254
:103B78008381002BF5D0002070470220704700BFDA
:103B88000804002083690239023B8B4283BF4389C2
:103B9800C06A01FB0300002070470268490AC36A33
:103BA80052890433B1FBF2F1186830B1814202D373
:103BB800091A0833F8E758680844704700F10B0100
:103BC8000022D30143EA520310F8012B52FA83F37F
:103BD8008842DAB2F5D1104670470368014610B53D
:103BE80053B11846024610F8014B1F2C10D93A2C35
:103BF800F8D1581C824202D04FF0FF3007E01B7802
:103C0800303BD8B20128F7D8013218460A6010BDF7
:103C18000020FCE738B50D46044618B909200023F2
:103C28002B6038BD0368002BF8D01A78002AF5D02D
:103C38008188DA889142F1D15878FFF7ADFE10F00B
:103C48000100EBD12368EBE701380A4411F8013B86
:103C5800914200F8013FF9D170470328CA7E8B7E54
:103C680008BF487D43EA022302BF0A7D42EA0022D8
:103C780043EA024318467047C2F307238A76CB7695
:103C88000378032B01BF120C0A75120A4A75704794
:103C98002DE9F041066B00F1340804460123324651
:103CA80041464078FFF7A0FE0546A8B9636AE26975
:103CB800F31AE070934202D2A778012F02D828465F
:103CC800BDE8F081E36941466078013F1E44012365
:103CD8003246FFF789FEF0E70125F0E7C3780BB11C
:103CE800FFF7D6BF1846704738B5036B05460C4634
:103CF8008B4210D0FFF7F2FF60B92246012305F18D
:103D080034016878FFF762FE00281CBF4FF0FF34CB
:103D180001202C6338BD0020FCE70000002310B50B
:103D2800C3704FF0FF3304460363FFF7DDFF01461E
:103D380030BB94F8332294F8323243EA02234AF62D
:103D4800552293421ED194F83430E92B05D0636B89
:103D58000E4A03F0FF13934216D104F16A00FFF7ED
:103D680061FE0B4B20F07F40984207D004F186009B
:103D7800FFF758FE074B984218BF0221084610BDAE
:103D88000421FBE70321F9E70221F7E7EB009000A4
:103D9800464154004641543300232DE9F04F0B604F
:103DA80085B00D461746FFF718FF061EC0F2518171
:103DB800AC4B03EB86029846146A002C00F04B814A
:103DC8002C6007F0FE0723787BB16078FFF7E4FDED
:103DD800C1070AD4002F00F0408110F0040500D07C
:103DE8000A25284605B0BDE8F08F0023F0B22370FD
:103DF8006070FFF7DBFD10F0010540F030810FB176
:103E08004207EDD400212046FFF788FF022840F042
:103E180004816E4604F5FD7104F23A29374611F81B
:103E2800040C10B10846FFF7FDFD103147F8040BEC
:103E38008945F4D1002756F804ABBAF1000F00F019
:103E4800E38051462046FFF769FF012800F2DD8034
:103E580094F8402094F83F3043EA0223B3F5007FFA
:103E680040F0DF8094F84B0094F84A6056EA002648
:103E780004D104F15800FFF7D5FD064694F84470C4
:103E8800E6617B1EA770012B00F2CB8094F841906D
:103E98004B46A4F80A90002B00F0C38009F1FF33C9
:103EA80013EA090F40F0BD8094F8463094F84510A5
:103EB80041EA03210B070FFA81FB218140F0B18011
:103EC80094F8483094F8470050EA032003D104F1ED
:103ED8005400FFF7A7FD94F8432094F8423053EAC2
:103EE800022300F09E8006FB07FC03EB11126244DC
:103EF8009042C0F09680801A4845B0FBF9F7C0F0B0
:103F080090804FF6F570874200F2908040F6F57980
:103F18004F458CBF4FF002094FF001090237534457
:103F28005244B9F1030FA761C4F820A06362E262AA
:103F38007FD194F85F2094F85E3043EA02234BEA7D
:103F4800030B0FFA8BF3002B6BD1BF0004F1600059
:103F5800FFF768FDA06207F2FF17B6EB572F60D393
:103F68004FF0FF33B9F1030FC4E904334FF0800376
:103F7800237130D194F8652094F8643043EA022321
:103F8800012B28D10AF101012046FFF7ADFE10BB35
:103F980094F8332294F83232207143EA02234AF625
:103FA8005522934217D104F13400FFF73BFD2E4B05
:103FB800984210D104F50670FFF734FD2B4B984258
:103FC80009D104F50770FFF72DFD606104F508704D
:103FD800FFF728FD2061B8F8283084F800900133F5
:103FE8009BB2A8F82830E380D8F800309C4204BF80
:103FF8000023C8F80030D8F810309C427FF4F1AEA6
:104008000023C8F81030ECE603200137042F7FF4B2
:1040180012AF042805D10125E3E60428FBD00128C6
:1040280001D90D25DDE64FF0000A11E74FF003092D
:1040380074E70029F5D06344B9F1020FA3624FEA8F
:1040480047031BBFDB1907F001071F4607EB5307A0
:1040580081E70B25C5E60C25C3E63D46C1E60325E9
:10406800BFE600BF080400205252614172724161EC
:1040780001292DE9F04706460C46174674D983698D
:104088008B4271D90378022B40D0032B51D0012BDE
:104098006AD101EB5108416A01EB5821FFF724FE70
:1040A800054640BB14F0010406F1340908F1010A81
:1040B800C8F3080808BFFBB230461FBF19F808301C
:1040C80003F00F023B0103F0F00318BF134309F894
:1040D80008300123716AF37001EB5A21FFF704FEDF
:1040E800054640B9CAF3080A44B1C7F3071709F8E7
:1040F8000A700123F3702846BDE8F08719F80A30E2
:10410800C7F3032723F00F031F43F0E7416A01EBCE
:104118001421FFF7E9FD05460028ECD1640006F1FB
:10412800340304F4FF741F551819C7F307274770A1
:10413800DFE7416A01EBD411FFF7D6FD05460028F9
:10414800D9D1A40006F1340327F0704704F4FE74B3
:104158001C442046FFF766FC00F0704047EA000167
:104168002046FFF767FCC4E70225C4E70129F8B534
:1041780005460C4652D9836999424FD20378022BDF
:1041880029D0032B38D0012B48D101EB5106416AC5
:1041980001EB5621FFF7A8FD10B14FF0FF30F8BD35
:1041A800771CC6F30806696A28462E4401EB572196
:1041B80096F83460FFF798FD0028EED1C7F308079A
:1041C800E3073D4495F8340046EA00204CBF000957
:1041D800C0F30B00E3E7416A01EB1421FFF784FD0C
:1041E8000028DAD16400343504F4FF742B19285DF3
:1041F8005B7840EA0320D2E7416A01EBD411FFF76C
:1042080073FD0028C9D1A40005F1340004F4FE743C
:104218002044FFF707FC20F07040C0E70120BEE70C
:10422800B1F5001FF8B506460C4601D30220F8BDCB
:10423800CA06FBD1826805684161CAB92B78022B8E
:1042480001D9AB6A9BB92B89B3EB541FEED9AB6A82
:10425800F361F369B261002BE8D003EB54233435E2
:10426800C4F308040020F3612C443462DFE71A46E3
:104278006F897F02BC42114604D22846FFF782FCB0
:10428800F061E6E73068FFF771FF431C024606D08D
:104298000128CBD9AB698342C8D9E41BEAE70120DE
:1042A800C5E72DE9F041804605680F4671B92E69CA
:1042B800EEB1AB69B34298BF012634460134AB690D
:1042C800A34217D8012E14D8002406E02846FFF789
:1042D8004DFF0128044603D801242046BDE8F0819B
:1042E800431C30D0AB698342F7D83E46E5E7012648
:1042F800E3E702242146D8F80000FFF737FF30B182
:104308000128E9D001301ED0B442D7D1DCE74FF004
:10431800FF3221462846FFF7ABFE90B957B92C610A
:10432800D5E90532023A934210D92B7943F00103BB
:104338002B71D2E7224639462846FFF799FE002816
:10434800EDD00128C8D14FF0FF34C6E7013B6B61BF
:10435800EBE773B50C46064611460568012C2CD9C7
:10436800AB69A34229D92AB14FF0FF322846FFF79B
:104378007FFE40B9214630680194FFF7F7FE0199A6
:10438800044610B9002002B070BD012815D0431CA6
:1043980015D000222846FFF76BFE0028F3D1D5E997
:1043A8000532911E8B4205D201336B612B7943F0A4
:1043B80001032B71A242DDD8E4E70220E3E70120E4
:1043C800E1E7F8B50446FFF789FC0546002842D125
:1043D8002378032B37D12779012F34D104F1340600
:1043E80001464FF400723046FFF72CFB552341225B
:1043F800722184F83232AA2384F8372004F5077032
:1044080084F83332522384F81A2284F8343084F83A
:104418003530612384F8181284F8363084F81B325A
:1044280084F819126169FFF705FB216904F5087022
:10443800FFF700FB226A3B4631460132607822636F
:10444800FFF7D2FA2571002260781146FFF7DAFAF1
:10445800003818BF0120F8BD43692DE9F04703F182
:104468002008C36905468A4693B1B8F5001F0FD2E4
:10447800C8F308090468B9F1000F4DD10133816907
:10448800C36139B92389B3EB581F45D80023EB61C1
:1044980004200BE06789013F17EA58273CD12046E2
:1044A800FFF764FE0128064602D80220BDE8F0871F
:1044B800421C01D10120F9E7A369834226D8BAF149
:1044C800000FE3D0A9692846FFF7EBFE064600284F
:1044D80035D00128E9D0431CECD02046FFF7FEFB7D
:1044E80001460028E6D14FF4007204F134004FF081
:1044F800010AFFF7A7FA31462046FFF743FB20637E
:1045080063899F420FD3236BDF1B27633146204605
:10451800AE61FFF737FBE86134340020C5F814803A
:104528004C442C62C2E7204684F803A0FFF7B0FB96
:104538000028BFD1236B013701332363E0E707204D
:10454800B4E700002DE9F04F002185B00446D0F80B
:1045580000A0FFF765FE0746002840F09B804FF05B
:10456800FF094FF0FF33C84623630093E1695046C3
:10457800FFF7BAFB0746002840F08C80256A2E78A2
:10458800002E00F08B80EA7AE52E02F03F03A3713B
:1045980003D0100704D50F2B04D0009B236353E0EE
:1045A8000F2B59D194F82F30590643D4720649D5A8
:1045B800636906F0BF0695F80D9023636B7B4B4546
:1045C80042D1EA7EAB7E53EA02233DD12F78012205
:1045D800DAF80CB007F03F077B1E0D275F43304B1E
:1045E80013F8011B681815F80180407848EA00287C
:1045F8006AB3FE2F039327D8404600F0ADFE791C1E
:1046080002903BF81700019100F0A6FE029A824240
:104618001AD101994246039B0F4622499942DFD19C
:104628002B785B0603D512B13BF8173063B9013E0E
:104638005FFA86F800212046FFF70EFF074600289C
:1046480094D027E0B045B9D04FF0FF08F2E74FF615
:10465800FF718845E1D0F7E7B8F1000F04D128468B
:10466800FFF7ACFA484515D094F82F7017F00107FA
:1046780093D104F1240205F10B0115F8013B12F85E
:10468800010B8D42A3EB000302D0002BF5D084E789
:10469800002B82D1384605B0BDE8F08F0427F9E732
:1046A8000C930090199300902DE9F04F90F82F503B
:1046B80089B0044615F0A00540F08D800668F268C0
:1046C80032F81530002B65D104F124070C2205A817
:1046D8003946FFF7B9FA9DF81F30DB0740F18480AF
:1046E80040234FF0010ADFF8348284F82F300B2280
:1046F80005A93846D6F80C90FFF7A6FABAF1050FC7
:1047080058D9A9F10201534631F8022F002A43D1A2
:104718000DF11300072203F00F0C013A0CF13001E0
:10472800392988BF0CF137010F2B00F801194FEA1E
:10473800131141D808AB7E21134403F8141C04F16B
:104748002301002308469A4206D010F801CF03F14E
:10475800010EBCF1200F31D1072A03F1010397BFE5
:1047680008A820208018013298BF10F8140C072BD5
:10477800C854F1D92046FFF7E5FE814670BB0AF11F
:10478800010ABAF1640FB2D14FF00709484609B0DF
:10479800BDE8F08F013593E7102002F0010C5208B4
:1047A8000CEB430313F4803F18BF83EA0803013876
:1047B800F3D1A9E75346ABE70B46ACE77346C2E72C
:1047C800804601212046FFF747FE814608B3B9F12C
:1047D800040FD9D0DAE74FF00609D7E70428D5D176
:1047E8009DF81F3084F82F309DF81F300021204697
:1047F800D4F800A09B0745BF0C350D230125B5FB58
:10480800F3F548BF0135FFF70BFD81460028DED1DF
:104818008046E1695046FFF767FA81460028D6D1FD
:10482800236A1B78E52B01D0002BC9D108F10108B8
:104838004545C6D1013D55D061692046A1EB4511DA
:10484800FFF7EEFC81460028A0D14FF6FF783846E6
:10485800FFF7B4F90190E1693046FFF745FA814660
:10486800002893D1236AE9B2019A4FF00D0CD6F8CB
:104878000CE05A734FF00F02DFF8A4A0DA724A1E58
:1048880018730CFB02F284469876D87640451AF8DD
:10489800019B0CF1010C18BF3EF8120003EB090B49
:1048A80018BF013203F809004FEA1029002808BF91
:1048B8004046BCF10D0F8BF80190E7D1404502D07E
:1048C8003EF812200AB941F0400119700123002175
:1048D8002046F370FFF7C0FD814600287FF456AFED
:1048E800013DB8D1E1693046FFF7FEF9814600285D
:1048F8007FF44CAF01462022206AFFF7A3F80B2271
:104908003946206AFFF7A0F994F82F30226A03F09D
:10491800180313730123F37038E700BF2110010057
:104928000C9300902DE9F74F0646D0F800B0894661
:1049380011F8013B2F2BFAD05C2BF8D00021B16085
:1049480099F800301F2B00F2BC808023304686F88F
:104958002F3003B0BDE8F04FFFF762BC0134C3E06D
:10496800B4F5807F00930CD0012100F0D7FC40B152
:104978007F28009B07D87F4911F8012B1AB1904274
:10498800FAD106204EE0274628F8020FA2E035F8B3
:104998001730202B02D02E2B40F0B680013FB0E01C
:1049A8000131BEE0434505D2BA424AD1B8F10B0FF6
:1049B80040D102E0B8F10B0F37D144F003044FF0B7
:1049C8000B0896F82430E52B04BF052386F824301D
:1049D800B8F1080F04BFAD00EDB205F00C030C2BC5
:1049E80003D005F00302032A01D144F00204A10711
:1049F80009D405F00305012D08BF44F01004042B69
:104A080008BF44F00804304686F82F40FFF79AFDA7
:104A180096F82F30002844D0042803D113F0040F4F
:104A280008BF052003B0BDE8F08FBA4202D044F0B9
:104A38000304C6D8AD003A464FF00B080823EDB280
:104A480094E07F280ED9002144F00204CDE9002328
:104A580000F064FCDDE9002358B14749084410F828
:104A6800730C30B1DFF814C11CF8011B49B1814245
:104A7800FAD144F003045F20F118013381F82400CF
:104A880074E0A0F14101192902D845F00205F3E7C5
:104A9800A0F1610119299EBF203845F0010580B2B7
:104AA800EAE75A07BED4B379DB0661D573690BF11F
:104AB80034019BF80000C3F308031944FFF7CDF84D
:104AC800B06033680027D3F80CA009F1FF33AAF1CE
:104AD8000205A84613F8010F7C1C1F280CD92F28A3
:104AE80002D05C287FF43CAF19F804302F2B3FF438
:104AF80035AF5C2B3FF432AF2028A14434BF0424E7
:104B08000024002F7FF443AF00232AF81730002F2A
:104B18003FF437AF20210B2206F12400FEF792FF65
:104B280019463AF81130202B3FF43AAF2E2B3FF4B8
:104B380037AF09B144F0030435F817302E2B01D0F4
:104B4800013FF9D100234FF008081D463AF811003B
:104B58004A1C00283FF435AF202805D02E287FF4C2
:104B680021AFBA423FF422AF44F003041146EDE707
:104B7800052057E7329800900C9300903B980090DE
:104B880030B585B01446CDE9001003A80391FFF7AE
:104B980024F8002821DB134B850003EB8000016A11
:104BA80059B11A68914204BF00221A601A699142E9
:104BB8004FF0000208BF1A610A70019808B100227C
:104BC80002702B44186230B1012C08D1002201A9CF
:104BD8006846FFF7E1F805B030BD0B20FBE7002081
:104BE800F9E700BF080400202DE9F04391B0904692
:104BF80005460191002800F0088102F03F0602A94D
:104C080001A83246FFF7C8F8002840F0FC80029B54
:104C18004FF40070039300F07DFB0746002800F076
:104C2800F680029B0199D86003A8FFF77BFE044633
:104C380060B99DF93B30002B60DB16F03E0F03A8EE
:104C480014BF01210021FEF703FF044618F01C0FD2
:104C580076D0002C54D0042C46D16E4B1A681AB169
:104C68001B69002B40F0C98003A8FFF71DFD04460F
:104C7800002839D146F00806FEF7D2FE014600901A
:104C88000B980E30FEF7D6FE0B9800991630FEF7FB
:104C9800D1FE0B9B2022029CDA720B992078FEF73A
:104CA800DCFF002280462046FEF7E6FF0B9B002231
:104CB80001211A775A779A77DA77029BD970B8F177
:104CC800000F28D0414603A8D3F83090FFF741FBE6
:104CD800044648B949460298FFF706F808F1FF3339
:104CE800029A04461361B0B1384600F015FB0CB1C6
:104CF80000232B60204611B0BDE8F0830624A5E709
:104D08009DF8123013F0110F25D118F0040F76D149
:104D180018F0080FB0D13007029B03A81B6B48BFDF
:104D280046F040066B6216F0FE0F0B9B14BF012184
:104D38000021AB62FEF7C6FE286170B90224D3E7F2
:104D4800002CD1D19DF81230DA065AD418F0020F8F
:104D5800E1D0DC07DFD50724C6E7029C05F130085F
:104D68000B992078FEF779FFA86001F11C00FEF787
:104D780059FEE38800214FF40072E8604046E9627A
:104D88002C60AB802E7569752962A961FEF75AFE01
:104D9800B20601D40024A7E7EE68002EFAD0029BE1
:104DA800A9685C89AE616402B44219D30024E96140
:104DB800002C99D1C6F30803002BEBD0029C2046A7
:104DC800FEF7E0FE0028B9D000EB56220123414649
:104DD8002A626078FEF7FAFD041E18BF012483E7F3
:104DE8002868361BFFF7C2F90128014603D9431C7E
:104DF800DAD10124DBE70224D9E7122474E7082476
:104E080072E7042470E7044672E7092472E7112464
:104E180070E700BF080400202DE9F04F87B0164660
:104E28008946044601930023019A05A91360FEF7F9
:104E3800F1FE054618BB657D0DBB237D13F001030C
:104E4800029300F09980E26804F1300AA369D21A4B
:104E5800964228BF164696B1A169C1F30803002BF4
:104E68007CD1059BB3F80A8008F1FF3818EA51286D
:104E78001BD141B9A068012810D8022565752846BC
:104E880007B0BDE8F08FE36A1BB12046FEF785FE48
:104E9800F1E7E1692068FFF769F9ECE7431C03D102
:104EA8000123029D6375EAE7E061DDF814B0E1696A
:104EB8005846FEF767FE0028DFD0B6F5007F08EBFE
:104EC80000072ED3BBF80A2008EB5621730A9BF87B
:104ED80001009142494688BFA2EB08033A46039372
:104EE800FEF774FD0028DBD194F91420039B002AF7
:104EF8000BDA206AC01B984207D24FF40072514661
:104F080009EB4020FEF7A0FE039B5F02A369B944AA
:104F1800019AF61B3B44A361019B1B683B44136049
:104F280099E7226ABA4218D094F91430002B0BDAA8
:104F3800012351469BF80100FEF756FD0028AFD12A
:104F4800237D03F07F032375059801233A465146D4
:104F58004078FEF73BFD0028A2D12762A1694846A8
:104F6800C1F30801C1F500775144B74228BF37465D
:104F78003A46FEF769FEC9E7072580E72DE9F04FB5
:104F8800994685B00023884603A90446C9F800302D
:104F98001646FEF73FFE054650BB657D45BB237DA3
:104FA8009A0740F1AF80A36904F1300AF34228BFA1
:104FB800DE43CEB1A169C1F30803002B40F0908015
:104FC800039B5F89013F17EA512724D131B9A068B3
:104FD800A0B901462046FFF764F904E0E36A5BB133
:104FE8002046FEF7DAFD48B9237D43F040032375D8
:104FF800284605B0BDE8F08FE169EBE7012802D14A
:1050080002256575F4E7431C01D10125F9E7A3687A
:10501800E06103B9A06094F91430002B0CDA03980E
:105028000123226A51464078FEF7DEFC0028ECD1C5
:10503800237D03F07F032375DDF80CB0E169584642
:10504800FEF7A0FD0028DBD0B6F5007F07EB0002D5
:1050580034D3BBF80A1007EB5620730A88429BF832
:10506800010088BFCB1B4146CDE90023FEF7BCFCFD
:105078000028CAD1216A009A019B891A99420CD248
:105088004FF4007208EB412150460093FEF7DCFD17
:10509800227D009B02F07F0222755F02A369B8445B
:1050A800E268F61B3B44A3619A422CBFE260E360CE
:1050B800D9F800303B44C9F800307AE7236A9342B4
:1050C8000DD0E168A369994209D9012351469BF89B
:1050D80001000092FEF77AFC009A002895D122621E
:1050E800A0694146C0F30800C0F500775044B742B4
:1050F80028BF37463A46FEF7A7FD237D63F07F03B6
:105108002375CBE7072573E7F7B501A90546FEF731
:1051180081FD044600283BD12B7D13F0400437D095
:105128001B060CD5019801232A6A05F13001407845
:10513800FEF75AFC78BB2B7D03F07F032B75FEF737
:105148006FFC696A07460198FEF7CEFD0446F8B978
:10515800AE6AF37A314643F02003F372AA682868EE
:10516800FEF78AFDE96806F11C00FEF763FC394684
:1051780006F11600FEF75EFC01230198B474F4747E
:10518800C370FFF71EF92B7D044623F040032B75EF
:10519800204603B0F0BD0124FAE713B50446FFF733
:1051A800B3FF48B901A92046FEF734FD20B92069AC
:1051B800FEF7CAFC00B9206002B010BD0F4B30B535
:1051C8009C7B012C17D89D7B0024EDB25C559D7B00
:1051D80003EB85056860987B184402739A7B501C22
:1051E8003032C0B298733A2320460A704B702F238E
:1051F800CC708B7030BD0120FCE700BF3404002068
:105208000022FFF7DBBF00000A4A937B7BB10378DB
:10521800303BDBB202EB8301486840B10020134405
:105228001873937B4860013BDBB29373704701208E
:10523800704700BF340400200021FFF7E5BF0000DD
:10524800012310B5054C2370FBF7D4FE234618B98B
:10525800227802F0FE022270187810BD3800002073
:1052680010B50123044C2370FBF798FE10B9FFF723
:10527800E7FF2070207810BD38000020FFF7E0BF5E
:1052880008B5084611461A464FF0FF33FBF792FD62
:1052980020B9FBF7AFFE0028FBD108BD0120FCE7D1
:1052A800134B30B51C7889B0154614F001041BD196
:1052B800032903D8DFE801F01A060C12042420465B
:1052C80009B030BD6846FBF79FFE069B2B60F6E7EA
:1052D8006846FBF799FE079B2B80F0E76846FBF7CB
:1052E80093FE079B5B0AF1E70324E8E70C46E6E731
:1052F8003800002008B5084611461A464FF0FF331B
:10530800FBF768FD20B9FBF775FE0028FBD108BD47
:105318000120FCE700F086B800F08CB87F2810B5B3
:1053280006D931B1FF2812D880380A4B33F810005B
:1053380010BD084A32F8024B8BB2844203D00131C7
:105348008029F7D10B4603F18000C0B2F0E70020B6
:10535800EEE700BFCC9300901F4B03F5F972B0F550
:10536800805F28BF134670B5191D31F8043C0A4602
:10537800ABB1984213D331F8024C250AE6B253FA7E
:1053880084F4A04221DA082D09D8DFE805F00509E0
:105398000F11131517191B00C01A31F8100070BD32
:1053A800C31A03F00103C01A80B2F8E71038FBE70C
:1053B8002038F9E73038F7E71A38F5E70830F3E727
:1053C8005038F1E7A0F5E350EEE70431002DCCD1D9
:1053D80002EB4603C8E700BFCC94009070B50D4DB2
:1053E8000D4C641BA4100026A64209D10B4D0C4C91
:1053F80000F0FEF8641BA4100026A64205D170BD7B
:1054080055F8043B98470136EEE755F8043B9847B2
:105418000136F2E78098009080980090809800907C
:1054280084980090024B0146186800F05BB800BFF2
:105438003C000020024B0146186800F003B800BF8A
:105448003C00002037B5002948D051F8043C0190B1
:10545800002BA1F10404B8BFE41800F0ADF8204A0D
:1054680001981368154633B96360146003B0BDE84A
:10547800304000F0A7B8A3420BD9216862189342C4
:1054880004BF1A685B68636004BF521822602C600E
:10549800ECE71A465B680BB1A342FAD911685518B4
:1054A800A5420BD1246821445418A3421160DDD1D0
:1054B8001C685B68536021441160D7E702D90C234C
:1054C8000360D3E7256861198B4204BF19685B68DC
:1054D800636004BF491921605460C7E703B030BD59
:1054E80044040020F8B5CD1C25F0030508350C2D23
:1054F80038BF0C25002D064601DBA94203D90C2331
:1055080033600020F8BD00F057F821490A681446B6
:105518009CB9204F3B6823B92146304600F03CF83F
:1055280038602946304600F037F8431C23D10C2355
:105538003360304600F046F8E3E723685B1B17D476
:105548000B2B03D923601C44256004E06368A24246
:105558000CBF0B605360304600F034F804F10B00C8
:10556800231D20F00700C21ACCD01B1AA350C9E78C
:1055780022466468CCE7C41C24F00304A042E3D0AC
:10558800211A304600F008F80130DDD1CFE700BF1E
:10559800440400204804002038B5064D0023044682
:1055A80008462B6000F016F8431C02D12B6803B1A3
:1055B800236038BDB4050020014800F009B800BFD9
:1055C800BC050020014800F004B800BFBC0500205D
:1055D80070477047044B1968024609B903491960B6
:1055E800186802441A6070474C040020C80500205F
:1055F800F8B500BFF8BC08BC9E467047F8B500BFB8
:08560800F8BC08BC9E46704787
:1056100000000000000000002020202000200000EA
:1056200050500000000000002850F850F850A00032
:105630002030603010602000202018601010000022
:10564000003820605078000020202000000000007A
:10565000102020202020100040202020202040006A
:105660002070205000000000002020F820200000C2
:10567000000000001020200000000070000000006A
:10568000000000000020000010202020404080008A
:1056900020505050502000006020202020F80000B2
:1056A000205020204070000020501020106000008A
:1056B000103050781038000070406010502000000A
:1056C00030406050506000007050102020200000DA
:1056D000205020505020000030505030106000000A
:1056E000000020000020000000001000102000003A
:1056F000001020C0201000000070007000000000AA
:105700000040201820400000205010200020000001
:1057100030484858484038006020507088D8000011
:10572000F048704848F000007050404040300000A1
:10573000F048484848F00000F848604048F8000049
:10574000F848604040E00000704040585030000091
:10575000E848784848E800007020202020700000C9
:105760003810105050200000D850607050D8000001
:10577000E040404048F80000D8D8D8A888D80000B9
:10578000D868685858E80000304848484830000059
:10579000F048487040E00000304848484830180061
:1057A000F048487048E80000705020105070000029
:1057B000F8A8202020700000D84848484830000051
:1057C000D888485050300000D888A8A8A8500000B9
:1057D000D850202050D80000D888502020700000D9
:1057E0007848102048780000302020202020300009
:1057F00080404020202010006020202020206000D9
:10580000202050000000000000000000000000F810
:105810002010000000000000000030107078000030
:10582000C040704848F00000000070404070000028
:1058300018083848483800000000707040300000F8
:1058400010207020207000000000384848380830D0
:10585000C040704848E80000200060202070000030
:105860002000701010101070C040587050D8000008
:1058700060202020207000000000D0A8A8A8000010
:105880000000F04848C800000000304848300000E0
:105890000000F048487040E00000384848380818D8
:1058A0000000782020700000000030201060000010
:1058B0000040F040483000000000D8484838000060
:1058C0000000C848303000000000D8A8A8500000F0
:1058D00000004830304800000000D85050202060C0
:1058E0000000785028780000102020602020100050
:1058F0002020202020202000402020302020400098
:10590000000000285000000000000000000000001F
:105910000000000000101010101000001000000027
:10592000006C48480000000000000000001414282B
:105930007C287C28505000000010384040384870C7
:1059400010100000002050200C7008140800000007
:1059500000000018202054483400000000101010EF
:1059600010000000000000000008081010101010C7
:105970001008080000202010101010101020200027
:1059800000107C102828000000000000000010100B
:1059900010FE1010100000000000000000000018B1
:1059A0001030200000000000007C0000000000001B
:1059B0000000000000000030300000000004040877
:1059C000081010202040000000384444444444445F
:1059D0003800000000301010101010107C00000083
:1059E00000384404081020447C00000000384404BF
:1059F0001804044438000000000C141424447E04ED
:105A00000E000000003C2020380404443800000050
:105A1000001C20407844444438000000007C4404CA
:105A2000080808101000000000384444384444447A
:105A30003800000000384444443C04087000000072
:105A4000000000303000003030000000000000187E
:105A5000180000183020000000000C10608060105A
:105A60000C000000000000007C007C000000000032
:105A70000000C02018041820C000000000001824F6
:105A800004081000300000003844444C54544C408A
:105A9000443800000030102828287C44EE00000024
:105AA00000F8444478444444F8000000003C44407A
:105AB000404040443800000000F04844444444481A
:105AC000F000000000FC445070504044FC00000016
