:0200000490006A
:10000000000005208D260090C1290090C329009092
:10001000C5290090C7290090C92900900000000060
:10002000000000000000000000000000CB2900904C
:10003000CD29009000000000CF290090D129009028
:10004000DD260090DD260090DD260090DD26009064
:10005000DD260090DD260090D5290090DD26009059
:10006000DD290090DD260090DD260090DD26009041
:10007000DD260090DD260090DD260090DD26009034
:10008000DD260090DD260090DD260090DD26009024
:10009000DD260090DD260090DD260090DD26009014
:1000A000DD260090DD260090DD260090DD26009004
:1000B000DD260090DD260090DD260090DD260090F4
:1000C000DD260090DD260090DD260090DD260090E4
:1000D000DD260090DD260090DD260090DD260090D4
:1000E000DD260090DD260090DD260090DD260090C4
:1000F000DD260090DD260090DD260090DD260090B4
:10010000DD260090DD260090DD260090DD260090A3
:10011000DD260090DD260090DD260090DD26009093
:10012000F1290090FD290090DD260090DD26009049
:10013000DD260090DD260090DD260090DD26009073
:10014000DD260090DD260090DD260090DD26009063
:10015000DD260090DD260090E5290090DD26009048
:10016000DD260090DD260090DD260090DD26009043
:10017000DD260090DD260090DD260090DD26009033
:10018000DD260090DD260090DD260090DD26009023
:10019000DD260090DD260090DD260090DD26009013
:1001A000DD260090DD260090DD260090DD26009003
:1001B000DD260090DD260090DD260090DD260090F3
:0801C000DD260090DD26009011
:1001D00010B5054C237833B9044B13B10448AFF381
:1001E00000800123237010BD9C000020000000004F
:1001F000943C009008B5034B1BB103490348AFF38F
:10020000008008BD00000000A0000020943C009089
:1002100001F0FF01102A2BDB10F0070F08D010F8B7
:10022000013B013A8B422DD010F0070F42B3F6D1BB
:10023000F0B441EA012141EA014122F007047FF0D4
:1002400000070023F0E80256083C85EA010586EA2B
:10025000010685FA47F5A3FA87F586FA47F6A5FA67
:1002600087F68EB9EED1F0BC01F0FF0102F0070273
:1002700032B110F8013B013A83EA010313B1F8D11E
:100280000020704701387047002D06BF35460338FF
:10029000073815F0010F07D1013015F4807F02BF38
:1002A000013015F4C03F0130F0BC0138704700BF89
:1002B00053B94AB9002908BF00281CBF4FF0FF31CD
:1002C0004FF0FF3000F06EB9ADF1080C6DE904CECF
:1002D00000F006F8DDF804E0DDE9022304B0704721
:1002E0002DE9F047089D04468C46002B40F08380A2
:1002F0008A42174647D9B2FA82F242B1C2F12000CF
:1003000024FA00F09140974040EA010C94404FEAF3
:100310001748230CBCFBF8F61FFA87FE08FB16C132
:1003200043EA014306FB0EF1994209D9FB1806F195
:10033000FF3080F01981994240F21681023E3B4421
:100340005B1AA4B2B3FBF8F008FB103344EA034491
:1003500000FB0EFEA64509D93C1900F1FF3380F0E1
:100360000581A64540F2028102383C4440EA06403D
:10037000A4EB0E0400261DB1D4400023C5E90043C0
:100380003146BDE8F08702B9FFDEB2FA82F2002AF8
:1003900050D1CB1B4FEA174E1FFA87F80126B3FB4B
:1003A000FEFC210C0EFB1C3341EA034108FB0CF35D
:1003B0008B4207D979180CF1FF3002D28B4200F240
:1003C000E9808446C91AA3B2B1FBFEF00EFB1011FE
:1003D00043EA014408FB00F8A04507D93C1900F1A5
:1003E000FF3302D2A04500F2D9801846A4EB0804DE
:1003F00040EA0C40BFE78B4209D9002D00F0B180E4
:100400000026C5E9000130463146BDE8F087B3FA61
:1004100083F6002E4AD18B4202D3824200F2B8808A
:10042000841A61EB030101208C46002DA8D0C5E998
:10043000004CA5E7C2F1200320FA03F6974001FA29
:1004400002F04FEA174ED9403043030CB1FBFEF6E1
:100450001FFA87F80EFB161143EA014306FB08F169
:10046000994204FA02F409D9FB1806F1FF3C80F026
:100470008D80994240F28A80023E3B445B1A81B2F1
:10048000B3FBFEF00EFB103341EA034100FB08F31F
:100490008B4207D9791800F1FF3C73D28B4271D996
:1004A00002383944CB1A40EA064678E7C6F1200CF8
:1004B00003FA06F422FA0CF31C4320FA0CF701FAB3
:1004C00006F34FEA144E21FA0CF11F433B0CB1FB2B
:1004D000FEF91FFA84F80EFB191143EA014109FBEA
:1004E00008FA8A4502FA06F200FA06F308D96118FA
:1004F00009F1FF3048D28A4546D9A9F102092144C1
:10050000A1EB0A01BFB2B1FBFEF00EFB101147EAEE
:10051000014700FB08F8B84507D9E71900F1FF319A
:100520002ED2B8452CD90238274440EA0940A7EB1F
:100530000807A0FB02894F45C64649461AD317D083
:100540005DB1B3EB0E0267EB010707FA0CFCF2405A
:100550004CEA0202F740C5E9002700263146BDE813
:10056000F0872E4628460BE70646E9E61846FDE6E4
:100570004345E5D2B8EB020E69EB04010138DFE731
:100580000846D2E760468DE78146B9E7664675E7DB
:1005900030464AE7ACF1020C394413E702383C44D8
:1005A00024E700BF704700BF2DE9F347194C984678
:1005B0004FF440330E4617463421174A8146636094
:1005C0002046236CDDF82CA001FB03239D6C0A9BC5
:1005D000022DE36018BF0025104BA560236000F0DA
:1005E00000FFA0B94946204600F0C2FF78B93B465B
:1005F000324651462046CDF8008000F01EFF30B94B
:100600000A21204602B0BDE8F04700F030BF02B03A
:10061000BDE8F087E0020020BC04002000B00240EA
:10062000034B3421034A1B6C01FB0323186E7047F4
:10063000E0020020BC04002070B5184D04463426AA
:1006400017482A6C8EB0002306FB02020A91FF2194
:10065000166E526E0193ADF834308DF83630CDE918
:100660000423CDE90613CDE902634FF4C0610723EB
:10067000CDE90B62CDE90813224601A901F0ACF9DE
:100680000C204FF0FF3300FB04508364054BC36420
:100690004FF07F4343640EB070BD00BFE002002006
:1006A000BC04002000000020014B1864704700BF0C
:1006B000E0020020034A0C21136C01FB0323586461
:1006C000704700BFE0020020034A0C21136C01FBBD
:1006D00003239864704700BFE0020020034A0C2106
:1006E000136C01FB0323D864704700BFE0020020B5
:1006F000034A0C21136C01FB0323D86C704700BF25
:10070000E0020020084B13B51C6C3421074B01900C
:10071000204601FB043100230093D1E91823C96D61
:10072000FFF742FF02B010BDE0020020BC04002031
:100730000A4B30B51B6C3425094C05FB0343D3E948
:1007400017459B6C05FB0101022B03D192B224F8E3
:10075000112030BD44F82120FBE700BFE00200205B
:10076000BC0400202DE9F04F85B0A2F120054FF028
:100770000008CDE9000128480C21D0F840B001FB69
:100780000B01C96CB1F80490B1F806A009F1070695
:100790000A680AFB05F5F610C9EBC60006FB05253D
:1007A00009F1FF3252FA80F30293019BD04503EB2B
:1007B000080189B202D305B0BDE8F08F012E2C7874
:1007C00004D0022E09D12C8864BAA4B20027B945FE
:1007D0000AD808F101083544E7E76A78240444EAB6
:1007E0000224AA781443F1E7009B01220391D8194F
:1007F000029BA3EB070C084B80B2013702FA0CF204
:1008000022424FF00C0202FB0B3214BF526C926C6E
:10081000FFF78EFF0399DAE7E00200202DE9F047A9
:1008200005468A461646144612F8010B0028FAD1EE
:1008300024480C22012B016C02FB01024FF0340012
:10084000D76C214AB7F804E000FB0120006EB0FB32
:10085000FEF021D0022B27D02BB24FF034084FF0FE
:100860000009002B08FB0128D8BF0125BC881FFA0E
:1008700089F3D8F8600016F8092009F1010904FB92
:1008800013039BB2A34234BF00230123002A08BFF5
:1008900000237BB9BDE8F087341B04440EFB04F44D
:1008A00005EB540085B2D7E7341B044414FB0EF467
:1008B000601BF7E728465146FFF754FFB8882844E5
:1008C00085B2D3E7E0020020BC04002010B4084C3D
:1008D0000A460C21236C01FB03435DF8044BDB6CDF
:1008E000DB8813FB00F0032381B20020FFF796BFE3
:1008F000E0020020F7B50F4D0C242F6C04FB0754C9
:100900003425D4F844C00C4C05FB0745D5E91746FF
:1009100006FB0101A86CB61ACDF804C002283846BF
:1009200000960CBF04EB410104EB8101FFF73CFE94
:1009300003B0F0BDE0020020BC04002008B5094B64
:100940004FF4805108481A68936943F0010393619A
:10095000012200F03BFF012208210448BDE80840C5
:1009600000F034BFBC0400200020024000280240F8
:1009700008B5094B4FF4805108481A68936923F071
:1009800001039361002200F021FF002208210448A6
:10099000BDE8084000F01ABFBC040020002002405F
:1009A000002802404B4B4C485A6C42F08062F0B534
:1009B0005A648FB05A6C02240E2509A902F0806295
:1009C0004FF48057454E0092009A1A6B42F4000291
:1009D0001A631A6B02F400020192019A1A6B42F038
:1009E00010021A631A6B02F010020292029A1A6B3A
:1009F00042F040021A631A6B02F040020392039A1B
:100A00001A6B42F480721A631A6B02F480720492B9
:100A1000049A1A6B42F400721A631A6B02F40072A1
:100A20000592059A1A6B42F480621A631A6B02F4FB
:100A300080620692069A1A6B42F480721A631A6BED
:100A400002F480720792079A1A6B42F480621A636A
:100A50001B6B0D9503F480630893089B1023CDE96D
:100A600009340023CDE90B3400F0CAFD092309A99C
:100A70001B480D93CDE9097400F0C2FD4FF46643A5
:100A800009A930460D95CDE9093400F0B9FD4EF6BF
:100A9000FF7309A913480D95CDE9093400F0B0FDA5
:100AA000F72309A90D950125CDE909340E4C2046FF
:100AB00000F0A6FD09A9304609970A9500F0A0FDAF
:100AC000082309A92046CDE9093500F099FD0FB0AA
:100AD000F0BD00BF0038024000100240002002407C
:100AE0000018024000240240002802400648082363
:100AF000C365C0235C3043610523C3614FF4803379
:100B0000C36201F05DBA00BFE002002010B52822E8
:100B1000244C0923352140F21B1040F21D1CC4E96E
:100B200005230B23C4E9071340F215230021C4E970
:100B3000093040F235232046C4E90B3CFFF7D6FFCD
:100B40004FF4F07E4FF488732046C4E918E3002385
:100B5000A38684F83630C4E90133C4E90333124B69
:100B6000236000F066FF014610B92046FFF71AFF28
:100B70000C4800F0C5FE01224FF480510B4800F0F4
:100B800025FE012208210A4800F020FE00F01EF98F
:100B9000084A0C210020136C01FB0323064ADA6487
:100BA00010BD00BFBC0400200068014000200240CE
:100BB00000280240E0020020000000202DE9F74359
:100BC000214C0126214D4FF0000810272146814677
:100BD0004FF6FF722846CDF80480C4E90067C4E9E7
:100BE000026801F098FC304600F088F902232146A3
:100BF0004FF6FF722846C4E90037C4E9026801F0E5
:100C00008AFC032321464FF6FF722846C4E90037C9
:100C10000823C4E9023801F07EFC4FF40873214632
:100C20004FF6FF72019304232846A660C4E90037FB
:100C3000019BE36001F06FFC4946284603B0BDE824
:100C4000F04301F07FBC00BFC0030020640500201A
:100C5000554B9A6B42F0010270B59A638EB09A6B55
:100C6000064609A9514802F0010200240192019AA6
:100C70001A6B42F480021A631A6B02F48002029229
:100C8000029A1A6B42F004021A631A6B02F0040211
:100C90000392039A1A6B42F008021A631A6B02F06D
:100CA00008020492049A1A6B42F010021A631A6B3B
:100CB00002F010020592059A1A6B42F020021A63A4
:100CC0001A6B02F020020692069A1A6B42F040025A
:100CD0001A631A6B02F040020792079A1A6B42F0ED
:100CE00080021A6301221B6B03F080030893089BA8
:100CF0000223CDE90A320C930C230D9308230993A8
:100D000000F07EFC4CF2037309A92948099300F016
:100D100077FC4FF6837309A92648099300F070FC0D
:100D20004FF63F0309A92448099300F069FC48F2F3
:100D3000331309A92148099300F062FC282309A96B
:100D40001F48099300F05CFC1E4B80224FF4007199
:100D50004FF480501D461C64DC62C3E905424FF429
:100D60008062C3E907124FF48042C3E909024FF4DD
:100D70000032C3E90C240322C3E90E24124A45F8C9
:100D8000102F284635639E6400F000FA284600F0D4
:100D90007DF922460F21382000F0C2F8382000F0FB
:100DA000F1F80EB070BD00BF0038024000080240EC
:100DB000000C0240001002400014024000180240E3
:100DC000001C0240C00300201064024038B51A4CD9
:100DD00007211A4B04221A4D4FF4006023600223AE
:100DE000E260C5F88830C5E91C31C5E91E21C5E9B6
:100DF0002033102240230021C4E904234FF48073E0
:100E0000A162C4E906314FF48053C4E908032046C7
:100E1000C4E90111FFF71CFF05F170012046094CE0
:100E200001F059FB003818BF0120207040F2036028
:100E3000FFF7C4FE207838BD64050020400100A003
:100E4000C0030020280000200F490020D1F888307E
:100E500043F47003C1F888300C4B1A6842F0010269
:100E60001A6098601A6822F0847222F480321A6044
:100E7000074A5A601A6822F480221A60D8604FF03C
:100E800010438B60704700BF00ED00E00038024067
:100E90001030002470B50E4E05464FF47A730D4A9B
:100EA0003078B3FBF0F31068B0FBF3F000F078F8A3
:100EB000044650B90F2D08D8024629464FF0FF309E
:100EC00000F02EF82046756070BD0120FCE700BFE1
:100ED000300000202C000020034A044B11681B78CE
:100EE0000B441360704700BF9805002030000020BD
:100EF000014B1868704700BF9805002038B50446BC
:100F0000FFF7F6FF0546631C1EBF044B1B78E41871
:100F1000FFF7EEFF431BA342FAD338BD3000002099
:100F2000164B30B5DC68C4F30224C4F10705231D59
:100F3000042D28BF0425062B4FF0FF338CBF033C44
:100F4000002403FA05F5002803FA04F321EA050159
:100F500022EA030201FA04F141EA02034FEA031311
:100F6000DBB206DB00F1604000F5614080F8003341
:100F700030BD00F00F00024A1354F9E700ED00E025
:100F800014ED00E0002808DB4209012300F01F00F7
:100F900003FA00F0014B43F82200704700E100E043
:100FA0000138B0F1807F0AD2064BF021064A586022
:100FB000002082F82310072298601A6070470120F1
:100FC000704700BF10E000E000ED00E0BFF35F8F6E
:100FD000044A536A23F4803353620022024B5A605E
:100FE000704700BF00ED00E090ED00E0064A40F0E1
:100FF0000100064B5860536A43F480335362BFF3D9
:101000004F8FBFF36F8F704700ED00E090ED00E071
:101010004378124A10B593600178D9B14368D36020
:10102000C37A047B1B0643EA04730B43817A43EAC9
:10103000C143417B43EA8143817B43EA4143C17B16
:1010400043EA0143417A43EA0123017A43EA410337
:10105000136110BDD1601161FBE700BF90ED00E0AE
:10106000036802461820D9B21039B1FBF0F010B570
:10107000054C5F29205CD06523F47F7020F00300CD
:1010800088BF0430906510BDA079009070B504460B
:10109000FFF72EFF0546002C73D00023226884F84A
:1010A0003430022384F83530136823F001031360D1
:1010B00021680B68D8072FD40B68334DA0691D40F9
:1010C000D4E901231343E26813432269134362699D
:1010D0001343E26903431343226A1343626A042AF7
:1010E00043EA050302BFD4E90B5635432B43042AD8
:1010F0000B604B6923F0070343EA020333D1A26A72
:10110000E56A13437DB390B9012A21D032F002027F
:1011100029D1EA0127D51EE0FFF7EAFE401B05288A
:10112000C6D920230320636584F8350070BDB0F56F
:10113000005F14D1032A16D801A050F822F000BF96
:101140005711009013110090571100905111009009
:10115000B5F1C07F07D1402301206365E4E7022A8F
:10116000F9D9032AD5D04B612046FFF779FFE26D0C
:101170003F239340836000200123606584F835306D
:10118000D4E70120D2E700BF3F8010F038B5054614
:1011900020B390F83530022BDCB21DD00368002458
:1011A0001A6822F001021A6021221C605C609C60B7
:1011B000DC601C615A61FFF753FFEA6D3F239340E7
:1011C00083606C6585F8344085F83540C5E90F4487
:1011D000C5E91144C5E91344204638BD0124FBE7A5
:1011E0000023F7B5019308225B4B0446856D1F6809
:1011F000C36D2E689A4032420CD0016808684007DF
:1012000008D5086820F004000860AA60626D42F00A
:101210000102626501229A40324208D02168496980
:10122000090604D5AA60626D42F0020262650422DA
:101230009A40324208D021680968880704D5AA601C
:10124000626D42F00402626510229A40324210D070
:101250002368196809070CD5AA601A68500337D5A6
:101260001B68190301D4236C00E0A36C0BB120466A
:101270009847E16D20228A4032423AD023681868AC
:10128000C60636D5AA6094F83520052A1A6827D1F3
:1012900022F016021A605A6922F080025A61226C0A
:1012A0000AB9A26C1AB11A6822F008021A603F2328
:1012B0008B40AB60002384F83430012384F8353050
:1012C000236D002B45D0204603B0BDE8F040184701
:1012D0001A68D205C7D41A6822F008021A60C2E759
:1012E000500327D51B68190331D4636C0BB120461A
:1012F0009847636D6BB3636DDA0719D54FF41653D6
:101300002268B7FBF3F7052384F83530136823F020
:1013100001031360019B0133BB42019302D81368A0
:10132000DB07F7D4002384F83430012384F8353008
:10133000E36CC6E71A6812F4807208D1196821F0CC
:1013400010011960012384F8342084F83530E36BF0
:10135000CCE703B0F0BD00BF2C00002070B50468DE
:10136000049D666C45EA034306F0404633436364DC
:101370004368E263B3F5403F30D186681EB1012E69
:1013800003D121F07F41A16370BD022E01F47F03E0
:1013900001F47F45C8B207D1DB0CAD0ADB0243EA9A
:1013A000451343EAD001EEE7032E01F07F420AD154
:1013B000DB0CED0A9B02D10F43EA451343EAD0034D
:1013C00043EAC131DFE7190D2D0B0902130F41EA82
:1013D000051141EA101141EA0331D4E7E160D3E796
:1013E000704710B5044630B390F8393003F0FF026F
:1013F0001BB980F83820FFF7F3FF226802236168E9
:10140000002084F83930136823F440330B43A1687B
:101410001360536B23F007030B43E1685363136CB2
:1014200023F47F5323F03F030B4313640123E06352
:1014300084F8393010BD0120FCE773B590F83850BE
:101440000446012D4FF002050FD080F839500126D7
:10145000069D80F838600095FFF780FF2268002025
:1014600013683343136002B070BD2846FBE70023C6
:1014700073B50193044603680D461B68DB0717D458
:101480002268D369526A13439E0606D5FFF730FDE2
:10149000064623685A68D20643D5236812220020E4
:1014A0009A60012384F8380084F8393002B070BDA6
:1014B000FFF71EFD064623685A689207E0D45A6873
:1014C0000192019A12F0210F17D0019A950603D5C7
:1014D000E26B42F00202E263019AD00703D5E26BAD
:1014E00042F00102E26321229A600423012084F881
:1014F0003930002384F83830D8E7691CDCD0FFF796
:10150000F7FC801BA84201D8002DD4D1E36B032047
:1015100043F02003E363002384F8390084F8383073
:10152000C4E75A680192019A12F0290F16D0019A65
:10153000160703D5E26B42F00402E263019A9506B6
:1015400003D5E26B42F00202E263019AD00703D5B1
:10155000E26B42F00102E2632922C5E7691C99D0DF
:10156000FFF7C6FC801BA842D0D8002D91D1CDE753
:10157000F0B590F83830012B4FF002032BD080F8F3
:101580003930012200EB01131C4F80F838200E0186
:101590005D6AD3E9074244EA0242093C012C96BF46
:1015A00005F07F4342EA05621A430368A9B9596A04
:1015B000012C01EA070142EA01025A6282699A613A
:1015C00003D8426A22F07F429A62012380F83930C0
:1015D000002380F838301846F0BDD969012C01EAA3
:1015E000070142EA0102DA6100EB060292691A6120
:1015F000EBD825F07F451D62E7E700BFF0FFFC0058
:101600002DE9F74F0023DFF8BC816C4ADFF8B89171
:1016100001240D689C4004EA0506AC4340F0B48008
:101620004C684FEA430E032524F0100C05FA0EF522
:101630000CF1FF37ED43012F11D8876807EA050A3F
:10164000CF6807FA0EF747EA0A078760476827EA74
:10165000060AC4F300179F4047EA0A074760C768B5
:10166000BCF1020F07EA050A8F6807FA0EF747EA8E
:101670000A07C76016D14FEAD30A03F0070B4FF0F1
:101680000F0C00EB8A0A4FEA8B0BDAF820700CFA89
:101690000BFC27EA0C0C0F6907FA0BF747EA0C075B
:1016A000CAF8207007683D4004F0030707FA0EFEF1
:1016B0004EEA05050560E50066D5D8F8445023F0EC
:1016C000030703F0030C4FF00F0E45F4804507F1BC
:1016D00080474FEA8C0CC8F8445007F59C37D8F87F
:1016E000445005F480450195019D0EFA0CF5D7F89C
:1016F00008A02AEA050E324DA8424CD005F58065B7
:10170000A8424AD005F58065A84248D005F5806515
:10171000A84246D005F58065A84244D0484544D04B
:1017200005F50065A84242D005F58065A84240D085
:1017300005F58065A8423ED005F58065A8420CBF3E
:1017400009250A2505FA0CF514F4803F45EA0E0533
:10175000BD606FEA060715680CBF3D40354314F4C1
:10176000003F156055680CBF3D40354314F4801FA1
:10177000556095680CBF3D403543A4029560D5681F
:1017800054BF3D403543D5600133102B7FF440AF4B
:1017900003B0BDE8F08F0025D4E70125D2E702258C
:1017A000D0E70325CEE70425CCE70525CAE70625C3
:1017B000C8E70725C6E70825C4E700BF003C01408D
:1017C0000000024000380240001402400AB181616A
:1017D00070470904FBE77047044A5169014208B5A4
:1017E00002D05061FFF7F7FF08BD00BF003C014089
:1017F000D201D1F800C02DE9F043843204684F686B
:101800000CF10106A318E5684FF0000ED1F818900E
:101810005868C5F30B4500F470403D445860E068DB
:10182000C0F30B40304440EA0540CD685860E068A2
:10183000C0F30A000544986800F470409860886816
:10184000E6680130C6F30A0630440E6940EA0540F6
:101850009860186920F0070018611E619D6991F871
:10186000320091F83180C3F818E091F8305045EA21
:10187000096545EA082545EA00459D61586920F05B
:10188000FF00586148695861D86920F4E06020F091
:101890000700D861D1E907500543DD61986A486ABD
:1018A000C3F828E098621EB3012E23D0B01E022890
:1018B00022D9072E0CBF02200120DD6AA7EB0C07FE
:1018C00005F0E025DD628D6AC96A4543784303303F
:1018D00040EA0540D862186B20F4FF6020F0070052
:1018E00018631963A35843F00103A350BDE8F083C4
:1018F0000420E2E70320E0E70220DEE77047000073
:1019000038B50446002863D090F8A13003F0FF02F8
:101910001BB980F8A020FFF7F1FF022384F8A13063
:1019200023689A6922F070429A619969D4E901208A
:101930000243E06802432069024360690A43254983
:101940009A619A680A409A609A6842EA0042A069DD
:101950000243E0699A60DA680A40DA60DA6842EACB
:101960000042206A0243606ADA601A690A401A611A
:101970001A6942EA0042A06A02431A615A69114098
:101980005961E16A5A6942EA0142216B0A435A618C
:10199000D96A94F8360001F07F4194F83550D96245
:1019A000D96A94F834200A4342EA052242EA004206
:1019B0000020DA625A6B42F006025A639A6942F0DA
:1019C00001029A610123C4F8A40084F8A13038BD53
:1019D0000120FCE700F800F02DE9F04190F8A0307C
:1019E00006460F469446012B4FF002001FD03424C8
:1019F0004FF001080D4686F8A10004FB026486F84A
:101A0000A08038340FCD0FC40FCD0FC40FCD0FC43D
:101A10002B683046624639462360FFF7E9FE33689B
:101A20000020C3F8248086F8A18086F8A000BDE8D5
:101A3000F08190F8A1007047194B37B51A6C194C1A
:101A400042F080521A641B6C03F080530193019B97
:101A5000236843F480332360FFF74AFA054663683E
:101A6000DA030CD523680F4D43F400332360FFF7EE
:101A70003FFA04466B689B030AD5002006E0FFF797
:101A800037FA401BB0F57A7FE9D9032003B030BDA7
:101A9000FFF72EFA001BB0F57A7FEBD9F5E700BF10
:101AA00000380240007000402DE9F341044640B385
:101AB0000368D80710D42368990764D423681907EA
:101AC00000F1AA8023685A0700F1CB80A269002A9E
:101AD00040F0348100202BE0964B9A6802F00C0213
:101AE000042A07D09A6802F00C02082A0BD15A681F
:101AF000520208D58F4B1B689B03DCD56368002B13
:101B0000D9D1012014E06268B2F5803F13D11A6880
:101B100042F480321A60FFF7EBF9864E05463368CF
:101B20009F03C8D4FFF7E4F9401B6428F7D90320CA
:101B300002B0BDE8F0817F4D2B6892B923F4803369
:101B40002B602B6823F480232B60FFF7D1F9064626
:101B50002B689803AFD5FFF7CBF9801B6428F7D922
:101B6000E5E7B2F5A02F07D143F480232B602B6863
:101B700043F480332B60CEE723F480332B602B6853
:101B800023F48023F6E76B4B9A6812F00C0F07D012
:101B90009A6802F00C02082A11D15A6851020ED438
:101BA000644B1A68920702D5E268012AA9D11A6823
:101BB000216922F0F80242EAC1021A607EE7E26877
:101BC000C2B11A685B4D42F001021A60FFF790F94A
:101BD00006462B689F0707D52B68226923F0F80378
:101BE00043EAC2032B6069E7FFF782F9801B0228F2
:101BF000EFD99CE71A684F4E22F001021A60FFF7F6
:101C000077F90546336898077FF558AFFFF770F905
:101C1000401B0228F6D98AE76369464D83B16B6F92
:101C200043F001036B67FFF763F906466B6F9B0791
:101C30003FF548AFFFF75CF9801B0228F6D976E73D
:101C40006B6F23F001036B67FFF752F906466B6F6A
:101C50009F077FF537AFFFF74BF9801B0228F6D9B6
:101C600065E7344B1A6CD00027D41A6C012742F078
:101C700080521A641B6C03F080530193019B2E4D1C
:101C80002B68D9051BD5A3682A4D012B27D12B6FB3
:101C900043F001032B6741F28838FFF729F9254EFD
:101CA0000546336F9B073FD5002F3FF40FAF214A06
:101CB000136C23F08053136408E70027DFE72B68D9
:101CC00043F480732B60FFF713F906462B68DA059F
:101CD000D9D4FFF70DF9801B6428F7D927E7ABB9F2
:101CE0002B6F41F2883823F001032B672B6F23F011
:101CF00004032B67FFF7FCF806462B6F9807D3D534
:101D0000FFF7F6F8801B4045F7D910E7052B2B6F3E
:101D100003D143F004032B67B9E723F001032B67DA
:101D20002B6F23F00403B5E7FFF7E2F8401B4045B3
:101D3000B7D9FCE60038024000700040384DAB686F
:101D400003F00C03082B41D02B68022A23F0807388
:101D50002B602ED1FFF7CCF806462B68990122D4D0
:101D6000A36A5B085A1ED4E907310B4343EA0243D6
:101D7000626A43EA8213E26A43EA026343F0005371
:101D80006B602B6843F080732B60FFF7B1F8244D34
:101D900004462B689A013FF59DAEFFF7A9F8001B9A
:101DA0000228F6D9C3E6FFF7A3F8801B0228D4D98E
:101DB000BDE6FFF79DF804462B689B017FF58AAED0
:101DC000FFF796F8001B0228F6D9B0E6012A6B68E7
:101DD0003FF497AE03F48002E1698A427FF491AE4A
:101DE00003F03F02216A8A427FF48BAE47F6C0724D
:101DF000616A1A40B2EB811F7FF483AEA26A03F4DA
:101E000040315208013AB1EB024F7FF47AAE03F051
:101E10007063E26AB3EB026F3FF45CAE71E600BF41
:101E200000380240134908B58B6803F00C03042BFB
:101E30001BD0082B1BD14A684B68496802F03F024F
:101E400013F48003C1F388111ABF0B4800230B4819
:101E5000A1FB0001FEF72CFA064B5B68C3F30143BC
:101E600001335B00B0FBF3F008BD0348FCE7034817
:101E7000FAE700BF0038024040787D010024F400FA
:101E80002DE9F0410D46044610B90120BDE8F0816E
:101E9000464A136803F00F038B4228D32268970742
:101EA00030D4D00744D4414A136803F00F03AB4247
:101EB00067D82268510770D4130707D53C4A2169B7
:101EC000936823F4604343EAC1039360FFF7AAFFDA
:101ED000374B384A9B68C3F30313D35CD840364B67
:101EE0001860364B1868FEF7D5FF0020CEE7136860
:101EF00023F00F030B431360136803F00F038B42AF
:101F0000C3D1CBE712F0040F294B03D0996841F4F9
:101F1000E0519960160703D5996841F460419960D2
:101F20002349A0688B6823F0F00303438B60B8E774
:101F300061681F4B01291A681BD112F4003FA4D01D
:101F40009A6841F288381A4F22F003020A439A60D5
:101F5000FEF7CEFF0646BB68626803F00C03B3EBE6
:101F6000820FA0D0FEF7C4FF801B4045F3D90320A9
:101F70008CE7022902D112F0007FE0E712F0020F95
:101F8000DDE7136823F00F032B431360136803F09E
:101F90000F03AB427FF479AF8BE70549E0688B68AC
:101FA00023F4E05303438B6086E700BF003C02400C
:101FB00000380240887900902C0000203400002076
:101FC00003682DE9F74313F0010604460BD0AB4A32
:101FD000916821F400019160466B91683143B6FA33
:101FE00086F67609916013F4002512D0A349E56BBB
:101FF000D1F88C20B5F5801F22F4401208BF0126CD
:1020000042EA050216BFB5FA85F500256D09C1F84B
:102010008C20D80210D59948216CD0F88C20B1F5CD
:10202000800F22F4400242EA0102C0F88C2000F046
:102030008681002908BF012513F0807F18BF012683
:10204000990631D58D4B8E4F1A6C42F080521A642E
:102050001B6C03F080530193019B3B6843F4807336
:102060003B60FEF745FF80463B68DA0540F1698139
:10207000824F3B6F13F4407340F06E81236B03F487
:102080004072B2F5407F7D4A40F08C81916823F028
:10209000704021F4F81120F4407001439160C3F3C3
:1020A0000B03116F0B4313672368D9060CD5734AD2
:1020B000D2F88C1021F08071C2F88C10D2F88C10FC
:1020C000A06B0143C2F88C105A0408D56B49606EAE
:1020D000D1F8902022F440320243C1F890201F042E
:1020E00008D56649A06ED1F8902022F44022024320
:1020F000C1F89020D80308D56049E06ED1F890204F
:1021000022F440120243C1F89020990308D55B499C
:10211000206FD1F8902022F440020243C1F89020B1
:102120005A0608D55549606CD1F8902022F0030278
:102130000243C1F890201F0608D55049A06CD1F881
:10214000902022F00C020243C1F89020D80508D557
:102150004A49E06CD1F8902022F030020243C1F8E5
:102160009020990508D54549206DD1F8902022F09E
:10217000C0020243C1F890205A0508D53F49606D5E
:10218000D1F8902022F440720243C1F890201F053C
:1021900008D53A49A06DD1F8902022F4406202435C
:1021A000C1F89020D80408D53449E06DD1F89020CA
:1021B00022F440520243C1F89020990408D52F49D7
:1021C000206ED1F8902022F440420243C1F89020C2
:1021D0005A0208D52949A06FD1F8902022F08062D8
:1021E0000243C1F890209F020CD52448E16FD0F83B
:1021F0009020B1F1006F22F0006208BF01250A4370
:10220000C0F8902013F0080F18BF0125580308D517
:102210001A49606FD1F8902022F040720243C1F851
:102220009020190209D51549D4F88000D1F89020E2
:1022300022F080520243C1F89020012E00F0B680B7
:10224000B3F1007F00F0B280012D76D10B4D2B68E9
:102250002E4623F080532B60FEF74AFE07462B687C
:102260009B0000F127812268150301D5E36B4BB178
:10227000D00222D5236C03BB04E000BF003802402B
:1022800000700040D6F88830D6F8881003F4403348
:1022900001F0E0410B43616943EA8113A16943EA1C
:1022A0000163C6F88830D6F88C30A16A23F4F8535D
:1022B000013943EA0123C6F88C30910215D5E36F4A
:1022C000B3F1006F11D18249D1F88830D1F888007C
:1022D00003F0706300F0E0400343606943EA801359
:1022E000206A43EA0043C1F88830120719D5784ABA
:1022F000D2F88810D2F8883001F0706103F44033CE
:102300000B43616943EA8113E16943EA0173C2F84F
:102310008830D2F88C30E16A23F440330B43C2F8A2
:102320008C306B4C236843F080532360FEF7E0FD54
:10233000054623689B0040F1C480002009E0012687
:102340007AE6FEF7D5FDA0EB080064287FF68CAE98
:10235000032003B0BDE8F083226B02F44072934285
:102360003FF48CAE3B6F3A6F23F4407342F48032FB
:102370003A673A6F22F480323A673B673B6FDB077C
:102380007FF57CAEFEF7B4FD41F2883980463B6FA5
:1023900098073FF573AEFEF7ABFDA0EB080048458C
:1023A000F5D9D5E7916821F4F81177E6484E3368FE
:1023B00023F080633360FEF79BFD074633681A0104
:1023C00072D42268D30712D5636B83B9D6F88430F0
:1023D000D6F8841003F4403301F070610B43616858
:1023E00043EA8113A16843EA0173C6F884301703F6
:1023F00003D5E36BB3F5801F05D0D6021ED5236C41
:10240000B3F5800F1AD13249D1F88430D1F8840065
:1024100003F4403300F0E0400343606843EA801374
:10242000E06843EA0063C1F88430D1F88C00636A45
:1024300020F01F00013B0343C1F88C30D00111D5BF
:102440002349D1F88430D1F8840003F0706300F0A0
:10245000E0400343606843EA8013206943EA004395
:10246000C1F8843091010DD5236962681B0443EAE9
:102470008213E26843EA0263A26843EA0273144AE1
:10248000C2F88430124E336843F080633360FEF745
:102490002FFD074633681A013FF5D6AEFEF728FD3B
:1024A000C01B6428F6D953E7FEF722FDC01B642841
:1024B00084D94DE7FEF71CFDC01B64287FF6CFAE24
:1024C00046E7FEF715FD401B64287FF632AF3FE775
:1024D00000380240704738B50D460446C8B190F840
:1024E0002C3003F0FF021BB980F82D20FFF7F2FF1C
:1024F0000223211D206884F82C3000F035F8626832
:102500002946206800F066F80123002084F82C306A
:1025100038BD0120FCE738B590F82C3004460D4654
:10252000022BD8B20DD00223206884F82C3000F0A2
:1025300094F82B680020022B0CBF0523012384F89C
:102540002C3038BD10B590F82C300446022BD8B290
:1025500009D00223206884F82C3000F091F8012380
:10256000002084F82C3010BD2DE9F0414A6AD1E9F1
:102570000743D1E90158D1E903ECD1E905760968AF
:1025800023430468012912490FD01A4321402A43EA
:1025900042EA080343EA0E0343EA0C033B43334396
:1025A0000B4303600020BDE8F0811343426824F42C
:1025B000F844114045EA0802234342EA0E02036050
:1025C00042EA0C023A4332430A434260EAE700BF60
:1025D0000080FFFFCB68012AF0B50C6803F1FF37DC
:1025E0004B698E6804F1FF3C0D6903F1FF334C68C1
:1025F00006F1FF3689694FEA035304F1FF3405F110
:10260000FF3501F1FF314FEA06264FEA04144FEA85
:1026100005454FEA016143EA07330CD043EA0C0356
:102620008268234302F0704233432B430B4313432E
:1026300083600020F0BD8768344327F4700744EAC4
:102640000C0227F470472A433B43C7680A4307F04C
:10265000704783603A43C260EBE7D1E9003213B5BB
:102660001343CA68002443EA42238A680194013A6A
:1026700043EA42130193019B0361204602B010BD5F
:10268000436943EA4101416100207047DFF834D0DB
:10269000002103E00C4B5B58435004310B480C4BBA
:1026A00042189A42F6D30B4A02E0002342F8043B58
:1026B000094B9A42F9D3FEF7C7FB00F0F3FA00F09A
:1026C00071F8704700000520887B00900000002012
:1026D0009C0000209C00002024520020FEE770B5E2
:1026E0000E4614460025A54201DB204670BDAFF31F
:1026F000008070550135F6E770B50E46144600258A
:10270000A54201DB204670BD705D013500F02CFA5A
:10271000F6E7000008B50A4B0246196809B90949ED
:1027200019601868694602448A4206D900F0B4FA72
:102730000C2303604FF0FF3008BD1A60FCE700BFB8
:10274000AC040020285200204FF0FF3070474FF4B7
:10275000005300204B6070470120704700207047F5
:10276000002170B508460D4E0D4D192456F8213044
:10277000013155F8212003F00F03B1F5FA7F02F083
:102780000F0203EB430304FB02F203F1410302F1E6
:10279000470202FB0300E9D170BD00BFA00D00207D
:1027A000A00500202DE9F0470F2094B0FEF772FB42
:1027B00000246B4A6B4B42F8244043F82440013418
:1027C000B4F5FA7FF7D14FF00008674D4FF0404A5B
:1027D0004FF00109C5F80080FEF7F8FB634B08A82D
:1027E000634FADF82090634ECDE909A34FF001137C
:1027F0000B93FEF70DFC0420FEF7F8FBFFF712FB2E
:10280000B0FBF7F001383061FEF780F951464046E1
:10281000FDF712FF4046FDF747FFFEF7A9F800F06D
:1028200021F9554800F028F95449554800F066FA56
:102830004B49544800F062FA4A49534800F05EFAA6
:10284000524800F0E1FA21465148022400F056FABD
:102850006FF07F40FEF7A4FB4FF48033192108A8E6
:1028600009934FF48003CDF82090CDF82C8012947A
:10287000CDE90E434FF4C873CDE910130823139329
:10288000FFF712F900B1FEE7FFF7D6F800B1FEE757
:102890000F234FF4A0520590062103A8CDE903347D
:1028A0004FF48053CDE90623FFF7EAFA804600B1E2
:1028B000FEE7FFF7B7FAB0FBF7F3013B3361BFF375
:1028C0004F8FBFF36F8F334CC4F85082BFF34F8FDD
:1028D000BFF36F8F636943F400336361BFF34F8FBE
:1028E000BFF36F8F2C4EDFF8D48033682B4F43F447
:1028F00000733360D8F808303B60FFF731FF284B96
:102900002860D8F8082027481A603B68264F9B1A91
:102910003B6031683368254E01F00F0113F4007FEE
:102920006369646914BF0246324613F4803F14BFE2
:102930000346334614F4003F08BF304600901C485D
:1029400000F0DCF9FFF76EFA3A680146194800F02A
:10295000D5F92968184800F0D1F9FDF7EFFFFEE737
:10296000A00D0020A0050020A815002011000003E4
:1029700080841E00000004E0B0790090A52700903C
:10298000D8790090F97900901A7A00903B7A0090FB
:102990004D7A009000ED00E0003C0240A0150020C0
:1029A000A4150020A87900909C050020AC79009027
:1029B000767A0090A27A0090C27A009010E000E04F
:1029C0007047FEE7FEE7FEE7FEE770477047704797
:1029D000FEF782BA4FF40060FEF7FEBE0420FEF759
:1029E000FBBE0000014B186FFEF7FABB3C01002054
:1029F000014B186BFEF7F4BB64050020FEE70000F6
:102A00000C4B01210C4A1A6000230C4A13800C4A1B
:102A100013800C4A13800C4A13800C4A13800C4A12
:102A200011700C4A13700C4A13700C4A13700C4A44
:102A30001380704710520020800000FFB215002064
:102A4000B8150020B0150020AE150020AC150020F0
:102A5000B4150020BA150020B5150020B6150020C9
:102A60001452002008B5FFF7CBFF4FF0FF30BDE850
:102A70000840FDF747BE000070B5164C0546164EDF
:102A80002046FDF72BFE3046FDF714FEFDF7C8FD8E
:102A9000E388002182B203EB430308469BB2FDF7B3
:102AA00029FF4FF0FF30FDF705FE3046FDF70CFE25
:102AB0002A46E18801230020FDF7B0FE4FF0FF30E9
:102AC000FDF702FE0548FDF7F5FD0548BDE870403D
:102AD000FDF704BE18000020FF0000FF800000FF8B
:102AE000100000202DE9F8431C4D1D4A2B88128848
:102AF0000F2B1C4F11D8934211D3842404FB037372
:102B0000D3F88000FDF7D6FD2988081D04FB01716C
:102B100080B2BDE8F843FDF7D9BE934201D27533C8
:102B20009BB2103B00264FF075084FF084099CB211
:102B3000A119B1FBF8F508FB151509FB0575D5F8CA
:102B40008000FDF7B7FD301D0136294680B2FDF744
:102B5000BDFE112EECD1BDE8F88300BFB0150020FA
:102B6000B8150020BC1500202DE9F84F0546FDF7EB
:102B7000BFFD3D4B80461B7843BB3C4A3C4C117823
:102B800001290BD13B49137009883B4A21803B49FD
:102B9000137008883A4A3B49138008803A4FDFF89F
:102BA000F4903E88FDF73CFDB8F80430B0FBF3F03C
:102BB00086423E460DD20A2D0BD03A882388511CFE
:102BC0003980842101FB039909F802502846BDE8A9
:102BD000F88F2C4F22883B889A4209D82B4A1178CB
:102BE000002934D101339BB2752B14BF3B8039804F
:102BF000B6F800A04FF0840BFDF712FDB8F80420E2
:102C00002023B0FBF2F0504524D8238884224FF0D3
:102C1000000802FB03931E4AA6F800801268C3F85E
:102C20008020FFF75FFF238801339BB2752B05BF20
:102C30000123164A2380A4F8008004BF3B80137050
:102C40000A2DC3D032882388511C3180B9E7002374
:102C50001370CDE731880AF1010A2288481C0BFB6A
:102C6000029230805354C7E7B5150020BA150020F2
:102C7000B0150020AC150020B6150020AE150020C0
:102C800014520020B8150020B2150020B415002001
:102C900010520020BC150020014B1868704700BF7F
:102CA0003800002070B50D4D0D4C641BA41000269B
:102CB000A64209D10B4D0C4C00F0ECFF641BA41094
:102CC0000026A64205D170BD55F8043B9847013651
:102CD000EEE755F8043B98470136F2E7807B009019
:102CE000807B0090807B0090847B009002440346B0
:102CF000934200D1704703F8011BF9E70FB40A4B68
:102D000013B51C6824B1A36913B9204600F05EFA1C
:102D100005AB049AA1680193204600F02FFC02B095
:102D2000BDE8104004B070473800002070B50E4672
:102D3000054618B183690BB900F048FAAB69AC6875
:102D400013B9284600F042FA2C4B9C4220D16C6803
:102D5000636EDB0705D4A389980502D4A06D00F04B
:102D6000D3FAA38919071DD52369DBB1013EA368F6
:102D700016F8011F013BA36039BB002B38DA22464D
:102D80000A21284600F048F8013011D00A2511E048
:102D90001B4B9C4201D1AC68DAE71A4B9C4208BF3E
:102DA000EC68D5E72146284600F088F80028DDD0F9
:102DB0004FF0FF35636EDA0705D4A3899B0502D473
:102DC000A06D00F0A2FA284670BD002B04DAA269BB
:102DD0009A4206DC0A2904D023685A1C2260197022
:102DE000C5E72246284600F017F80130BFD1DFE7DB
:102DF00023680A255A1C22601D70DBE7047B0090C3
:102E0000247B0090E47A0090024B01461868FFF79B
:102E10008DBF00BF38000020F8B50E4614460546A9
:102E200018B183690BB900F0D1F9214B9C422BD129
:102E30006C68A369A360A3891A072FD523696BB3B4
:102E400023692068C01A6369F6B28342374604DCFE
:102E50002146284600F026F930BBA368013BA36059
:102E600023685A1C22601E7063690130834204D0BB
:102E7000A389DB0706D50A2E04D12146284600F097
:102E800011F988B93846F8BD0A4B9C4201D1AC68AB
:102E9000CFE7094B9C4208BFEC68CAE721462846A9
:102EA00000F00CF80028CBD04FF0FF37EAE700BF66
:102EB000047B0090247B0090E47A0090324B70B544
:102EC0001D6806460C4625B1AB6913B9284600F0CB
:102ED0007DF92E4B9C420FD16C68A389B4F90C206C
:102EE00019072CD4DD0611D40923336042F04003C6
:102EF000A3814FF0FF303EE0254B9C4201D1AC68EE
:102F0000EBE7244B9C4208BFEC68E6E7580712D574
:102F1000616B41B104F14403994202D0304600F0A4
:102F200059FA00236363A38923F02403A3810023B8
:102F3000636023692360A38943F00803A3812369A5
:102F40004BB9A38903F42073B3F5007F03D0214666
:102F5000304600F0FFF9A089B4F90C2010F001030D
:102F60000AD00023A36063695B42A361236943B96C
:102F700010F08000BAD170BD810758BF6369A360AB
:102F8000F4E70020F7E700BF38000020047B009042
:102F9000247B0090E47A00908A892DE9F04105466F
:102FA00010070C4658D44B68002B05DC0B6C002B2B
:102FB00002DC0020BDE8F081E66A002EF9D0002393
:102FC00012F480522F682B6032D0606DA3895A07AB
:102FD00005D56368C01A636B0BB1236CC01A00235C
:102FE0000246E66A216A2846B047431CA38906D1F7
:102FF00029681D292CD82A4ACA40D60728D500227C
:103000006260D9042269226004D5421C01D12B6878
:1030100003B96065616B2F600029CAD004F14403D5
:10302000994202D0284600F0D5F900206063C1E73C
:10303000216A01232846B047411CC7D12B68002BC9
:10304000C4D01D2B01D0162B01D12F60B1E7A3896D
:1030500043F04003A381ADE70F69002FA9D0930788
:103060000E6808BF4B690F6018BF0023A6EB070866
:103070008B60B8F1000F9CDD216AA66A43463A4690
:103080002846B047002806DCA38943F04003A3810B
:103090004FF0FF308EE70744A8EB0008E9E700BFD8
:1030A0000100402038B50B6905460C4613B90025D0
:1030B000284638BD18B183690BB900F087F8144B66
:1030C0009C421BD16C68B4F90C30002BEFD0626EBF
:1030D000D00704D4990502D4A06D00F015F9284654
:1030E0002146FFF759FF636EDA070546E0D4A3894E
:1030F0009B05DDD4A06D00F008F9D9E7054B9C4293
:1031000001D1AC68DFE7044B9C4208BFEC68DAE70A
:10311000047B0090247B0090E47A0090002310B59B
:103120000446C0E90033C0E904338360818143660B
:10313000C2818361194608225C30FFF7D7FD054B39
:103140006362054BA362054BE362054B2462236374
:1031500010BD00BF253B0090473B00907F3B009097
:10316000A33B0090014900F0AFB800BFA53000902C
:1031700070B54A1E682555430E4605F1740100F0EE
:1031800079F9044640B10021C0E900160C30A06076
:1031900005F16802FFF7AAFD204670BD014800F066
:1031A000B3B800BF1E520020014800F0AEB800BF07
:1031B0001E520020014800F0A7B800BF195200209D
:1031C000014800F0A2B800BF1952002010B5044613
:1031D000FFF7F0FFA3691BB1BDE81040FFF7F0BF98
:1031E000C4E912332365134B134A1B68A262A3423E
:1031F00004BF0123A361204600F020F86060204650
:1032000000F01CF8A060204600F018F80022E060F2
:1032100004216068FFF782FFA06801220921FFF7FF
:103220007DFFE06802221221FFF778FF0123A361EE
:10323000D2E700BFE07A009065310090F8B507460C
:10324000FFF7ACFF1E4B1E68B36913B93046FFF79A
:10325000BDFF4836D6E90134013B03D533680BB3D3
:103260003668F7E7B4F90C50D5B9164BE36004F1B2
:103270005800656600F047F8FFF796FFC4E901556E
:10328000C4E904552560A5610822294604F15C00C3
:10329000FFF72CFDC4E90D55C4E912552046F8BDD1
:1032A0006834D9E704213846FFF762FF04463060EE
:1032B0000028D5D1FFF778FF0C233B60EEE700BF75
:1032C000E07A00900100FFFF2DE9F84306468846AA
:1032D00000F148040027D4E90195B9F1010905D5A9
:1032E0002468002CF7D13846BDE8F883AB89012B60
:1032F00007D9B5F90E30013303D029463046C0470F
:1033000007436835E9E770477047704770B50E4668
:10331000B1F90E10002996B014461D4607DA0023B5
:103320002B60B3891A0610D44FF480630EE06A460E
:1033300000F05EFC0028F2DB019A02F47042A2F574
:1033400000535A425A412A60EEE74023002023608E
:1033500016B070BD8B8973B59D0706460C4607D520
:1033600004F14703236023610123636102B070BD50
:1033700001AB6A46FFF7CAFF00990546304600F0E8
:1033800079F848B9B4F90C309A05EFD423F0030367
:1033900043F00203A381E3E70D4BB362A3892060EE
:1033A00043F08003A381009B6361019B20615BB1BB
:1033B000B4F90E10304600F02DFC28B1A38923F09B
:1033C000030343F00103A381A0890543A581CDE751
:1033D0006531009037B5002948D051F8043C019080
:1033E000002BA1F10404B8BFE41800F035FC204A1A
:1033F00001981368154633B96360146003B0BDE8E3
:10340000304000F02FBCA3420BD9216862189342D0
:1034100004BF1A685B68636004BF521822602C60A6
:10342000ECE71A465B680BB1A342FAD9116855184C
:10343000A5420BD1246821445418A3421160DDD168
:103440001C685B68536021441160D7E702D90C23E4
:103450000360D3E7256861198B4204BF19685B6874
:10346000636004BF491921605460C7E703B030BDF1
:10347000B4040020F8B5CD1C25F0030508350C2D4B
:1034800038BF0C25002D064601DBA94203D90C23C9
:1034900033600020F8BD00F0DFFB21490A681446C4
:1034A0009CB9204F3B6823B92146304600F02AFBE7
:1034B00038602946304600F025FB431C23D10C23FD
:1034C0003360304600F0CEFBE3E723685B1B17D484
:1034D0000B2B03D923601C44256004E06368A242DF
:1034E0000CBF0B605360304600F0BCFB04F10B00D6
:1034F000231D20F00700C21ACCD01B1AA350C9E725
:1035000022466468CCE7C41C24F00304A042E3D044
:10351000211A304600F0F6FA0130DDD1CFE700BFC6
:10352000B4040020B80400209368013B002B10B4C1
:10353000936008DA9469A34201DB0A2903D15DF89C
:10354000044BFFF769BC1368581C106019700846DB
:103550005DF8044B7047F8B506460F461446D5187B
:10356000AC4201D1002007E014F8011B3A46304676
:10357000FFF7DAFF431CF3D1F8BD00002DE9F04F4F
:103580000D469DB014469846064618B183690BB99E
:10359000FFF71CFE894B9D421BD175686B6ED907E6
:1035A00005D4AB899A0502D4A86DFFF7ADFEAB89AF
:1035B0001B0701D52B69EBB929463046FFF77EFC86
:1035C000C0B16B6EDC070ED54FF0FF301DB0BDE80B
:1035D000F08F7B4B9D4201D1B568DFE7794B9D426F
:1035E00008BFF568DAE7AB899805EDD4A86DFFF759
:1035F0008CFEE9E70023099320238DF82930CDF8CC
:103600000C803023DFF8C0818DF82A304FF001099B
:1036100023469A4613F8012B0AB1252AF9D1BAEBB1
:10362000040B0BD05B46224629463046FFF793FF3A
:10363000013000F0AA80099A5A4409929AF80030A1
:10364000002B00F0A28000234FF0FF32CDE90523CC
:103650000AF1010A049307938DF853301A935446E4
:10366000052214F8011B5848FCF7D2FD049AD8B97A
:10367000D10644BF20238DF85330130744BF2B23BA
:103680008DF853309AF800302A2B15D0079A5446FB
:1036900000204FF00A0C214611F8013B303B092B6A
:1036A0004ED9B0B1079214E0A0EB080309FA03F376
:1036B00013430493A246D2E7039B191D1B68039191
:1036C000002BBBBF5B4242F0020207930793B8BFD7
:1036D000049223782E2B0CD163782A2B35D1039BAF
:1036E0001A1D1B680392002BB8BF4FF0FF33023442
:1036F0000593DFF8E4A0217803225046FCF788FD0B
:1037000040B14023A0EB0A0003FA00F0049B0343FE
:103710000134049314F8011B2C488DF8281006225C
:10372000FCF776FD00283FD0294B1BBB039B0733DA
:1037300023F0070308330393099B3B44099367E78E
:103740000CFB02320C460120A5E70023013405934F
:1037500019464FF00A0C204610F8012B303A092A7E
:1037600003D9002BC5D00591C3E70CFB012104460A
:103770000123F0E703AB00932A46164B04A9304619
:10378000AFF300800746781CD6D16B6ED90705D4FD
:10379000AB899A0502D4A86DFFF7B7FDAB895B062C
:1037A0003FF512AF099811E703AB00932A46094B86
:1037B00004A9304600F080F8E4E700BF047B0090E5
:1037C000247B0090E47A0090447B00904E7B009034
:1037D00000000000573500904A7B00902DE9F0472B
:1037E000164699468A680B69DDF820809342B8BF77
:1037F0001346336091F8432007460C460AB1013363
:1038000033602368990642BF33680233336025680A
:1038100015F0060506D104F1190AE36832689B1A0F
:10382000AB4226DC94F84320131E226818BF012304
:1038300092062BD404F1430249463846C047013072
:103840001ED02368E568326803F00603042B08BF26
:10385000AD1AA36822690CBF25EAE57500259342DD
:10386000C4BF9B1AED1800261A34B5421AD10020A5
:1038700008E00123524649463846C047013003D18B
:103880004FF0FF30BDE8F0870135C6E7E1185A1C5C
:10389000302081F84300224494F8451082F8431008
:1038A0000233C7E70123224649463846C047013064
:1038B000E6D00136D9E700002DE9FF470C469146D6
:1038C000277E0C99782F80469A4604F1430207D848
:1038D000622F0AD8002F00F0D880582F00F0A38064
:1038E00004F1420684F842703AE0A7F16303152B15
:1038F000F6D801A050F823F05139009065390090B6
:10390000E1380090E1380090E1380090E138009013
:1039100065390090E1380090E1380090E13800907E
:10392000E1380090713A009095390090533A009038
:10393000E1380090E1380090933A0090E13800902F
:1039400095390090E1380090E13800905B3A0090A2
:103950000B681A1D1B680A6004F1420684F84230A5
:103960000123A3E0256808682E0600F104030AD5A8
:1039700005680B60002D03DA2D236D4284F8433077
:103980005E480A2319E015F0400F05680B6018BF68
:103990002DB2EFE70B682568181D0860280601D5D1
:1039A0001D6802E06906FBD51D8854486F2F0CBFC7
:1039B00008230A23002184F843106668A660002EBD
:1039C000A2BF216821F0040121600DB9002E4DD065
:1039D0001646B5FBF3F103FB1157C75D06F8017DF1
:1039E0002F46BB420D46F4D9082B0BD12368DF07C5
:1039F00008D5236961689942DEBF302306F8013C8F
:103A000006F1FF36921B2261CDF800A04B4603AAB7
:103A100021464046FFF7E2FE01304CD14FF0FF3027
:103A200004B0BDE8F087354884F8457023680E6817
:103A30001F0656F8045B0E6014D5D90744BF43F047
:103A4000200323601DB9236823F020032360102383
:103A5000B0E7236843F0200323607823284884F8E4
:103A60004530E3E75E0648BFADB2E6E71646BBE782
:103A70000B68266860691D1D0D6035061B6801D541
:103A8000186002E07106FBD51880002323611646FA
:103A9000BAE70B681A1D0A601E686268002130468A
:103AA000FCF7B6FB08B1801B6060636823610023EC
:103AB00084F84330A8E72369324649464046D04758
:103AC0000130ABD023689B0713D4E068039B984276
:103AD000B8BF1846A4E70123324649464046D047BE
:103AE00001309BD00135E36803995B1AAB42F2DCED
:103AF000EBE7002504F11906F5E700BF557B0090C0
:103B0000667B009038B5064D0023044608462B60BE
:103B1000FEF700FE431C02D12B6803B1236038BDC1
:103B20002052002010B50C46B1F90E1000F0A0F89C
:103B30000028ABBF636DA3891B1823F48053ACBF6F
:103B40006365A38110BD2DE9F0411F468B89DB051C
:103B500005460C46164605D5B1F90E100223002283
:103B600000F068F8A389B4F90E1023F48053A38100
:103B700032463B462846BDE8F04100F017B810B584
:103B80000C46B1F90E1000F055F8431CA38915BF7F
:103B9000606523F4805343F48053A38118BFA3814D
:103BA00010BDB1F90E1000F013B8000038B5074D84
:103BB00004460846114600222A601A46FEF79CFD7C
:103BC000431C02D12B6803B1236038BD2052002072
:103BD00038B5064D0023044608462B60FEF7B4FDB9
:103BE000431C02D12B6803B1236038BD2052002052
:103BF00038B5074D00230446084611462B60FEF7F2
:103C0000A6FD431C02D12B6803B1236038BD00BF61
:103C10002052002038B5064D0023044608462B608C
:103C2000FEF79AFD431C02D12B6803B1236038BD17
:103C30002052002038B5074D0446084611460022A0
:103C40002A601A46FEF78AFD431C02D12B6803B195
:103C5000236038BD205200200148FFF755BB00BF4C
:103C60001A5200200148FFF750BB00BF1A52002033
:103C700038B5074D04460846114600222A601A4608
:103C8000FEF72DFD431C02D12B6803B1236038BD24
:103C900020520020F8B500BFF8BC08BC9E46704713
:0C3CA000F8B500BFF8BC08BC9E46704799
:103CAC000000000000000000202020200020000068
:103CBC0050500000000000002850F850F850A000B0
:103CCC0020306030106020002020186010100000A0
:103CDC0000382060507800002020200000000000F8
:103CEC0010202020202010004020202020204000E8
:103CFC002070205000000000002020F82020000040
:103D0C0000000000102020000000007000000000E7
:103D1C000000000000200000102020204040800007
:103D2C0020505050502000006020202020F800002F
:103D3C002050202040700000205010201060000007
:103D4C001030507810380000704060105020000087
:103D5C003040605050600000705010202020000057
:103D6C002050205050200000305050301060000087
:103D7C0000002000002000000000100010200000B7
:103D8C00001020C020100000007000700000000027
:103D9C00004020182040000020501020002000007F
:103DAC0030484858484038006020507088D800008F
:103DBC00F048704848F0000070504040403000001F
:103DCC00F048484848F00000F848604048F80000C7
:103DDC00F848604040E0000070404058503000000F
:103DEC00E848784848E80000702020202070000047
:103DFC003810105050200000D850607050D800007F
:103E0C00E040404048F80000D8D8D8A888D8000036
:103E1C00D868685858E800003048484848300000D6
:103E2C00F048487040E000003048484848301800DE
:103E3C00F048487048E800007050201050700000A6
:103E4C00F8A8202020700000D848484848300000CE
:103E5C00D888485050300000D888A8A8A850000036
:103E6C00D850202050D80000D88850202070000056
:103E7C007848102048780000302020202020300086
:103E8C008040402020201000602020202020600056
:103E9C00202050000000000000000000000000F88E
:103EAC0020100000000000000000301070780000AE
:103EBC00C040704848F000000000704040700000A6
:103ECC001808384848380000000070704030000076
:103EDC00102070202070000000003848483808304E
:103EEC00C040704848E800002000602020700000AE
:103EFC002000701010101070C040587050D8000086
:103F0C0060202020207000000000D0A8A8A800008D
:103F1C000000F04848C8000000003048483000005D
:103F2C000000F048487040E0000038484838081855
:103F3C00000078202070000000003020106000008D
:103F4C000040F040483000000000D84848380000DD
:103F5C000000C848303000000000D8A8A85000006D
:103F6C0000004830304800000000D850502020603D
:103F7C0000007850287800001020206020201000CD
:103F8C002020202020202000402020302020400015
:103F9C00000000285000000000000000000000009D
:103FAC0000000000001010101010000010000000A5
:103FBC00006C4848000000000000000000141428A9
:103FCC007C287C2850500000001038404038487045
:103FDC0010100000002050200C7008140800000085
:103FEC00000000182020544834000000001010106D
:103FFC001000000000000000000808101010101045
:10400C0010080800002020101010101010202000A4
:10401C0000107C1028280000000000000000101088
:10402C0010FE10101000000000000000000000182E
:10403C001030200000000000007C00000000000098
:10404C0000000000000000303000000000040408F4
:10405C0008101020204000000038444444444444DC
:10406C003800000000301010101010107C00000000
:10407C0000384404081020447C000000003844043C
:10408C001804044438000000000C141424447E046A
:10409C000E000000003C20203804044438000000CE
:1040AC00001C20407844444438000000007C440448
:1040BC0008080810100000000038444438444444F8
:1040CC003800000000384444443C040870000000F0
:1040DC0000000030300000303000000000000018FC
:1040EC00180000183020000000000C1060806010D8
:1040FC000C000000000000007C007C0000000000B0
:10410C000000C02018041820C00000000000182473
:10411C0004081000300000003844444C54544C4007
:10412C00443800000030102828287C44EE000000A1
:10413C0000F8444478444444F8000000003C4440F7
:10414C00404040443800000000F048444444444897
:10415C00F000000000FC445070504044FC00000093
:10416C00007E22283828202070000000003C4440AB
:10417C00404E44443800000000EE44447C44444427
:10418C00EE000000007C1010101010107C000000DD
:10419C00003C0808084848483000000000EE44483D
:1041AC0050704844E6000000007020202020242499
:1041BC007C00000000EE6C6C54544444EE00000093
:1041CC0000EE64645454544CEC0000000038444439
:1041DC00444444443800000000782424243820202F
:1041EC00700000000038444444444444381C00002F
:1041FC0000F8444444784844E200000000344C4049
:10420C00380404645800000000FE921010101010C6
:10421C003800000000EE444444444444380000009C
:10422C0000EE4444282828101000000000EE4444FE
:10423C00545454542800000000C64428101028443C
:10424C00C600000000EE44282810101038000000B2
:10425C00007C4408101020447C0000000038202012
:10426C002020202020203800004020202010100882
:10427C000808000000380808080808080808380072
:10428C000010102844000000000000000000000096
:10429C0000000000000000FE0010080000000000FC
:1042AC000000000000000038443C44443E00000084
:1042BC0000C0405864444444F80000000000003C36
:1042CC004440404438000000000C04344C44444446
:1042DC003E00000000000038447C40403C000000E0
:1042EC00001C207C202020207C00000000000036D8
:1042FC004C4444443C04380000C04058644444449A
:10430C00EE00000000100070101010107C00000077
:10431C0000100078080808080808700000C0405C0D
:10432C0048705048DC0000000030101010101010C5
:10433C007C000000000000E854545454FE000000BF
:10434C00000000D864444444EE0000000000003833
:10435C004444444438000000000000D86444444401
:10436C007840E000000000364C4444443C040E000D
:10437C000000006C302020207C0000000000003C7D
:10438C0044380444780000000000207C20202022C7
:10439C001C000000000000CC4444444C36000000DB
:1043AC00000000EE4444282810000000000000EE3D
:1043BC004454545428000000000000CC48303048CD
:1043CC00CC000000000000EE4424281810107800E7
:1043DC000000007C481020447C00000000081010F5
:1043EC0010102010101008000010101010101010D9
:1043FC0010100000002010101010081010102000D9
:10440C000000000000245800000000000000000024
:10441C000000000000000000000000000000000090
:10442C0000000000000000000000000000000C0074
:10443C000C000C000C000C000C000C000C0000001C
:10444C000C00000000000000000000000000000054
:10445C001DC01DC0088008800880000000000000FE
:10446C0000000000000000000000000000000D80B3
:10447C000D800D800D803FC01B003FC01B001B003A
:10448C001B001B00000000000000000004001F8047
:10449C003180318038001E000F0003803180318064
:1044AC003F000400040000000000000000001800A1
:1044BC002400240018C007801E00318002400240F6
:1044CC00018000000000000000000000000000005F
:1044DC000F001800180018000C001D803700330066
:1044EC001D80000000000000000000000000000023
:1044FC00070007000200020002000000000000009C
:10450C00000000000000000000000000000003009C
:10451C00030006000E000C000C000C000C000E003A
:10452C00060003000300000000000000000018005B
:10453C0018000C0006000600060006000600060027
:10454C000C001C0018000000000000000000060019
:10455C0006003FC03FC00F001F8019800000000004
:10456C00000000000000000000000000000000003F
:10457C0000000400040004003F8004000400040058
:10458C00000000000000000000000000000000001F
:10459C000000000000000000000000000000060009
:1045AC0004000C00080008000000000000000000DF
:1045BC0000000000000000003F8000000000000030
:1045CC0000000000000000000000000000000000DF
:1045DC0000000000000000000000000000000C00C3
:1045EC000C000000000000000000000000C000C033
:1045FC00018001800300030006000C000C00180071
:10460C0018003000300000000000000000000E0018
:10461C001B003180318031803180318031801B0032
:10462C000E0000000000000000000000000006006A
:10463C003E00060006000600060006000600060006
:10464C003FC00000000000000000000000000F0050
:10465C00198031803180030006000C0018003000F6
:10466C003F800000000000000000000000003F0040
:10467C006180018003001F00038001800180618044
:10468C003F000000000000000000000000000700D8
:10469C0007000F000B001B00130033003F800300CA
:1046AC000F800000000000000000000000001F80D0
:1046BC001800180018001F00118001800180218053
:1046CC001F00000000000000000000000000078038
:1046DC001C0018003000370039803180318019807F
:1046EC000F000000000000000000000000007F0030
:1046FC004300030006000600060006000C000C0038
:10470C000C000000000000000000000000001F0072
:10471C003180318031801F00318031803180318097
:10472C001F000000000000000000000000001E0040
:10473C0033003180318033801D80018003000700FD
:10474C003C00000000000000000000000000000021
:10475C00000000000C000C000000000000000C0029
:10476C000C00000000000000000000000000000031
:10477C000000000003000300000000000000060021
:10478C000400080008000000000000000000000009
:10479C0000C00300040018006000180004000300AF
:1047AC0000C000000000000000000000000000003D
:1047BC000000000000007FC000007FC0000000006F
:1047CC0000000000000000000000000000000000DD
:1047DC00600018000400030000C00300040018006F
:1047EC00600000000000000000000000000000005D
:1047FC001F0031803180018007000C000C0000008C
:10480C000C000000000000000000000000000E0082
:10481C001100210021002700290029002700200079
:10482C0011000E000000000000000000000000005D
:10483C003F000F000900198019801F8030C030C064
:10484C0079E0000000000000000000000000000003
:10485C007F003180318031803F0031803180318068
:10486C007F000000000000000000000000000000BD
:10487C001F4030C0604060006000600060403080CD
:10488C001F000000000000000000000000000000FD
:10489C007F00318030C030C030C030C030C031807B
:1048AC007F0000000000000000000000000000007D
:1048BC007F803080308032003E003200308030808B
:1048CC007F800000000000000000000000000000DD
:1048DC007FC03040304032003E00320030003000AB
:1048EC007C00000000000000000000000000000040
:1048FC001E80318060806000600067C06180318004
:10490C001F0000000000000000000000000000007C
:10491C007BC03180318031803F803180318031806B
:10492C007BC0000000000000000000000000000040
:10493C003FC0060006000600060006000600060042
:10494C003FC000000000000000000000000000005C
:10495C001FC0030003000300030063006300630037
:10496C003E000000000000000000000000000000FD
:10497C007BC03180330036003C003E003300318078
:10498C0079C00000000000000000000000000000E2
:10499C007E00180018001800180018401840184025
:1049AC007FC00000000000000000000000000000BC
:1049BC00E0E060C071C07BC06AC06EC064C060C003
:1049CC00FBE0000000000000000000000000000000
:1049DC0073C0318039803D803580378033803180A1
:1049EC0079800000000000000000000000000000C2
:1049FC001F00318060C060C060C060C060C031808A
:104A0C001F0000000000000000000000000000007B
:104A1C007F0031803180318031803F0030003000A8
:104A2C007E000000000000000000000000000000FC
:104A3C001F00318060C060C060C060C060C0318049
:104A4C001F000CC01F8000000000000000000000D0
:104A5C007F003180318031803E00330031803180E5
:104A6C007CE00000000000000000000000000000DE
:104A7C001F803180318038001F00038031803180ED
:104A8C003F000000000000000000000000000000DB
:104A9C007F804C804C804C800C000C000C000C0077
:104AAC003F000000000000000000000000000000BB
:104ABC007BC03180318031803180318031803180D8
:104ACC001F000000000000000000000000000000BB
:104ADC007BC0318031801B001B001B000A000E00C4
:104AEC000E000000000000000000000000000000AC
:104AFC00FBE060C064C06EC06EC02A803B803B800F
:104B0C0031800000000000000000000000000000E8
:104B1C007BC031801B000E000E000E001B0031808C
:104B2C007BC000000000000000000000000000003E
:104B3C0079E030C019800F00060006000600060060
:104B4C001F800000000000000000000000000000BA
:104B5C003F8021802300060004000C001880308068
:104B6C003F800000000000000000000000000780F3
:104B7C0006000600060006000600060006000600F9
:104B8C000600060007800000000000003000300026
:104B9C00180018000C000C00060003000300018034
:104BAC00018000C000C000000000000000001E00DA
:104BBC0006000600060006000600060006000600B9
:104BCC00060006001E0000000000000004000A00A1
:104BDC000A0011002080208000000000000000006E
:104BEC0000000000000000000000000000000000B9
:104BFC0000000000000000000000000000000000A9
:104C0C0000000000000000000000FFE008000400AD
:104C1C000200000000000000000000000000000086
:104C2C000000000000000000000000000000000078
:104C3C00000000001F00018001801F803180338044
:104C4C001DC000000000000000000000000070000B
:104C5C00300030003700398030C030C030C039806F
:104C6C0077000000000000000000000000000000C1
:104C7C00000000001E803180608060006080318008
:104C8C001F00000000000000000000000000038076
:104C9C00018001801D803380618061806180338060
:104CAC001DC000000000000000000000000000001B
:104CBC00000000001F00318060C07FC0600030C069
:104CCC001F8000000000000000000000000007E052
:104CDC000C000C003F800C000C000C000C000C00B5
:104CEC003F800000000000000000000000000000F9
:104CFC00000000001DC033806180618061803380C2
:104D0C001D80018001801F00000000000000700069
:104D1C003000300037003980318031803180318073
:104D2C007BC0000000000000000000000000060036
:104D3C00060000001E000600060006000600060025
:104D4C003FC0000000000000000000000000060052
:104D5C00060000003F0003000300030003000300F3
:104D6C000300030003003E00000000000000700080
:104D7C0030003000378036003C003C0036003300F9
:104D8C0077C00000000000000000000000001E00C2
:104D9C0006000600060006000600060006000600D7
:104DAC003FC00000000000000000000000000000F8
:104DBC00000000007F8036C036C036C036C036C01A
:104DCC0076E0000000000000000000000000000081
:104DDC0000000000770039803180318031803180D3
:104DEC007BC000000000000000000000000000007C
:104DFC00000000001F00318060C060C060C03180C6
:104E0C001F00000000000000000000000000000077
:104E1C00000000007700398030C030C030C03980CD
:104E2C003700300030007C00000000000000000063
:104E3C00000000001DC03380618061806180338080
:104E4C001D800180018007C00000000000000000F0
:104E5C00000000007B801CC018001800180018000F
:104E6C007F000000000000000000000000000000B7
:104E7C00000000001F8031803C001F000380318047
:104E8C003F000000000000000000000000001800BF
:104E9C00180018007F00180018001800180018805F
:104EAC000F000000000000000000000000000000E7
:104EBC00000000007380318031803180318033807C
:104ECC001DC00000000000000000000000000000F9
:104EDC00000000007BC0318031801B001B000E00E5
:104EEC000E000000000000000000000000000000A8
:104EFC0000000000F1E060C064C06EC03B803B80ED
:104F0C0031800000000000000000000000000000E4
:104F1C00000000007BC01B000E000E000E001B00EA
:104F2C007BC000000000000000000000000000003A
:104F3C000000000079E030C0198019800B000F00D0
:104F4C00060006000C003E000000000000000000FF
:104F5C00000000003F80218003000E00180030800C
:104F6C003F80000000000000000000000000060070
:104F7C000C000C000C000C000C0018000C000C00B9
:104F8C000C000C00060000000000000000000600F1
:104F9C0006000600060006000600060006000600D5
:104FAC0006000600060000000000000000000C00D7
:104FBC0006000600060006000600030006000600B8
:104FCC00060006000C0000000000000000000000BD
:104FDC000000000000001800248003000000000006
:104FEC0000000000000000000000000000000000B5
:104FFC0000000000000000000000000000000000A5
:10500C000000000000000000000000000000000094
:10501C000000000000000700070007000700070061
:10502C000700070002000200000000000700070054
:10503C000000000000000000000000000000000064
:10504C001CE01CE01CE00840084008400000000088
:10505C000000000000000000000000000000000044
:10506C00000000000CC00CC00CC00CC00CC03FF009
:10507C003FF00CC00CC03FF03FF00CC00CC00CC09B
:10508C000CC00CC000000000000000000300030076
:10509C0007E00FE0186018001F000FC000E0186058
:1050AC0018601FC01F8003000300030000000000F5
:1050BC000000000000001C002200220022001C60E6
:1050CC0001E00F803C0031C002200220022001C010
:1050DC0000000000000000000000000000000000C4
:1050EC00000003E00FE00C000C0006000F301FF076
:1050FC0019E018C01FF007B000000000000000000D
:10510C000000000000000000038003800380010009
:10511C000100010000000000000000000000000081
:10512C00000000000000000000000000000000C0B3
:10513C0000C0018001800180030003000300030014
:10514C000300030001800180018000C000C000004A
:10515C000000000000000C000C0006000600060019
:10516C000300030003000300030003000600060015
:10517C0006000C000C000000000000000000030002
:10518C00030003001B601FE0078007800FC00CC0EA
:10519C000000000000000000000000000000000003
:1051AC0000000000000000000000030003000300EA
:1051BC0003003FF03FF00300030003000300000076
:1051CC0000000000000000000000000000000000D3
:1051DC0000000000000000000000000000000000C3
:1051EC00000003800300030006000600040000001A
:1051FC0000000000000000000000000000000000A3
:10520C0000003FE03FE00000000000000000000054
:10521C000000000000000000000000000000000082
:10522C000000000000000000000000000000000072
:10523C0000000380038003800000000000000000D9
:10524C00000000000060006000C000C000C00180D1
:10525C00018003000300060006000C000C000C008B
:10526C0018001800000000000000000000000F8073
:10527C001FC018C03060306030603060306030600B
:10528C00306018C01FC00F8000000000000000003C
:10529C0000000000000003001F001F0003000300BB
:1052AC000300030003000300030003001FE01FE0E2
:1052BC0000000000000000000000000000000F8053
:1052CC001FC038E03060006000C0018003000600A1
:1052DC000C0018003FE03FE0000000000000000060
:1052EC000000000000000F803FC030E0006000E0D4
:1052FC0007C007C000E00060006060E07FC03F8036
:10530C00000000000000000000000000000001C0D0
:10531C0003C003C006C00CC00CC018C030C03FE0B6
:10532C003FE000C003E003E00000000000000000CC
:10533C000000000000001FC01FC0180018001F80D4
:10534C001FC018E000600060006030E03FC01F80AC
:10535C00000000000000000000000000000003E05E
:10536C000FE01E001800380037803FC038E0306076
:10537C00306018E01FC00780000000000000000033
:10538C000000000000003FE03FE03060006000C023
:10539C0000C000C0018001800180030003000300F5
:1053AC0000000000000000000000000000000F8062
:1053BC001FC038E0306038E01FC01FC038E03060DC
:1053CC00306038E01FC00F800000000000000000BB
:1053DC000000000000000F001FC038C030603060BB
:1053EC0038E01FE00F6000E000C003C03F803E00CB
:1053FC0000000000000000000000000000000000A1
:10540C000000000000000380038003800000000007
:10541C0000000380038003800000000000000000F7
:10542C00000000000000000000000000000001C0AF
:10543C0001C001C000000000000003800300060052
:10544C000600040000000000000000000000000046
:10545C000000003000F003C007001C0078001C00A6
:10546C00070003C000F00030000000000000000046
:10547C0000000000000000000000000000007FF0B1
:10548C007FF0000000007FF07FF0000000000000C3
:10549C000000000000000000000000000000000000
:1054AC00000030003C000F00038000E0007800E0BA
:1054BC0003800F003C0030000000000000000000E2
:1054CC0000000000000000000F801FC01860186072
:1054DC00006001C00380030000000000070007000B
:1054EC00000000000000000000000000000003802D
:1054FC000C8008401040104011C012401240124065
:10550C0011C01000080008400780000000000000D7
:10551C0000000000000000001F801F80038006C0F8
:10552C0006C00CC00C601FE01FE030307878787833
:10553C00000000000000000000000000000000005F
:10554C003F803FC01860186018E01FC01FE0187043
:10555C00183018303FF03FE0000000000000000061
:10556C00000000000000000007B00FF01C70383085
:10557C00300030003000300038301C700FE007C0B5
:10558C00000000000000000000000000000000000F
:10559C007F807FC030E03070303030303030303091
:1055AC00307030E07FC07F80000000000000000001
:1055BC0000000000000000003FF03FF018301830F1
:1055CC0019801F801F801980183018303FF03FF071
:1055DC0000000000000000000000000000000000BF
:1055EC003FF03FF01830183019801F801F80198051
:1055FC00180018003F003F000000000000000000F1
:10560C00000000000000000007B01FF018703030E0
:10561C003000300031F831F8303018301FF007C04E
:10562C00000000000000000000000000000000006E
:10563C003CF03CF01860186018601FE01FE0186028
:10564C00186018603CF03CF0000000000000000006
:10565C0000000000000000001FE01FE0030003003A
:10566C000300030003000300030003001FE01FE01E
:10567C00000000000000000000000000000000001E
:10568C0003F803F800600060006000603060306078
:10569C00306030E03FC00F800000000000000000D0
:1056AC0000000000000000003EF83EF818E01980F1
:1056BC001B001F001D8018C018C018603E783E38B3
:1056CC0000000000000000000000000000000000CE
:1056DC003F003F000C000C000C000C000C000C30C8
:1056EC000C300C303FF03FF00000000000000000D8
:1056FC0000000000000000007878787838703CF0EA
:10570C0034B037B037B03330333030307CF87CF8CD
:10571C00000000000000000000000000000000007D
:10572C0039F03DF01C601E601E601B601B6019E0B0
:10573C0019E018E03EE03E600000000000000000B0
:10574C00000000000000000007800FC01CE0387053
:10575C00303030303030303038701CE00FC00780C3
:10576C00000000000000000000000000000000002D
:10577C003FC03FE018701830183018701FE01FC081
:10578C00180018003F003F0000000000000000005F
:10579C00000000000000000007800FC01CE0387003
:1057AC00303030303030303038701CE00FC0078073
:1057BC0007B00FF00CE0000000000000000000003B
:1057CC003FC03FE01870183018701FE01FC018E081
:1057DC00186018703E383E180000000000000000F1
:1057EC0000000000000000000FB01FF038703030D7
:1057FC0038001F8007E00070303038703FE037C051
:10580C00000000000000000000000000000000008C
:10581C003FF03FF0333033303330030003000300EC
:10582C00030003000FC00FC00000000000000000C8
:10583C0000000000000000003CF03CF01860186014
:10584C00186018601860186018601CE00FC00780A2
:10585C00000000000000000000000000000000003C
:10586C0078F078F03060306018C018C00D800D8072
:10587C000D8007000700070000000000000000007A
:10588C0000000000000000007C7C7C7C3018339809
:10589C003398339836D816D01C701C701C70183086
:1058AC0000000000000000000000000000000000EC
:1058BC0078F078F0306018C00D80070007000D807C
:1058CC0018C0306078F078F0000000000000000094
:1058DC0000000000000000003CF03CF018600CC020
:1058EC000780078003000300030003000FC00FC0F4
:1058FC00000000000000000000000000000000009C
:10590C001FE01FE0186018C00180030003000600B0
:10591C000C6018601FE01FE0000000000000000099
:10592C0000000000000003C003C0030003000300DC
:10593C000300030003000300030003000300030043
:10594C00030003C003C00000000000001800180092
:10595C000C000C000C000600060003000300018084
:10596C00018000C000C000C00060006000000000AA
:10597C000000000000000F000F00030003000300F4
:10598C0003000300030003000300030003000300F3
:10599C0003000F000F0000000000000000000200D8
:1059AC0007000D8018C030602020000000000000AF
:1059BC0000000000000000000000000000000000DB
:1059CC0000000000000000000000000000000000CB
:1059DC0000000000000000000000000000000000BB
:1059EC000000000000000000FFFCFFFC00000400B1
:1059FC000300008000000000000000000000000018
:105A0C00000000000000000000000000000000008A
:105A1C0000000000000000000000000000000FC0AB
:105A2C001FE000600FE01FE0386030E03FF01F70B7
:105A3C0000000000000000000000000000007000EA
:105A4C0070003000300037803FE03860303030304C
:105A5C00303038607FE077800000000000000000EC
:105A6C00000000000000000000000000000007B073
:105A7C001FF0183030303000300038301FF00FC0BD
:105A8C00000000000000000000000000000000709A
:105A9C0000700030003007B01FF01870303030301C
:105AAC00303038701FF807B800000000000000000C
:105ABC000000000000000000000000000000078053
:105ACC001FE018603FF03FF0300018301FF007C0A7
