:0200000490006A
:100000000000052001310090D1330090D3330090DF
:10001000D5330090D7330090D93300900000000012
:10002000000000000000000000000000DB33009032
:10003000DD33009000000000DF330090E1330090DA
:100040005131009051310090513100905131009068
:100050005131009051310090E533009051310090C2
:10006000ED330090513100905131009051310090AA
:100070005131009051310090513100905131009038
:100080005131009051310090513100905131009028
:100090005131009051310090513100905131009018
:1000A0005131009051310090513100905131009008
:1000B00051310090513100905131009051310090F8
:1000C00051310090513100905131009051310090E8
:1000D00051310090513100905131009051310090D8
:1000E00051310090513100905131009051310090C8
:1000F00051310090513100905131009051310090B8
:1001000051310090513100905131009051310090A7
:100110005131009051310090513100905131009097
:10012000013400900D340090513100905131009015
:100130005131009051310090513100905131009077
:100140005131009051310090513100905131009067
:100150005131009051310090F533009051310090B1
:100160005131009051310090513100905131009047
:100170005131009051310090513100905131009037
:100180005131009051310090513100905131009027
:100190005131009051310090513100905131009017
:1001A0005131009051310090513100905131009007
:1001B00051310090513100905131009051310090F7
:0801C000513100905131009013
:1001D00010B5054C237833B9044B13B10448AFF381
:1001E00000800123237010BDA80000200000000043
:1001F0008456009008B5034B1BB103490348AFF385
:10020000008008BD00000000AC0000208456009073
:1002100001F0FF01102A2BDB10F0070F08D010F8B7
:10022000013B013A8B422DD010F0070F42B3F6D1BB
:10023000F0B441EA012141EA014122F007047FF0D4
:1002400000070023F0E80256083C85EA010586EA2B
:10025000010685FA47F5A3FA87F586FA47F6A5FA67
:1002600087F68EB9EED1F0BC01F0FF0102F0070273
:1002700032B110F8013B013A83EA010313B1F8D11E
:100280000020704701387047002D06BF35460338FF
:10029000073815F0010F07D1013015F4807F02BF38
:1002A000013015F4C03F0130F0BC0138704700BF89
:1002B00081F0004102E000BF83F0004330B54FEA17
:1002C00041044FEA430594EA050F08BF90EA020F84
:1002D0001FBF54EA000C55EA020C7FEA645C7FEA17
:1002E000655C00F0E2804FEA5454D4EB5555B8BF3A
:1002F0006D420CDD2C4480EA020281EA030382EAAB
:10030000000083EA010180EA020281EA0303362D3C
:1003100088BF30BD11F0004F4FEA01314FF4801C0F
:100320004CEA113102D0404261EB410113F0004F21
:100330004FEA03334CEA133302D0524263EB4303D8
:1003400094EA050F00F0A780A4F10104D5F1200E76
:100350000DDB02FA0EFC22FA05F2801841F10001D1
:1003600003FA0EF2801843FA05F359410EE0A5F1A5
:1003700020050EF1200E012A03FA0EFC28BF4CF0D6
:10038000020C43FA05F3C01851EBE37101F000458C
:1003900007D54FF0000EDCF1000C7EEB00006EEB99
:1003A0000101B1F5801F1BD3B1F5001F0CD3490823
:1003B0005FEA30004FEA3C0C04F101044FEA44527A
:1003C00012F5800F80F09A80BCF1004F08BF5FEA01
:1003D000500C50F1000041EB045141EA050130BDE1
:1003E0005FEA4C0C404141EB0101013C28BFB1F5F3
:1003F000801FE9D291F0000F04BF01460020B1FA3E
:1004000081F308BF2033A3F10B03B3F120020CDA10
:100410000C3208DD02F1140CC2F10C0201FA0CF0EE
:1004200021FA02F10CE002F11402D8BFC2F1200C53
:1004300001FA02F120FA0CFCDCBF41EA0C01904009
:10044000E41AA2BF01EB0451294330BD6FEA040452
:100450001F3C1CDA0C340EDC04F11404C4F120023D
:1004600020FA04F001FA02F340EA030021FA04F34F
:1004700045EA030130BDC4F10C04C4F1200220FAA6
:1004800002F001FA04F340EA0300294630BD21FAE4
:1004900004F0294630BD94F0000F83F4801306BFAA
:1004A00081F480110134013D4EE77FEA645C18BF9E
:1004B0007FEA655C29D094EA050F08BF90EA020F35
:1004C00005D054EA000C04BF1946104630BD91EA2D
:1004D000030F1EBF0021002030BD5FEA545C05D130
:1004E0004000494128BF41F0004130BD14F580046F
:1004F0003CBF01F5801130BD01F0004545F0FE41E3
:1005000041F470014FF0000030BD7FEA645C1ABF17
:10051000194610467FEA655C1CBF0B46024650EA4E
:10052000013406BF52EA033591EA030F41F400217A
:1005300030BD00BF90F0000F04BF0021704730B500
:100540004FF4806404F132044FF000054FF00001D5
:1005500050E700BF90F0000F04BF0021704730B596
:100560004FF4806404F1320410F0004548BF40426B
:100570004FF000013EE700BF42004FEAE2014FEAC0
:1005800031014FEA02701FBF12F07F4393F07F4F9B
:1005900081F06051704732F07F4208BF704793F09E
:1005A0007F4F04BF41F40021704730B54FF46074B1
:1005B00001F0004521F000411CE700BF50EA0102B4
:1005C00008BF704730B54FF000050AE050EA01025D
:1005D00008BF704730B511F0004502D5404261EBCD
:1005E00041014FF4806404F132045FEA915C3FF40E
:1005F000D8AE4FF003025FEADC0C18BF03325FEAAB
:10060000DC0C18BF033202EBDC02C2F1200300FA5B
:1006100003FC20FA02F001FA03FE40EA0E0021FA80
:1006200002F11444BDE600BF70B54FF0FF0C4CF46E
:10063000E06C1CEA11541DBF1CEA135594EA0C0F20
:1006400095EA0C0F00F0DEF82C4481EA030621EA5B
:100650004C5123EA4C5350EA013518BF52EA033596
:1006600041F4801143F4801338D0A0FB02CE4FF048
:100670000005E1FB02E506F00042E0FB03E54FF078
:100680000006E1FB03569CF0000F18BF4EF0010E70
:10069000A4F1FF04B6F5007F64F5407404D25FEA6C
:1006A0004E0E6D4146EB060642EAC62141EA55511F
:1006B0004FEAC52040EA5E504FEACE2EB4F1FD0C61
:1006C00088BFBCF5E06F1ED8BEF1004F08BF5FEADF
:1006D000500E50F1000041EB045170BD06F0004691
:1006E00046EA010140EA020081EA0301B4EB5C043E
:1006F000C2BFD4EB0C0541EA045170BD41F4801136
:100700004FF0000E013C00F3AB8014F1360FDEBF5A
:10071000002001F0004170BDC4F10004203C35DA36
:100720000C341BDC04F11404C4F1200500FA05F3B9
:1007300020FA04F001FA05F240EA020001F000425A
:1007400021F0004110EBD37021FA04F642EB0601D0
:100750005EEA430E08BF20EAD37070BDC4F10C04FA
:10076000C4F1200500FA04F320FA05F001FA04F2BE
:1007700040EA020001F0004110EBD37041F10001AA
:100780005EEA430E08BF20EAD37070BDC4F12005B5
:1007900000FA05F24EEA020E20FA04F301FA05F21D
:1007A00043EA020321FA04F001F0004121FA04F2C5
:1007B00020EA020000EBD3705EEA430E08BF20EA95
:1007C000D37070BD94F0000F0FD101F000464000CF
:1007D00041EB010111F4801F08BF013CF7D041EA51
:1007E000060195F0000F18BF704703F00046520055
:1007F00043EB030313F4801F08BF013DF7D043EA26
:100800000603704794EA0C0F0CEA135518BF95EADB
:100810000C0F0CD050EA410618BF52EA4306D1D162
:1008200081EA030101F000414FF0000070BD50EA81
:10083000410606BF1046194652EA430619D094EA0B
:100840000C0F02D150EA013613D195EA0C0F05D1F5
:1008500052EA03361CBF104619460AD181EA030149
:1008600001F0004141F0FE4141F470014FF0000001
:1008700070BD41F0FE4141F4780170BD70B54FF09C
:10088000FF0C4CF4E06C1CEA11541DBF1CEA13551C
:1008900094EA0C0F95EA0C0F00F0A7F8A4EB0504FE
:1008A00081EA030E52EA03354FEA013100F08880F5
:1008B0004FEA03334FF0805545EA131343EA1263BE
:1008C0004FEA022245EA111545EA10654FEA002673
:1008D0000EF000419D4208BF964244F1FD0404F52C
:1008E000407402D25B084FEA3202B61A65EB030588
:1008F0005B084FEA32024FF480104FF4002CB6EB45
:10090000020E75EB030E22BFB61A754640EA0C00C4
:100910005B084FEA3202B6EB020E75EB030E22BF04
:10092000B61A754640EA5C005B084FEA3202B6EB45
:10093000020E75EB030E22BFB61A754640EA9C0004
:100940005B084FEA3202B6EB020E75EB030E22BFD4
:10095000B61A754640EADC0055EA060E18D04FEA92
:10096000051545EA16754FEA06164FEAC30343EA32
:1009700052734FEAC2025FEA1C1CC0D111F4801FFF
:100980000BD141EA00014FF000004FF0004CB6E7F8
:1009900011F4801F04BF01430020B4F1FD0C88BF97
:1009A000BCF5E06F3FF6AFAEB5EB030C04BFB6EBA2
:1009B000020C5FEA500C50F1000041EB045170BD95
:1009C0000EF0004E4EEA113114EB5C04C2BFD4EBC2
:1009D0000C0541EA045170BD41F480114FF0000E46
:1009E000013C90E645EA060E8DE60CEA135594EAC2
:1009F0000C0F08BF95EA0C0F3FF43BAF94EA0C0FC5
:100A00000AD150EA01347FF434AF95EA0C0F7FF439
:100A100025AF104619462CE795EA0C0F06D152EA8D
:100A200003353FF4FDAE1046194622E750EA410671
:100A300018BF52EA43067FF4C5AE50EA41047FF482
:100A40000DAF52EA43057FF4EBAE12E74FF0FF3CE7
:100A500006E000BF4FF0010C02E000BF4FF0010CB8
:100A60004DF804CD4FEA410C7FEA6C5C4FEA430C31
:100A700018BF7FEA6C5C1BD001B050EA410C0CBF80
:100A800052EA430C91EA030F02BF90EA020F0020E2
:100A9000704710F1000F91EA030F58BF994208BF49
:100AA00090422CBFD8176FEAE37040F00100704706
:100AB0004FEA410C7FEA6C5C02D150EA013C07D15D
:100AC0004FEA430C7FEA6C5CD6D152EA033CD3D0A8
:100AD0005DF8040B704700BF8446104662468C46A2
:100AE0001946634600E000BF01B5FFF7B7FF0028D5
:100AF00048BF10F1000F01BD4DF808EDFFF7F4FFFE
:100B00000CBF012000205DF808FB00BF4DF808ED88
:100B1000FFF7EAFF34BF012000205DF808FB00BFAB
:100B20004DF808EDFFF7E0FF94BF012000205DF8CD
:100B300008FB00BF4DF808EDFFF7CEFF94BF012082
:100B400000205DF808FB00BF4DF808EDFFF7C4FF7B
:100B500034BF012000205DF808FB00BF4A0011D21D
:100B600012F5001211D20DD56FF47873B3EB625207
:100B70000ED44FEAC12343F0004343EA505323FA13
:100B800002F070474FF00000704750EA013002D188
:100B90004FF0FF3070474FF00000704753B94AB92B
:100BA000002908BF00281CBF4FF0FF314FF0FF3075
:100BB00000F06EB9ADF1080C6DE904CE00F006F856
:100BC000DDF804E0DDE9022304B070472DE9F047C9
:100BD000089D04468C46002B40F083808A421746CD
:100BE00047D9B2FA82F242B1C2F1200024FA00F0F1
:100BF0009140974040EA010C94404FEA1748230C7B
:100C0000BCFBF8F61FFA87FE08FB16C143EA014356
:100C100006FB0EF1994209D9FB1806F1FF3080F06E
:100C20001981994240F21681023E3B445B1AA4B2FC
:100C3000B3FBF8F008FB103344EA034400FB0EFE5C
:100C4000A64509D93C1900F1FF3380F00581A6457E
:100C500040F2028102383C4440EA0640A4EB0E0414
:100C600000261DB1D4400023C5E900433146BDE84C
:100C7000F08702B9FFDEB2FA82F2002A50D1CB1B14
:100C80004FEA174E1FFA87F80126B3FBFEFC210C32
:100C90000EFB1C3341EA034108FB0CF38B4207D9DE
:100CA00079180CF1FF3002D28B4200F2E9808446C1
:100CB000C91AA3B2B1FBFEF00EFB101143EA0144C6
:100CC00008FB00F8A04507D93C1900F1FF3302D218
:100CD000A04500F2D9801846A4EB080440EA0C4075
:100CE000BFE78B4209D9002D00F0B1800026C5E98D
:100CF000000130463146BDE8F087B3FA83F6002E96
:100D00004AD18B4202D3824200F2B880841A61EB4E
:100D1000030101208C46002DA8D0C5E9004CA5E7B1
:100D2000C2F1200320FA03F6974001FA02F04FEADD
:100D3000174ED9403043030CB1FBFEF61FFA87F87B
:100D40000EFB161143EA014306FB08F1994204FA2F
:100D500002F409D9FB1806F1FF3C80F08D8099421E
:100D600040F28A80023E3B445B1A81B2B3FBFEF044
:100D70000EFB103341EA034100FB08F38B4207D915
:100D8000791800F1FF3C73D28B4271D90238394493
:100D9000CB1A40EA064678E7C6F1200C03FA06F4BF
:100DA00022FA0CF31C4320FA0CF701FA06F34FEA7F
:100DB000144E21FA0CF11F433B0CB1FBFEF91FFA54
:100DC00084F80EFB191143EA014109FB08FA8A4530
:100DD00002FA06F200FA06F308D9611809F1FF30A9
:100DE00048D28A4546D9A9F102092144A1EB0A015A
:100DF000BFB2B1FBFEF00EFB101147EA014700FB4A
:100E000008F8B84507D9E71900F1FF312ED2B845E7
:100E10002CD90238274440EA0940A7EB0807A0FB79
:100E200002894F45C64649461AD317D05DB1B3EB88
:100E30000E0267EB010707FA0CFCF2404CEA0202D3
:100E4000F740C5E9002700263146BDE8F0872E4669
:100E500028460BE70646E9E61846FDE64345E5D297
:100E6000B8EB020E69EB04010138DFE70846D2E770
:100E700060468DE78146B9E7664675E730464AE742
:100E8000ACF1020C394413E702383C4424E700BFBC
:100E9000704700BF2DE9F347194C98464FF4403393
:100EA0000E4617463421174A814663602046236C5C
:100EB000DDF82CA001FB03239D6C0A9B022DE3604F
:100EC00018BF0025104BA560236000F02AFFA0B9D1
:100ED0004946204600F0ECFF78B93B463246514681
:100EE0002046CDF8008000F048FF30B90A212046A6
:100EF00002B0BDE8F04700F05ABF02B0BDE8F0878D
:100F0000EC020020DC04002000B00240034B34213E
:100F1000034A1B6C01FB0323186E7047EC02002090
:100F2000DC04002070B5184D0446342617482A6C9E
:100F30008EB0002306FB02020A91FF21166E526E4C
:100F40000193ADF834308DF83630CDE90423CDE986
:100F50000613CDE902634FF4C0610723CDE90B62AC
:100F6000CDE90813224601A901F0D6F90C204FF073
:100F7000FF3300FB04508364054BC3644FF07F4391
:100F800043640EB070BD00BFEC020020DC04002002
:100F900000000020014B1864704700BFEC020020E5
:100FA000034A0C21136C01FB03235864704700BFF4
:100FB000EC020020034A0C21136C01FB032398640C
:100FC000704700BFEC020020034A0C21136C01FBA8
:100FD0000323D864704700BFEC020020034A0C21B1
:100FE000136C01FB0323D86C704700BFEC02002098
:100FF000084B13B51C6C3421074B0190204601FBB4
:10100000043100230093D1E91823C96DFFF742FF93
:1010100002B010BDEC020020DC0400200A4B30B509
:101020001B6C3425094C05FB0343D3E917459B6C26
:1010300005FB0101022B03D192B224F8112030BD2F
:1010400044F82120FBE700BFEC020020DC04002074
:101050002DE9F04F85B0A2F120054FF00008CDE951
:10106000000128480C21D0F840B001FB0B01C96CED
:10107000B1F80490B1F806A009F107060A680AFB66
:1010800005F5F610C9EBC60006FB052509F1FF3290
:1010900052FA80F30293019BD04503EB080189B219
:1010A00002D305B0BDE8F08F012E2C7804D0022EBB
:1010B00009D12C8864BAA4B20027B9450AD808F12E
:1010C00001083544E7E76A78240444EA0224AA7850
:1010D0001443F1E7009B01220391D819029BA3EB73
:1010E000070C084B80B2013702FA0CF222424FF093
:1010F0000C0202FB0B3214BF526C926CFFF78EFF96
:101100000399DAE7EC0200202DE9F04705468A460C
:101110001646144612F8010B0028FAD124480C2276
:10112000012B016C02FB01024FF03400D76C214A05
:10113000B7F804E000FB0120006EB0FBFEF021D008
:10114000022B27D02BB24FF034084FF00009002BB0
:1011500008FB0128D8BF0125BC881FFA89F3D8F8FD
:10116000600016F8092009F1010904FB13039BB282
:10117000A34234BF00230123002A08BF00237BB908
:10118000BDE8F087341B04440EFB04F405EB540067
:1011900085B2D7E7341B044414FB0EF4601BF7E759
:1011A00028465146FFF754FFB888284485B2D3E754
:1011B000EC020020DC04002010B4084C0A460C218C
:1011C000236C01FB03435DF8044BDB6CDB8813FBF2
:1011D00000F0032381B20020FFF796BFEC0200204D
:1011E000F7B50F4D0C242F6C04FB07543425D4F8AD
:1011F00044C00C4C05FB0745D5E9174606FB010129
:10120000A86CB61ACDF804C00228384600960CBF68
:1012100004EB410104EB8101FFF73CFE03B0F0BD9C
:10122000EC020020DC04002008B5094B4FF480518B
:1012300008481A68936943F001039361012200F0A2
:1012400065FF012208210448BDE8084000F05EBFA8
:10125000DC040020002002400028024008B5094BB1
:101260004FF4805108481A68936923F00103936191
:10127000002200F04BFF002208210448BDE808408E
:1012800000F044BFDC04002000200240002802409F
:101290004B4B4C485A6C42F08062F0B55A648FB0A8
:1012A0005A6C02240E2509A902F080624FF480577F
:1012B000454E0092009A1A6B42F400021A631A6BB0
:1012C00002F400020192019A1A6B42F010021A63B2
:1012D0001A6B02F010020292029A1A6B42F040025C
:1012E0001A631A6B02F040020392039A1A6B42F4DB
:1012F00080721A631A6B02F480720492049A1A6B59
:1013000042F400721A631A6B02F400720592059A95
:101310001A6B42F480621A631A6B02F480620692BE
:10132000069A1A6B42F480721A631A6B02F4807286
:101330000792079A1A6B42F480621A631B6B0D9531
:1013400003F480630893089B1023CDE9093400233C
:10135000CDE90B3400F0F4FD092309A91B480D93D6
:10136000CDE9097400F0ECFD4FF4664309A930465D
:101370000D95CDE9093400F0E3FD4EF6FF7309A9A0
:1013800013480D95CDE9093400F0DAFDF72309A9DA
:101390000D950125CDE909340E4C204600F0D0FD15
:1013A00009A9304609970A9500F0CAFD082309A942
:1013B0002046CDE9093500F0C3FD0FB0F0BD00BFF8
:1013C0000038024000100240002002400018024095
:1013D000002402400028024006480823C365C023B9
:1013E0005C3043610523C3614FF48033C36201F075
:1013F00087BA00BFEC02002010B52822244C092334
:10140000352140F21B1040F21D1CC4E905230B23BB
:10141000C4E9071340F215230021C4E9093040F262
:1014200035232046C4E90B3CFFF7D6FF4FF4F07E8E
:101430004FF488732046C4E918E30023A38684F898
:101440003630C4E90133C4E90333124B236000F0A2
:1014500090FF014610B92046FFF71AFF0C4800F034
:10146000EFFE01224FF480510B4800F04FFE0122A5
:1014700008210A4800F04AFE00F01EF9084A0C2133
:101480000020136C01FB0323064ADA6410BD00BF81
:10149000DC040020006801400020024000280240D7
:1014A000EC020020000000202DE9F743214C01262A
:1014B000214D4FF000081027214681464FF6FF725C
:1014C0002846CDF80480C4E90067C4E9026801F049
:1014D000C2FC304600F0A0F9022321464FF6FF720D
:1014E0002846C4E90037C4E9026801F0B4FC0323CC
:1014F00021464FF6FF722846C4E900370823C4E9A5
:10150000023801F0A8FC4FF4087321464FF6FF7231
:10151000019304232846A660C4E90037019BE360D9
:1015200001F099FC4946284603B0BDE8F04301F0BC
:10153000A9BC00BFCC03002084050020554B9A6B4A
:1015400042F0010270B59A638EB09A6B064609A903
:10155000514802F0010200240192019A1A6B42F4F0
:1015600080021A631A6B02F480020292029A1A6BCA
:1015700042F004021A631A6B02F004020392039A07
:101580001A6B42F008021A631A6B02F00802049206
:10159000049A1A6B42F010021A631A6B02F01002DE
:1015A0000592059A1A6B42F020021A631A6B02F038
:1015B00020020692069A1A6B42F040021A631A6BD6
:1015C00002F040020792079A1A6B42F080021A63F7
:1015D00001221B6B03F080030893089B0223CDE9D3
:1015E0000A320C930C230D930823099300F0A8FCF6
:1015F0004CF2037309A92948099300F0A1FC4FF6A6
:10160000837309A92648099300F09AFC4FF63F031B
:1016100009A92448099300F093FC48F2331309A95F
:101620002148099300F08CFC282309A91F4809933D
:1016300000F086FC1E4B80224FF400714FF4805066
:101640001D461C64DC62C3E905424FF48062C3E9B5
:1016500007124FF48042C3E909024FF40032C3E994
:101660000C240322C3E90E24124A45F8102F284601
:1016700035639E6400F02AFA284600F0A7F9224656
:101680000F21382000F0ECF8382000F01BF90EB0E4
:1016900070BD00BF0038024000080240000C02404C
:1016A000001002400014024000180240001C0240DA
:1016B000CC0300201064024038B51A4C07211A4BA5
:1016C00004221A4D4FF4006023600223E260C5F843
:1016D0008830C5E91C31C5E91E21C5E92033102237
:1016E00040230021C4E904234FF48073A162C4E9BC
:1016F00006314FF48053C4E908032046C4E90111C0
:10170000FFF71CFF05F170012046094C01F083FB37
:10171000003818BF0120207040F20360FFF7C4FEBC
:10172000207838BD84050020400100A0CC030020B3
:10173000280000200F490020D1F8883043F47003BE
:10174000C1F888300C4B1A6842F001021A609860A8
:101750001A6822F0847222F480321A60074A5A60B2
:101760001A6822F480221A60D8604FF010438B6010
:10177000704700BF00ED00E0003802401030002448
:101780007047000070B50E4E05464FF47A730D4A4F
:101790003078B3FBF0F31068B0FBF3F000F0A0F882
:1017A000044650B90F2D08D8024629464FF0FF30A5
:1017B00000F056F82046756070BD0120FCE700BFC0
:1017C000300000202C00002008B5094B03201A68C7
:1017D00042F400721A601A6842F480721A6000F0D3
:1017E0002DF80F20FFF7CEFFFFF7CAFF002008BD3E
:1017F000003C0240034A044B11681B780B44136001
:10180000704700BFB805002030000020014B186869
:10181000704700BFB805002038B50446FFF7F6FF53
:101820000546631C1EBF044B1B78E418FFF7EEFF50
:10183000431BA342FAD338BD3000002007490302FE
:10184000CA6803F4E06322F4E0621204120C13434A
:1018500043F0BF6343F40033CB60704700ED00E01A
:10186000164B30B5DC68C4F30224C4F10705231D10
:10187000042D28BF0425062B4FF0FF338CBF033CFB
:10188000002403FA05F5002803FA04F321EA050110
:1018900022EA030201FA04F141EA02034FEA0313C8
:1018A000DBB206DB00F1604000F5614080F80033F8
:1018B00030BD00F00F00024A1354F9E700ED00E0DC
:1018C00014ED00E0002808DB4209012300F01F00AE
:1018D00003FA00F0014B43F82200704700E100E0FA
:1018E0000138B0F1807F0AD2064BF021064A5860D9
:1018F000002082F82310072298601A6070470120A8
:10190000704700BF10E000E000ED00E0BFF35F8F24
:10191000044A536A23F4803353620022024B5A6014
:10192000704700BF00ED00E090ED00E0064A40F097
:101930000100064B5860536A43F480335362BFF38F
:101940004F8FBFF36F8F704700ED00E090ED00E028
:101950004378124A10B593600178D9B14368D360D7
:10196000C37A047B1B0643EA04730B43817A43EA80
:10197000C143417B43EA8143817B43EA4143C17BCD
:1019800043EA0143417A43EA0123017A43EA4103EE
:10199000136110BDD1601161FBE700BF90ED00E065
:1019A000036802461820D9B21039B1FBF0F010B527
:1019B000054C5F29205CD06523F47F7020F0030084
:1019C00088BF0430906510BD9093009070B50446B8
:1019D000FFF71CFF0546002C73D00023226884F813
:1019E0003430022384F83530136823F00103136088
:1019F00021680B68D8072FD40B68334DA0691D40B0
:101A0000D4E901231343E268134322691343626953
:101A10001343E26903431343226A1343626A042AAD
:101A200043EA050302BFD4E90B5635432B43042A8E
:101A30000B604B6923F0070343EA020333D1A26A28
:101A4000E56A13437DB390B9012A21D032F0020236
:101A500029D1EA0127D51EE0FFF7D8FE401B052853
:101A6000C6D920230320636584F8350070BDB0F526
:101A7000005F14D1032A16D801A050F822F000BF4D
:101A8000971A0090531A0090971A0090911A00909C
:101A9000B5F1C07F07D1402301206365E4E7022A46
:101AA000F9D9032AD5D04B612046FFF779FFE26DC3
:101AB0003F239340836000200123606584F8353024
:101AC000D4E70120D2E700BF3F8010F038B50546CB
:101AD00020B390F83530022BDCB21DD0036800240F
:101AE0001A6822F001021A6021221C605C609C606E
:101AF000DC601C615A61FFF753FFEA6D3F2393409E
:101B000083606C6585F8344085F83540C5E90F443D
:101B1000C5E91144C5E91344204638BD0124FBE75B
:101B20000023F7B5019308225B4B0446856D1F68BF
:101B3000C36D2E689A4032420CD001680868400795
:101B400008D5086820F004000860AA60626D42F0C1
:101B50000102626501229A40324208D02168496937
:101B6000090604D5AA60626D42F002026265042291
:101B70009A40324208D021680968880704D5AA60D3
:101B8000626D42F00402626510229A40324210D027
:101B90002368196809070CD5AA601A68500337D55D
:101BA0001B68190301D4236C00E0A36C0BB1204621
:101BB0009847E16D20228A4032423AD02368186863
:101BC000C60636D5AA6094F83520052A1A6827D1AA
:101BD00022F016021A605A6922F080025A61226CC1
:101BE0000AB9A26C1AB11A6822F008021A603F23DF
:101BF0008B40AB60002384F83430012384F8353007
:101C0000236D002B45D0204603B0BDE8F0401847B7
:101C10001A68D205C7D41A6822F008021A60C2E70F
:101C2000500327D51B68190331D4636C0BB12046D0
:101C30009847636D6BB3636DDA0719D54FF416538C
:101C40002268B7FBF3F7052384F83530136823F0D7
:101C500001031360019B0133BB42019302D8136857
:101C6000DB07F7D4002384F83430012384F83530BF
:101C7000E36CC6E71A6812F4807208D1196821F083
:101C800010011960012384F8342084F83530E36BA7
:101C9000CCE703B0F0BD00BF2C00002070B5046895
:101CA000049D666C45EA034306F040463343636493
:101CB0004368E263B3F5403F30D186681EB1012E20
:101CC00003D121F07F41A16370BD022E01F47F0397
:101CD00001F47F45C8B207D1DB0CAD0ADB0243EA51
:101CE000451343EAD001EEE7032E01F07F420AD10B
:101CF000DB0CED0A9B02D10F43EA451343EAD00304
:101D000043EAC131DFE7190D2D0B0902130F41EA38
:101D1000051141EA101141EA0331D4E7E160D3E74C
:101D2000704710B5044630B390F8393003F0FF0225
:101D30001BB980F83820FFF7F3FF2268022361689F
:101D4000002084F83930136823F440330B43A16832
:101D50001360536B23F007030B43E1685363136C69
:101D600023F47F5323F03F030B4313640123E06309
:101D700084F8393010BD0120FCE773B590F8385075
:101D80000446012D4FF002050FD080F8395001268E
:101D9000069D80F838600095FFF780FF22680020DC
:101DA00013683343136002B070BD2846FBE700237D
:101DB00073B50193044603680D461B68DB0717D40F
:101DC0002268D369526A13439E0606D5FFF71EFDAB
:101DD000064623685A68D20643D52368122200209B
:101DE0009A60012384F8380084F8393002B070BD5D
:101DF000FFF70CFD064623685A689207E0D45A683C
:101E00000192019A12F0210F17D0019A950603D57D
:101E1000E26B42F00202E263019AD00703D5E26B63
:101E200042F00102E26321229A600423012084F837
:101E30003930002384F83830D8E7691CDCD0FFF74C
:101E4000E5FC801BA84201D8002DD4D1E36B032010
:101E500043F02003E363002384F8390084F838302A
:101E6000C4E75A680192019A12F0290F16D0019A1C
:101E7000160703D5E26B42F00402E263019A95066D
:101E800003D5E26B42F00202E263019AD00703D568
:101E9000E26B42F00102E2632922C5E7691C99D096
:101EA000FFF7B4FC801BA842D0D8002D91D1CDE71C
:101EB000F0B590F83830012B4FF002032BD080F8AA
:101EC0003930012200EB01131C4F80F838200E013D
:101ED0005D6AD3E9074244EA0242093C012C96BFFD
:101EE00005F07F4342EA05621A430368A9B9596ABB
:101EF000012C01EA070142EA01025A6282699A61F1
:101F000003D8426A22F07F429A62012380F8393076
:101F1000002380F838301846F0BDD969012C01EA59
:101F2000070142EA0102DA6100EB060292691A61D6
:101F3000EBD825F07F451D62E7E700BFF0FFFC000E
:101F40002DE9F74F0023DFF8BC816C4ADFF8B89128
:101F500001240D689C4004EA0506AC4340F0B480BF
:101F60004C684FEA430E032524F0100C05FA0EF5D9
:101F70000CF1FF37ED43012F11D8876807EA050AF6
:101F8000CF6807FA0EF747EA0A078760476827EA2B
:101F9000060AC4F300179F4047EA0A074760C7686C
:101FA000BCF1020F07EA050A8F6807FA0EF747EA45
:101FB0000A07C76016D14FEAD30A03F0070B4FF0A8
:101FC0000F0C00EB8A0A4FEA8B0BDAF820700CFA40
:101FD0000BFC27EA0C0C0F6907FA0BF747EA0C0712
:101FE000CAF8207007683D4004F0030707FA0EFEA8
:101FF0004EEA05050560E50066D5D8F8445023F0A3
:10200000030703F0030C4FF00F0E45F4804507F172
:1020100080474FEA8C0CC8F8445007F59C37D8F835
:10202000445005F480450195019D0EFA0CF5D7F852
:1020300008A02AEA050E324DA8424CD005F580656D
:10204000A8424AD005F58065A84248D005F58065CC
:10205000A84246D005F58065A84244D0484544D002
:1020600005F50065A84242D005F58065A84240D03C
:1020700005F58065A8423ED005F58065A8420CBFF5
:1020800009250A2505FA0CF514F4803F45EA0E05EA
:10209000BD606FEA060715680CBF3D40354314F478
:1020A000003F156055680CBF3D40354314F4801F58
:1020B000556095680CBF3D403543A4029560D568D6
:1020C00054BF3D403543D5600133102B7FF440AF02
:1020D00003B0BDE8F08F0025D4E70125D2E7022543
:1020E000D0E70325CEE70425CCE70525CAE706257A
:1020F000C8E70725C6E70825C4E700BF003C014044
:102100000000024000380240001402400AB1816120
:1021100070470904FBE77047044A5169014208B55A
:1021200002D05061FFF7F7FF08BD00BF003C01403F
:10213000D201D1F800C02DE9F043843204684F6821
:102140000CF10106A318E5684FF0000ED1F81890C5
:102150005868C5F30B4500F470403D445860E06892
:10216000C0F30B40304440EA0540CD685860E06859
:10217000C0F30A000544986800F4704098608868CD
:10218000E6680130C6F30A0630440E6940EA0540AD
:102190009860186920F0070018611E619D6991F828
:1021A000320091F83180C3F818E091F8305045EAD8
:1021B000096545EA082545EA00459D61586920F012
:1021C000FF00586148695861D86920F4E06020F048
:1021D0000700D861D1E907500543DD61986A486A74
:1021E000C3F828E098621EB3012E23D0B01E022847
:1021F00022D9072E0CBF02200120DD6AA7EB0C07B5
:1022000005F0E025DD628D6AC96A454378430330F5
:1022100040EA0540D862186B20F4FF6020F0070008
:1022200018631963A35843F00103A350BDE8F0837A
:102230000420E2E70320E0E70220DEE77047000029
:1022400038B50446002863D090F8A13003F0FF02AF
:102250001BB980F8A020FFF7F1FF022384F8A1301A
:1022600023689A6922F070429A619969D4E9012041
:102270000243E06802432069024360690A4325493A
:102280009A619A680A409A609A6842EA0042A06994
:102290000243E0699A60DA680A40DA60DA6842EA82
:1022A0000042206A0243606ADA601A690A401A61D1
:1022B0001A6942EA0042A06A02431A615A6911404F
:1022C0005961E16A5A6942EA0142216B0A435A6143
:1022D000D96A94F8360001F07F4194F83550D962FC
:1022E000D96A94F834200A4342EA052242EA0042BD
:1022F0000020DA625A6B42F006025A639A6942F091
:1023000001029A610123C4F8A40084F8A13038BD09
:102310000120FCE700F800F02DE9F04190F8A03032
:1023200006460F469446012B4FF002001FD034247E
:102330004FF001080D4686F8A10004FB026486F800
:10234000A08038340FCD0FC40FCD0FC40FCD0FC4F4
:102350002B683046624639462360FFF7E9FE336852
:102360000020C3F8248086F8A18086F8A000BDE88C
:10237000F08190F8A1007047194B37B51A6C194CD1
:1023800042F080521A641B6C03F080530193019B4E
:10239000236843F480332360FFF738FA0546636807
:1023A000DA030CD523680F4D43F400332360FFF7A5
:1023B0002DFA04466B689B030AD5002006E0FFF760
:1023C00025FA401BB0F57A7FE9D9032003B030BD70
:1023D000FFF71CFA001BB0F57A7FEBD9F5E700BFD9
:1023E00000380240007000402DE9F341044640B33C
:1023F0000368D80710D42368990764D423681907A1
:1024000000F1AA8023685A0700F1CB80A269002A54
:1024100040F0348100202BE0964B9A6802F00C02C9
:10242000042A07D09A6802F00C02082A0BD15A68D5
:10243000520208D58F4B1B689B03DCD56368002BC9
:10244000D9D1012014E06268B2F5803F13D11A6837
:1024500042F480321A60FFF7D9F9864E0546336898
:102460009F03C8D4FFF7D2F9401B6428F7D9032093
:1024700002B0BDE8F0817F4D2B6892B923F4803320
:102480002B602B6823F480232B60FFF7BFF90646EF
:102490002B689803AFD5FFF7B9F9801B6428F7D9EB
:1024A000E5E7B2F5A02F07D143F480232B602B681A
:1024B00043F480332B60CEE723F480332B602B680A
:1024C00023F48023F6E76B4B9A6812F00C0F07D0C9
:1024D0009A6802F00C02082A11D15A6851020ED4EF
:1024E000644B1A68920702D5E268012AA9D11A68DA
:1024F000216922F0F80242EAC1021A607EE7E2682E
:10250000C2B11A685B4D42F001021A60FFF77EF912
:1025100006462B689F0707D52B68226923F0F8032E
:1025200043EAC2032B6069E7FFF770F9801B0228BA
:10253000EFD99CE71A684F4E22F001021A60FFF7AC
:1025400065F90546336898077FF558AFFFF75EF9E0
:10255000401B0228F6D98AE76369464D83B16B6F49
:1025600043F001036B67FFF751F906466B6F9B075A
:102570003FF548AFFFF74AF9801B0228F6D976E706
:102580006B6F23F001036B67FFF740F906466B6F33
:102590009F077FF537AFFFF739F9801B0228F6D97F
:1025A00065E7344B1A6CD00027D41A6C012742F02F
:1025B00080521A641B6C03F080530193019B2E4DD3
:1025C0002B68D9051BD5A3682A4D012B27D12B6F6A
:1025D00043F001032B6741F28838FFF717F9254EC6
:1025E0000546336F9B073FD5002F3FF40FAF214ABD
:1025F000136C23F08053136408E70027DFE72B6890
:1026000043F480732B60FFF701F906462B68DA0567
:10261000D9D4FFF7FBF8801B6428F7D927E7ABB9BB
:102620002B6F41F2883823F001032B672B6F23F0C7
:1026300004032B67FFF7EAF806462B6F9807D3D5FC
:10264000FFF7E4F8801B4045F7D910E7052B2B6F07
:1026500003D143F004032B67B9E723F001032B6791
:102660002B6F23F00403B5E7FFF7D0F8401B40457C
:10267000B7D9FCE60038024000700040384DAB6826
:1026800003F00C03082B41D02B68022A23F080733F
:102690002B602ED1FFF7BAF806462B68990122D499
:1026A000A36A5B085A1ED4E907310B4343EA02438D
:1026B000626A43EA8213E26A43EA026343F0005328
:1026C0006B602B6843F080732B60FFF79FF8244DFD
:1026D00004462B689A013FF59DAEFFF797F8001B63
:1026E0000228F6D9C3E6FFF791F8801B0228D4D957
:1026F000BDE6FFF78BF804462B689B017FF58AAE99
:10270000FFF784F8001B0228F6D9B0E6012A6B68AF
:102710003FF497AE03F48002E1698A427FF491AE00
:1027200003F03F02216A8A427FF48BAE47F6C07203
:10273000616A1A40B2EB811F7FF483AEA26A03F490
:1027400040315208013AB1EB024F7FF47AAE03F008
:102750007063E26AB3EB026F3FF45CAE71E600BFF8
:1027600000380240134908B58B6803F00C03042BB2
:102770001BD0082B1BD14A684B68496802F03F0206
:1027800013F48003C1F388111ABF0B4800230B48D0
:10279000A1FB0001FEF702FA064B5B68C3F301439D
:1027A00001335B00B0FBF3F008BD0348FCE70348CE
:1027B000FAE700BF0038024040787D010024F400B1
:1027C0002DE9F0410D46044610B90120BDE8F08125
:1027D000464A136803F00F038B4228D322689707F9
:1027E00030D4D00744D4414A136803F00F03AB42FE
:1027F00067D82268510770D4130707D53C4A21696E
:10280000936823F4604343EAC1039360FFF7AAFF90
:10281000374B384A9B68C3F30313D35CD840364B1D
:102820001860364B1868FEF7ADFF0020CEE713683E
:1028300023F00F030B431360136803F00F038B4265
:10284000C3D1CBE712F0040F294B03D0996841F4B0
:10285000E0519960160703D5996841F46041996089
:102860002349A0688B6823F0F00303438B60B8E72B
:1028700061681F4B01291A681BD112F4003FA4D0D4
:102880009A6841F288381A4F22F003020A439A608C
:10289000FEF7BCFF0646BB68626803F00C03B3EBAF
:1028A000820FA0D0FEF7B2FF801B4045F3D9032072
:1028B0008CE7022902D112F0007FE0E712F0020F4C
:1028C000DDE7136823F00F032B431360136803F055
:1028D0000F03AB427FF479AF8BE70549E0688B6863
:1028E00023F4E05303438B6086E700BF003C0240C3
:1028F00000380240789300902C0000203400002023
:1029000003682DE9F74313F0010604460BD0AB4AE8
:10291000916821F400019160466B91683143B6FAE9
:1029200086F67609916013F4002512D0A349E56B71
:10293000D1F88C20B5F5801F22F4401208BF012683
:1029400042EA050216BFB5FA85F500256D09C1F802
:102950008C20D80210D59948216CD0F88C20B1F584
:10296000800F22F4400242EA0102C0F88C2000F0FD
:102970008681002908BF012513F0807F18BF01263A
:10298000990631D58D4B8E4F1A6C42F080521A64E5
:102990001B6C03F080530193019B3B6843F48073ED
:1029A0003B60FEF733FF80463B68DA0540F1698102
:1029B000824F3B6F13F4407340F06E81236B03F43E
:1029C0004072B2F5407F7D4A40F08C81916823F0DF
:1029D000704021F4F81120F4407001439160C3F37A
:1029E0000B03116F0B4313672368D9060CD5734A89
:1029F000D2F88C1021F08071C2F88C10D2F88C10B3
:102A0000A06B0143C2F88C105A0408D56B49606E64
:102A1000D1F8902022F440320243C1F890201F04E4
:102A200008D56649A06ED1F8902022F440220243D6
:102A3000C1F89020D80308D56049E06ED1F8902005
:102A400022F440120243C1F89020990308D55B4953
:102A5000206FD1F8902022F440020243C1F8902068
:102A60005A0608D55549606CD1F8902022F003022F
:102A70000243C1F890201F0608D55049A06CD1F838
:102A8000902022F00C020243C1F89020D80508D50E
:102A90004A49E06CD1F8902022F030020243C1F89C
:102AA0009020990508D54549206DD1F8902022F055
:102AB000C0020243C1F890205A0508D53F49606D15
:102AC000D1F8902022F440720243C1F890201F05F3
:102AD00008D53A49A06DD1F8902022F44062024313
:102AE000C1F89020D80408D53449E06DD1F8902081
:102AF00022F440520243C1F89020990408D52F498E
:102B0000206ED1F8902022F440420243C1F8902078
:102B10005A0208D52949A06FD1F8902022F080628E
:102B20000243C1F890209F020CD52448E16FD0F8F1
:102B30009020B1F1006F22F0006208BF01250A4326
:102B4000C0F8902013F0080F18BF0125580308D5CE
:102B50001A49606FD1F8902022F040720243C1F808
:102B60009020190209D51549D4F88000D1F8902099
:102B700022F080520243C1F89020012E00F0B6806E
:102B8000B3F1007F00F0B280012D76D10B4D2B68A0
:102B90002E4623F080532B60FEF738FE07462B6845
:102BA0009B0000F127812268150301D5E36B4BB12F
:102BB000D00222D5236C03BB04E000BF00380240E2
:102BC00000700040D6F88830D6F8881003F44033FF
:102BD00001F0E0410B43616943EA8113A16943EAD3
:102BE0000163C6F88830D6F88C30A16A23F4F85314
:102BF000013943EA0123C6F88C30910215D5E36F01
:102C0000B3F1006F11D18249D1F88830D1F8880032
:102C100003F0706300F0E0400343606943EA80130F
:102C2000206A43EA0043C1F88830120719D5784A70
:102C3000D2F88810D2F8883001F0706103F4403384
:102C40000B43616943EA8113E16943EA0173C2F806
:102C50008830D2F88C30E16A23F440330B43C2F859
:102C60008C306B4C236843F080532360FEF7CEFD1D
:102C7000054623689B0040F1C480002009E001263E
:102C80007AE6FEF7C3FDA0EB080064287FF68CAE61
:102C9000032003B0BDE8F083226B02F4407293423C
:102CA0003FF48CAE3B6F3A6F23F4407342F48032B2
:102CB0003A673A6F22F480323A673B673B6FDB0733
:102CC0007FF57CAEFEF7A2FD41F2883980463B6F6E
:102CD00098073FF573AEFEF799FDA0EB0800484555
:102CE000F5D9D5E7916821F4F81177E6484E3368B5
:102CF00023F080633360FEF789FD074633681A01CD
:102D000072D42268D30712D5636B83B9D6F88430A6
:102D1000D6F8841003F4403301F070610B4361680E
:102D200043EA8113A16843EA0173C6F884301703AC
:102D300003D5E36BB3F5801F05D0D6021ED5236CF7
:102D4000B3F5800F1AD13249D1F88430D1F884001C
:102D500003F4403300F0E0400343606843EA80132B
:102D6000E06843EA0063C1F88430D1F88C00636AFC
:102D700020F01F00013B0343C1F88C30D00111D576
:102D80002349D1F88430D1F8840003F0706300F057
:102D9000E0400343606843EA8013206943EA00434C
:102DA000C1F8843091010DD5236962681B0443EAA0
:102DB0008213E26843EA0263A26843EA0273144A98
:102DC000C2F88430124E336843F080633360FEF7FC
:102DD0001DFD074633681A013FF5D6AEFEF716FD16
:102DE000C01B6428F6D953E7FEF710FDC01B64280A
:102DF00084D94DE7FEF70AFDC01B64287FF6CFAEED
:102E000046E7FEF703FD401B64287FF632AF3FE73D
:102E100000380240704738B50D460446C8B190F8F6
:102E20002C3003F0FF021BB980F82D20FFF7F2FFD2
:102E30000223211D206884F82C3000F0CFF862684E
:102E40002946206800F000F90123002084F82C3086
:102E500038BD0120FCE738B590F82C3004460D460B
:102E6000022BD8B20DD00223206884F82C3000F059
:102E70002EF92B680020022B0CBF0523012384F8B8
:102E80002C3038BD10B590F82C300446022BD8B247
:102E900009D00223206884F82C3000F02BF901239C
:102EA000002084F82C3010BD704700000223026817
:102EB00080F83D30084B91680B40062B06D0B3F5E7
:102EC000803F03D0136843F001031360012380F8AF
:102ED0003D300020704700BF07000100304A036802
:102EE000904212D0B0F1804F0FD0A2F57C429042B8
:102EF0000BD002F58062904207D002F580629042CA
:102F000003D002F57842904219D14A6823F0700349
:102F10001343234A904229D0B0F1804F26D0A2F526
:102F20007C42904222D002F5806290421ED002F58F
:102F3000806290421AD002F57842904216D0194A27
:102F4000904213D002F5806290420FD002F5806269
:102F500090420BD0A2F59832904207D002F58062E1
:102F6000904203D002F58062904203D123F4407373
:102F7000CA6813434A6923F08003134303608B68D4
:102F8000C3620B688362064B984203D003F58063EB
:102F9000984201D10B69036301234361704700BF6D
:102FA000000001400040014010B50446A0B190F877
:102FB0003D3003F0FF021BB980F83C20FFF774FF9F
:102FC00002232068211D84F83D30FFF787FF01238D
:102FD000002084F83D3010BD0120FCE72DE9F041D0
:102FE0004A6AD1E90743D1E90158D1E903ECD1E9B3
:102FF0000576096823430468012912490FD01A4352
:1030000021402A4342EA080343EA0E0343EA0C0341
:103010003B4333430B4303600020BDE8F08113437F
:10302000426824F4F844114045EA0802234342EA86
:103030000E02036042EA0C023A4332430A43426002
:10304000EAE700BF0080FFFFCB68012AF0B50C68FB
:1030500003F1FF374B698E6804F1FF3C0D6903F102
:10306000FF334C6806F1FF3689694FEA035304F1D8
:10307000FF3405F1FF3501F1FF314FEA06264FEA33
:1030800004144FEA05454FEA016143EA07330CD0C7
:1030900043EA0C038268234302F0704233432B431C
:1030A0000B43134383600020F0BD8768344327F44B
:1030B000700744EA0C0227F470472A433B43C76871
:1030C0000A4307F0704783603A43C260EBE7D1E9F7
:1030D000003213B51343CA68002443EA42238A68C6
:1030E0000194013A43EA42130193019B0361204694
:1030F00002B010BD436943EA4101416100207047BD
:10310000DFF834D0002103E00C4B5B58435004310E
:103110000B480C4B42189A42F6D30B4A02E00023AC
:1031200042F8043B094B9A42F9D3FEF703FB01F046
:10313000B1FA00F04FF8704700000520CC990090DC
:1031400000000020A8000020A800002074420020F9
:10315000FEE770B50E4614460025A54201DB204669
:1031600070BDAFF3008070550135F6E770B50E46BF
:1031700014460025A54201DB204670BD705D013577
:1031800000F0FAF9F6E7000008B50A4B02461968A4
:1031900009B9094919601868694602448A4206D982
:1031A00001F072FA0C2303604FF0FF3008BD1A6083
:1031B000FCE700BFB8040020784200204FF0FF3049
:1031C00070474FF4005300204B6070470120704758
:1031D0000020704700B595B00126FEF7F5FA4FF4D0
:1031E000803302241921002508A812940B95CDE9FB
:1031F00008634FF48003CDE90E434FF4C873CDE963
:10320000101308231393FFF7EFF8FFF7B5F80F2318
:103210004FF4A05006210595CDE903344FF48053B7
:10322000CDE9060303A8FFF7CBFA054600B1FEE798
:10323000FEF76CFB4FF04042564B08A8ADF82060FB
:10324000554CCDE90923554B0B93FEF781FB042028
:10325000FEF76CFB4FF080432046236003F50E33EE
:103260001A6C42F001021A641B6C656003F00103E2
:103270002561A5600893089B4FF0FF336561E3600B
:10328000FFF792FE054600B1FEE72046FFF70EFE6F
:10329000BFF34F8FBFF36F8F414BC3F85052BFF353
:1032A0004F8FBFF36F8F5A6942F400325A61BFF3F8
:1032B0004F8FBFF36F8FC3F88450BFF34F8FD3F896
:1032C000802043F6E074C2F3C900C2F34E325201CB
:1032D00002EA0406014646EA81750139C3F86052E4
:1032E000F9D2203A12F1200FF2D1BFF34F8F5A6971
:1032F00042F480325A61BFF34F8FBFF36F8F294C76
:10330000274D236843F400732360FFF72BFA264B05
:10331000B0FBF3F0254B01381861FEF76DF84FF064
:1033200040410020FDF7FEFD0020FDF733FEFDF7D4
:1033300095FF00F09FF81E4800F0A6F81D491E48B2
:1033400001F0D4F9216823681C4801F00F0113F43F
:10335000007F1B4C6B6914BF024622466D6913F453
:10336000803F14BF0346234615F4003F08BF2046A4
:103370000090144801F0BAF9FFF7F4F90146124839
:1033800001F0B4F9114801F0B1F900F09BFBFDF731
:103390004BFFFEE70F000103BC0500200000010108
:1033A00000ED00E0003C024080841E00000004E0CC
:1033B000009400903800002013940090F89300903F
:1033C000FC9300902D940090599400906C94009080
:1033D0007047FEE7FEE7FEE7FEE77047704770477D
:1033E000FEF708BA4FF40060FEF796BE0420FEF721
:1033F00093BE0000014B186FFEF792BB48010020FE
:10340000014B186BFEF78CBB84050020FEE7000023
:103410000C4B01210C4A1A6000230C4A13800C4A01
:1034200013800C4A13800C4A13800C4A13800C4AF8
:1034300011700C4A13700C4A13700C4A13700C4A2A
:103440001380704760420020800000FF02060020C9
:103450000806002000060020FE050020FC050020D4
:10346000040600200A0600200506002006060020AB
:103470006442002008B5FFF7CBFF4FF0FF30BDE8F6
:103480000840FDF7B5BD000070B5164C0546164E58
:103490002046FDF799FD3046FDF782FDFDF736FD2C
:1034A000E388002182B203EB430308469BB2FDF799
:1034B00097FE4FF0FF30FDF773FD3046FDF77AFDC4
:1034C0002A46E18801230020FDF71EFE4FF0FF3061
:1034D000FDF770FD0548FDF763FD0548BDE8704048
:1034E000FDF772BD18000020FF0000FF800000FF04
:1034F000100000202DE9F8431C4D1D4A2B8812882E
:103500000F2B1C4F11D8934211D3842404FB037357
:10351000D3F88000FDF744FD2988081D04FB0171E4
:1035200080B2BDE8F843FDF747BE934201D2753340
:103530009BB2103B00264FF075084FF084099CB2F7
:10354000A119B1FBF8F508FB151509FB0575D5F8B0
:103550008000FDF725FD301D0136294680B2FDF7BC
:103560002BFE112EECD1BDE8F88300BF0006002031
:10357000080600200C0600202DE9F84F0546FDF74F
:103580002DFD3D4B80461B7843BB3C4A3C4C11789B
:1035900001290BD13B49137009883B4A21803B49E3
:1035A000137008883A4A3B49138008803A4FDFF885
:1035B000F4903E88FDF7AAFCB8F80430B0FBF3F0B5
:1035C00086423E460DD20A2D0BD03A882388511CE4
:1035D0003980842101FB039909F802502846BDE88F
:1035E000F88F2C4F22883B889A4209D82B4A1178B1
:1035F000002934D101339BB2752B14BF3B80398035
:10360000B6F800A04FF0840BFDF780FCB8F804205A
:103610002023B0FBF2F0504524D8238884224FF0B9
:10362000000802FB03931E4AA6F800801268C3F844
:103630008020FFF75FFF238801339BB2752B05BF06
:103640000123164A2380A4F8008004BF3B80137036
:103650000A2DC3D032882388511C3180B9E700235A
:103660001370CDE731880AF1010A2288481C0BFB50
:10367000029230805354C7E7050600200A06002056
:1036800000060020FC05002006060020FE050020A4
:1036900064420020080600200206002004060020E4
:1036A000604200200C0600207AB9B0F9003023F007
:1036B000FF02C3F3072313430380B1F9003023F063
:1036C000FF02C3F3072313430B80B0F90200B1F9E3
:1036D0000230C01A7047F7B5B0F9005007460C46E3
:1036E0002B0603D505F07F0003B0F0BDC5F3C30181
:1036F00015F00703228F41EA011110D0012B21D0D0
:103700002E46218FB0B200F0A3FF25F0FF052087E1
:1037100006F07F00054345F080053D80E4E722295F
:10372000B4F902300192B8BF2221B4F9002000910F
:10373000D4E9051000F0EAFEE38F06B2002BE0D1D9
:10374000E087DEE704F1280000F0DDFDA38F06B27C
:10375000002BD6D1A087D4E737B50D46114601928C
:10376000FFF7B9FF044601992846FFF7B4FF201A76
:1037700003B030BDF0B504461068059D00F10806A1
:10378000AE4215D21D68069F05F1040C67450FD99E
:10379000166022680260206045601A6804321A6070
:1037A000B1F9002043681A80B1F902205A80F0BDB7
:1037B0000020FCE7D0E90032596841605A601A687D
:1037C0000260002218461A607047B1F90230002BDF
:1037D0000ADA78B143681A78B1F900309A4200D118
:1037E00070470068F5E7006820B14268B2F902202E
:1037F0009A42F8D17047002308B91846704702680A
:10380000036003461046F7E72DE9F74F0B460746DE
:103810004FF0010A4FF000093D46CB464F463DB9F7
:10382000B9F1010FCBF8005032DD4FEA4A0AF1E757
:1038300009F101092C460026246801363CB9D0461E
:1038400046B9B8F1000F00D0DCB92546E7E7B2452C
:10385000F2D1F4E7B8F1000F00D04CB92946013E8F
:103860002D68BBF1000F11D0CBF800108B46E7E7B5
:10387000019200936168686898470028DDE900328A
:10388000ECDD214608F1FF382468EAE70F46EDE752
:10389000384603B0BDE8F08F2DE9F04F002785B022
:1038A00081468A46446A3E46B0F90420BB463D46FE
:1038B000ADF80E103BB29A422EDCC6EB8B06BAF185
:1038C000000F3544ADB205DD20464A463A49FFF7C0
:1038D0009BFF04462068FFF76DFF03A907462046BB
:1038E000FFF773FF064600B92668002E51D1236802
:1038F00020467A68596879605A601A682F493A6098
:1039000032461F60FFF780FF04460668002E49D14B
:10391000284605B0BDE8F08FDBB203A9204601922E
:10392000ADF80C30FFF751FF80462046FFF763FFEC
:10393000019A0446B8F1000F12D1036801365B68A2
:10394000B6B293F9013003F001031D44ADB2BDF9E5
:103950000E300137002BA4BF0133ADF80E30A9E7BC
:10396000D8F804300BF1010BB3F900301FFA8BFBD0
:10397000D907D8F8001042BFC3F34023ED18ADB209
:103980000029E4D00B68C8F8003003680B600160C0
:10399000DDE763682946B3F9000000F06FFE366882
:1039A0000546A2E763682946B3F9000000F066FE09
:1039B00036680546AAE700BF59370090A93600903F
:1039C0002DE9F0431425002648F2800387B00C4609
:1039D000904603AAB0FBF5F0851E204601EBC50713
:1039E000C1E900677E8007EB850921F8353001F1D8
:1039F000080305A903933B1D04936FF00043CDE931
:103A00000079059304ABFFF7B5FEAE420DD3052058
:103A100023680121B5FBF0F51A68EAB91849204678
:103A2000FFF7F2FE07B0BDE8F083B2B205A9204669
:103A3000013682EA080302F00702DB0003F0780394
:103A4000134303AA43EA0323CDE90079ADF8143008
:103A500004ABFFF78FFED8E78D425E6803D9718013
:103A600001311346D8E788B2431C80EA08001B02E4
:103A700003F4E0630343C3F30D037380F0E700BF77
:103A8000A936009070B500250446C669C0E90E55F8
:103A9000B54201D1002070BD01212046FFF7FCFE98
:103AA000218F00F0D5FD4FF0FF3120872046FFF732
:103AB000F3FE218F00F0CCFD208705B9608701352A
:103AC000E6E700002DE9F04FADF62C0D0A46039015
:103AD00003A90DF1560000F049FC012000F080FD23
:103AE000ADF81400022000F07BFDADF816000320B5
:103AF00000F076FDADF81800042000F071FD0C9088
:103B0000052000F06DFD002800F05E810D90059B02
:103B10002BB9BDF918306BB96623ADF81830059B89
:103B2000012B07D1BDF9183023B9BD4B059366238E
:103B3000ADF818300D9A002316AC02F0010591077C
:103B4000ADF854302846079448BF0130530701D5DB
:103B5000013080B24FF4FA630126B3FBF0F000238A
:103B60000B90194606FA03F7174208D000FB014CE8
:103B700005AF013107EB830789B2C7F80CC00133E9
:103B8000032BEFD12DB1BDF914200899FFF718FFD1
:103B90000E900D9B9D070AD5BDF916100FABBDF910
:103BA00014200B9842EA0142099900F031FA0D9B6A
:103BB0005C0705D50A9ABDF914100B9800F0DCFBE0
:103BC0000C9B63BB01230A264FF00008DFF8B49278
:103BD0000C930C9B73430C9300F0A4FB05A8FFF718
:103BE00051FF00F0A7FB00F0ADFB00F0B3FB424635
:103BF0004B4610EE100A55EC104B2946FCF786FF99
:103C00000028E6D120462946FCF7A8FF01280C9B96
:103C100038BF0120B6FBF0F000FB03330C9300F03B
:103C200081FB05A8FFF72EFF7E4E00F083FB00F01E
:103C300089FB00210546BDF9140000F01FFD014677
:103C4000BDF9160000F01AFD0146BDF9180000F09C
:103C500015FD0146BDF92C0000F010FD47F60533B7
:103C60000746984200F0CD8000F2B18041F6F203A1
:103C7000984200F0D08044F6AF63984200F0C680CE
:103C80004FF0FF34A14600F0FCFC0B9981446648DC
:103C900000F02CFD294665481FFA89FA00F026FD40
:103CA000284600F057FB624853EC102B00F01EFD35
:103CB000284600F04FFB0022002351EC100BFCF7CC
:103CC00043FFA0B10C9B30685843FCF733FC80469F
:103CD0008946284600F03EFB4046494653EC102BEF
:103CE000FCF7CCFD02460B46524800F0FFFC28468C
:103CF00000F030FB0022504B51EC100BFCF706FF9C
:103D0000002840F020810FFA8AF90C9B31684B485B
:103D1000594300F0EBFC4A494A4800F0E7FC4A49A5
:103D20004A4800F0E3FC4A494A4800F0DFFC3946C3
:103D3000494800F0DBFC0D9BDB0700F11A810D9B6D
:103D40009F0700F12A810D9B580700F13A8100215D
:103D50004FF04408DFF830A14F1C336889B28B4222
:103D600000F23581B9F1000F40F03A813B4800F094
:103D700043FD032C1FD10C9B30685843FCF7DAFB42
:103D800006460F46284600F0E5FA3046394653EC21
:103D9000102BFCF773FD0B462B490246304801916E
:103DA0002749009100F0A2FC29492E4800F09EFC12
:103DB0002D4800F021FD0DF1560000F0DAFA002048
:103DC0000DF62C0DBDE8F08F07230D939FE648F606
:103DD0000223984209D04EF6F51398427FF450AF73
:103DE0002248032400F008FD03E00024204800F0EE
:103DF00003FD204B4FF0000A03EB4403D14602932E
:103E00009BE01D48012400F0F7FCF2E71B48022468
:103E100000F0F2FCEDE71A48042400F0EDFCE8E7BE
:103E20001534153438000020F39500900C9600905E
:103E3000259600903D9600900000244093960090B7
:103E4000AC960090C8960090E0960090ED96009099
:103E5000059700900B97009023970090B3970090E0
:103E6000FD970090179800907B9400900795009024
:103E70007D94009098930090AA940090D69400901E
:103E8000349500900000F03F9697009005AB4FF0FE
:103E9000440808FB0B380023A8F84030D8F820303D
:103EA000D8070FD5504BB8F83A2033F814309A425F
:103EB00008D059464D4800F019FCB8F8403001339D
:103EC000A8F8403005AB4FF0440808FB0B38D8F891
:103ED000203099070ED5029BB8F83C205B899A42A6
:103EE00008D05946424800F001FCB8F84030013390
:103EF000A8F8403005AB4FF0440808FB0B38D8F861
:103F000020305A070ED5029BB8F83E209B8A9A4271
:103F100008D05946374800F0E9FBB8F84030013383
:103F2000A8F84030442305AA0AF1010A03FB0B213B
:103F3000B1F8400081440FFA89F91FFA8AFB33680F
:103F40009B45A3D39FE60AF101092B4800F054FCDE
:103F50000FFA89F9D9E605AB504608FB01335A8FB1
:103F600000F0C4FB39464F1C336889B28B42F2D84B
:103F7000E5E600214FF04408DFF888A0F3E705AB41
:103F8000504608FB01339A8F00F0B0FB39464F1CB6
:103F9000336889B28B42F2D8D5E600214FF044084D
:103FA000DFF864A0F3E705AB504608FB0133DA8F76
:103FB00000F09CFB39464F1C336889B28B42F2D823
:103FC000C5E600214FF04408DFF840A0F3E705AB59
:103FD000504608FB01331A8F00F088FB3946BBE6D8
:103FE000CCBF06480648E4E69893009060950090A0
:103FF00090950090C2950090559600901D98009065
:104000002E9800903F9700905C97009079970090D1
:104010002DE9F04F002A4FF0000508BF01222C4681
:10402000854218D30139601E0027C4F1010921F02F
:10403000030500FB00F1BC4605F1040E4FEA410800
:1040400002350EEB41016D1A844509EB040A21D2B9
:1040500001EB470B17E0013404FB04F5ED00DFE74B
:104060000AFB02F2564292B2B6B258BF724212FA3C
:104070008AF6B6B22BF8026B16FA8AF60AF1010A32
:10408000F6B225F80B60A245EAD10CF1010C04440C
:104090000744D9E7C3E901E141441860013921F03F
:1040A00003010431D960BDE8F08F2DE9F047002409
:1040B00005464FEA800901EB800EA4462046A24641
:1040C0002646AC4518D001EB840709E057F8048B6D
:1040D00083B24644B2420ADA0A33002618B2C24614
:1040E0007745F3D10CF1010CCE442C44E9E7C245ED
:1040F000B8BF013318B2F2E7BDE8F0872DE9F0410F
:1041000000244FEA400802EB40072646864210D0C2
:1041100002EB440501EB840E05E035F902CB0CFB04
:1041200003FC4EF804CBBD42F7D1013647440444AA
:10413000ECE7BDE8F081F0B500244FEA400C01EB5C
:104140004006254685420DD001EB440304E0B3F957
:104150000070174423F8027BB342F8D1013566445E
:104160000444EFE7F0BD2DE9F04301EB800C00249F
:1041700003EB400E614501D1BDE8F08302EB44073B
:104180001E46002536F9028B37F9029BB64509FB1E
:104190000855F7D1044441F8045BEBE72DE9F74FEC
:1041A000019300238B46460002EB400C1D468542DE
:1041B00020D00BEB8304002109E00027964644F849
:1041C000047B019F07EB4108E64507D1013181429D
:1041D000F3D101353244B4440344E8E7B8F800A011
:1041E000B0443EF9029B54F8047C19FB0A7744F86A
:1041F000047CE9E703B0BDE8F08F2DE9F74F0191AA
:1042000000219B464FEA400C02EB400E0E468642D0
:1042100027D0019B002403EB810508E000230BEB72
:104220004409904645F8043BF04507D101348442E7
:10423000F4D101366244E6440144E8E7B9F800A04D
:10424000E14438F9023B1AFB03F3C3F3830AC3F3D7
:1042500046131F4655F8043C07FB0A3345F8043C57
:10426000E2E703B0BDE8F08F2DE9F047BDF920701B
:1042700016460D4604466FEA07583A4631469946B7
:104280006FEA1858FFF757FF3B4629463246FFF7BB
:1042900035FF4246FFF709FF002100F0EFF94B46DA
:1042A0008246324629462046FFF75DFF42462946B0
:1042B000FFF7FBFE514600F0E1F94B4682463246DD
:1042C00029462046FFF76AFF42462946FFF7EDFEE2
:1042D000514600F0D3F94B468246324629462046E5
:1042E000FFF78BFF42462946FFF7DFFE514600F0FD
:1042F000C5F97A4205463146204612B2FFF71BFF48
:1043000028B2BDE8F08713B514460091C168D0E922
:1043100001230068FFF7A8FF214602B0BDE8104066
:1043200000F0ACB908B5FDF771FA014B186008BD93
:10433000C004002008B5FDF769FA014B586008BDBC
:10434000C0040020024BD3E90030C01A704700BF00
:10435000C004002008B5FCF7EDF80022024BFCF782
:104360008DFA41EC100B08BD00408F400123037013
:104370007047002303707047002301314FF02C0C6D
:1043800089B22DE9F043471E1D461C461C4E04EB26
:10439000050808F1010EBE4504D3002384422BD347
:1043A000BDE8F08355B114441D4413F8019B9D42B0
:1043B00004F8019BF9D1744602F808C001F0070522
:1043C000C1F3C103072D13D0042D0DD8033D012DDA
:1043D00005D956F823300425013189B2D7E706EB19
:1043E00083031B690825F7E706EB83031B6AF9E7DC
:1043F00006EB83031B6BF5E713550134CEE700BFD3
:10440000B893009030B50446056800202B782A4602
:10441000013523B1012802D02C2B02D12A4622607B
:1044200030BD0728F2D801A252F820F04D44009088
:104430000D4400907D440090DB440090A144009026
:10444000BB440090EF440090FF440090A3F1300281
:10445000092A0DD92B2B0DD02D2B0BD02E2B0BD0A9
:104460004B68012001334B600B6801330B60CDE7D3
:104470000420F9E70220F7E70520F5E7A3F1300073
:104480008A68092802F1010204D92E2B05D18A601D
:104490000520BBE704208A60B8E78A600120B5E701
:1044A0002E2B03D10B6901330B61F1E7303B092B54
:1044B000ACD90B6901330B61F0E703F0DF02452A49
:1044C00004D14B69032001334B619FE7303B092B3B
:1044D0009CD94B6901334B61E0E7CA682B2B02F191
:1044E0000102CA6001D02D2BD8D106208EE78A693F
:1044F000303B0132092B8A61D0D8072086E7303B58
:10450000092B83D94B6801334B60C7E72DE9F04F86
:1045100093B09346994600230AAA0DF10808054670
:104520000C4601911746BDF970A04146BDF8746074
:104530001846013342F8040B41F8040B082BF8D15C
:10454000019B1B78F3B925440194019A954226D822
:104550000194019B1B7863BB0194019B9D4235D85C
:104560000024314658F8040B00F07DF8014657F856
:104570002400013400F077F80646082CF1D113B07E
:10458000BDE8F08F394601A8FFF73CFF12AB03EB03
:10459000800050F8403C013340F8403CD0E71378AD
:1045A0002C2B1CBF83EA0B031370019B5344019314
:1045B000CBE7394601A8FFF725FF12AB03EB8000DC
:1045C00050F8403C013340F8403CC2E71A782C2AAE
:1045D0001CBF82EA09021A70019B53440193BCE795
:1045E000013804280FD8DFE800F00306080A0C00A1
:1045F000064B18687047064BFBE7064BF9E7064B7E
:10460000F7E7064BF5E70020704700BFD004002015
:10461000CC040020400000203C000020C804002002
:1046200030B5082244F20204084D81EA0003400834
:1046300013F0010318BF614049080BB1294389B247
:10464000531E13F0FF02F0D1084630BD0080FFFF7B
:1046500010B50446C0B2FFF7E3FF0146200ABDE8EB
:104660001040FFF7DDBF10B5044680B2FFF7F0FF42
:104670000146200CBDE81040FFF7EABF80B2FFF70B
:10468000E7BF002070470000014B1868704700BF6B
:104690004400002070B50D4D0D4C641BA410002685
:1046A000A64209D10B4D0C4C00F0ECFF641BA4108A
:1046B0000026A64205D170BD55F8043B9847013647
:1046C000EEE755F8043B98470136F2E7C4990090AD
:1046D000C4990090C4990090C89900900244034680
:1046E000934200D1704703F8011BF9E70FB40A4B5E
:1046F00013B51C6824B1A36913B9204600F05EFA13
:1047000005AB049AA1680193204600F02FFC02B08B
:10471000BDE8104004B070474400002070B50E465C
:10472000054618B183690BB900F048FAAB69AC686B
:1047300013B9284600F042FA2C4B9C4220D16C68F9
:10474000636EDB0705D4A389980502D4A06D00F041
:10475000D3FAA38919071DD52369DBB1013EA368EC
:1047600016F8011F013BA36039BB002B38DA224643
:104770000A21284600F048F8013011D00A2511E03E
:104780001B4B9C4201D1AC68DAE71A4B9C4208BF34
:10479000EC68D5E72146284600F088F80028DDD0EF
:1047A0004FF0FF35636EDA0705D4A3899B0502D469
:1047B000A06D00F0A2FA284670BD002B04DAA269B1
:1047C0009A4206DC0A2904D023685A1C2260197018
:1047D000C5E72246284600F017F80130BFD1DFE7D1
:1047E00023680A255A1C22601D70DBE74899009057
:1047F0006899009028990090024B01461868FFF7CD
:104800008DBF00BF44000020F8B50E461446054693
:1048100018B183690BB900F0D1F9214B9C422BD11F
:104820006C68A369A360A3891A072FD523696BB3AA
:1048300023692068C01A6369F6B28342374604DCF4
:104840002146284600F026F930BBA368013BA3604F
:1048500023685A1C22601E7063690130834204D0B1
:10486000A389DB0706D50A2E04D12146284600F08D
:1048700011F988B93846F8BD0A4B9C4201D1AC68A1
:10488000CFE7094B9C4208BFEC68CAE7214628469F
:1048900000F00CF80028CBD04FF0FF37EAE700BF5C
:1048A000489900906899009028990090324B70B513
:1048B0001D6806460C4625B1AB6913B9284600F0C1
:1048C0007DF92E4B9C420FD16C68A389B4F90C2062
:1048D00019072CD4DD0611D40923336042F04003BC
:1048E000A3814FF0FF303EE0254B9C4201D1AC68E4
:1048F000EBE7244B9C4208BFEC68E6E7580712D56B
:10490000616B41B104F14403994202D0304600F09A
:1049100059FA00236363A38923F02403A3810023AE
:10492000636023692360A38943F00803A38123699B
:104930004BB9A38903F42073B3F5007F03D021465C
:10494000304600F0FFF9A089B4F90C2010F0010303
:104950000AD00023A36063695B42A361236943B962
:1049600010F08000BAD170BD810758BF6369A360A1
:10497000F4E70020F7E700BF4400002048990090CA
:1049800068990090289900908A892DE9F0410546A0
:1049900010070C4658D44B68002B05DC0B6C002B21
:1049A00002DC0020BDE8F081E66A002EF9D0002389
:1049B00012F480522F682B6032D0606DA3895A07A1
:1049C00005D56368C01A636B0BB1236CC01A002352
:1049D0000246E66A216A2846B047431CA38906D1ED
:1049E00029681D292CD82A4ACA40D60728D5002272
:1049F0006260D9042269226004D5421C01D12B686F
:104A000003B96065616B2F600029CAD004F14403CB
:104A1000994202D0284600F0D5F900206063C1E732
:104A2000216A01232846B047411CC7D12B68002BBF
:104A3000C4D01D2B01D0162B01D12F60B1E7A38963
:104A400043F04003A381ADE70F69002FA9D093077E
:104A50000E6808BF4B690F6018BF0023A6EB07085C
:104A60008B60B8F1000F9CDD216AA66A43463A4686
:104A70002846B047002806DCA38943F04003A38101
:104A80004FF0FF308EE70744A8EB0008E9E700BFCE
:104A90000100402038B50B6905460C4613B90025C6
:104AA000284638BD18B183690BB900F087F8144B5C
:104AB0009C421BD16C68B4F90C30002BEFD0626EB5
:104AC000D00704D4990502D4A06D00F015F928464A
:104AD0002146FFF759FF636EDA070546E0D4A38944
:104AE0009B05DDD4A06D00F008F9D9E7054B9C4289
:104AF00001D1AC68DFE7044B9C4208BFEC68DAE701
:104B0000489900906899009028990090002310B56A
:104B10000446C0E90033C0E9043383608181436601
:104B2000C2818361194608225C30FFF7D7FD054B2F
:104B30006362054BA362054BE362054B246223636A
:104B400010BD00BF15550090375500906F5500906F
:104B500093550090014900F0AFB800BF954A00900E
:104B600070B54A1E682555430E4605F1740100F0E4
:104B700079F9044640B10021C0E900160C30A0606C
:104B800005F16802FFF7AAFD204670BD014800F05C
:104B9000B3B800BF6E420020014800F0AEB800BFBD
:104BA0006E420020014800F0A7B800BF6942002013
:104BB000014800F0A2B800BF6942002010B50446C9
:104BC000FFF7F0FFA3691BB1BDE81040FFF7F0BF8E
:104BD000C4E912332365134B134A1B68A262A34234
:104BE00004BF0123A361204600F020F86060204646
:104BF00000F01CF8A060204600F018F80022E060E9
:104C000004216068FFF782FFA06801220921FFF7F5
:104C10007DFFE06802221221FFF778FF0123A361E4
:104C2000D2E700BF24990090554B0090F8B5074695
:104C3000FFF7ACFF1E4B1E68B36913B93046FFF790
:104C4000BDFF4836D6E90134013B03D533680BB3C9
:104C50003668F7E7B4F90C50D5B9164BE36004F1A8
:104C60005800656600F047F8FFF796FFC4E9015564
:104C7000C4E904552560A5610822294604F15C00B9
:104C8000FFF72CFDC4E90D55C4E912552046F8BDC7
:104C90006834D9E704213846FFF762FF04463060E4
:104CA0000028D5D1FFF778FF0C233B60EEE700BF6B
:104CB000249900900100FFFF2DE9F843064688463D
:104CC00000F148040027D4E90195B9F1010905D59F
:104CD0002468002CF7D13846BDE8F883AB89012B56
:104CE00007D9B5F90E30013303D029463046C04705
:104CF00007436835E9E770477047704770B50E465F
:104D0000B1F90E10002996B014461D4607DA0023AB
:104D10002B60B3891A0610D44FF480630EE06A4604
:104D200000F05EFC0028F2DB019A02F47042A2F56A
:104D300000535A425A412A60EEE740230020236084
:104D400016B070BD8B8973B59D0706460C4607D516
:104D500004F14703236023610123636102B070BD46
:104D600001AB6A46FFF7CAFF00990546304600F0DE
:104D700079F848B9B4F90C309A05EFD423F003035D
:104D800043F00203A381E3E70D4BB362A3892060E4
:104D900043F08003A381009B6361019B20615BB1B1
:104DA000B4F90E10304600F02DFC28B1A38923F091
:104DB000030343F00103A381A0890543A581CDE747
:104DC000554B009037B5002948D051F8043C01906C
:104DD000002BA1F10404B8BFE41800F035FC204A10
:104DE00001981368154633B96360146003B0BDE8D9
:104DF000304000F02FBCA3420BD9216862189342C7
:104E000004BF1A685B68636004BF521822602C609C
:104E1000ECE71A465B680BB1A342FAD91168551842
:104E2000A5420BD1246821445418A3421160DDD15E
:104E30001C685B68536021441160D7E702D90C23DA
:104E40000360D3E7256861198B4204BF19685B686A
:104E5000636004BF491921605460C7E703B030BDE7
:104E6000D4040020F8B5CD1C25F0030508350C2D21
:104E700038BF0C25002D064601DBA94203D90C23BF
:104E800033600020F8BD00F0DFFB21490A681446BA
:104E90009CB9204F3B6823B92146304600F02AFBDD
:104EA00038602946304600F025FB431C23D10C23F3
:104EB0003360304600F0CEFBE3E723685B1B17D47A
:104EC0000B2B03D923601C44256004E06368A242D5
:104ED0000CBF0B605360304600F0BCFB04F10B00CC
:104EE000231D20F00700C21ACCD01B1AA350C9E71B
:104EF00022466468CCE7C41C24F00304A042E3D03B
:104F0000211A304600F0F6FA0130DDD1CFE700BFBC
:104F1000D4040020D80400209368013B002B10B477
:104F2000936008DA9469A34201DB0A2903D15DF892
:104F3000044BFFF769BC1368581C106019700846D1
:104F40005DF8044B7047F8B506460F461446D51871
:104F5000AC4201D1002007E014F8011B3A4630466C
:104F6000FFF7DAFF431CF3D1F8BD00002DE9F04F45
:104F70000D469DB014469846064618B183690BB994
:104F8000FFF71CFE894B9D421BD175686B6ED907DC
:104F900005D4AB899A0502D4A86DFFF7ADFEAB89A5
:104FA0001B0701D52B69EBB929463046FFF77EFC7C
:104FB000C0B16B6EDC070ED54FF0FF301DB0BDE801
:104FC000F08F7B4B9D4201D1B568DFE7794B9D4265
:104FD00008BFF568DAE7AB899805EDD4A86DFFF74F
:104FE0008CFEE9E70023099320238DF82930CDF8C2
:104FF0000C803023DFF8C0818DF82A304FF0010992
:1050000023469A4613F8012B0AB1252AF9D1BAEBA7
:10501000040B0BD05B46224629463046FFF793FF30
:10502000013000F0AA80099A5A4409929AF8003097
:10503000002B00F0A28000234FF0FF32CDE90523C2
:105040000AF1010A049307938DF853301A935446DA
:10505000052214F8011B5848FBF7DAF8049AD8B96E
:10506000D10644BF20238DF85330130744BF2B23B0
:105070008DF853309AF800302A2B15D0079A5446F1
:1050800000204FF00A0C214611F8013B303B092B60
:105090004ED9B0B1079214E0A0EB080309FA03F36C
:1050A00013430493A246D2E7039B191D1B68039187
:1050B000002BBBBF5B4242F0020207930793B8BFCD
:1050C000049223782E2B0CD163782A2B35D1039BA5
:1050D0001A1D1B680392002BB8BF4FF0FF33023438
:1050E0000593DFF8E4A0217803225046FBF790F8FF
:1050F00040B14023A0EB0A0003FA00F0049B0343F5
:105100000134049314F8011B2C488DF82810062252
:10511000FBF77EF800283FD0294B1BBB039B0733CE
:1051200023F0070308330393099B3B44099367E784
:105130000CFB02320C460120A5E700230134059345
:1051400019464FF00A0C204610F8012B303A092A74
:1051500003D9002BC5D00591C3E70CFB0121044600
:105160000123F0E703AB00932A46164B04A930460F
:10517000AFF300800746781CD6D16B6ED90705D4F3
:10518000AB899A0502D4A86DFFF7B7FDAB895B0622
:105190003FF512AF099811E703AB00932A46094B7C
:1051A00004A9304600F080F8E4E700BF4899009079
:1051B00068990090289900908899009092990090A1
:1051C00000000000474F00908E9900902DE9F047B5
:1051D000164699468A680B69DDF820809342B8BF6D
:1051E0001346336091F8432007460C460AB1013359
:1051F00033602368990642BF336802333360256801
:1052000015F0060506D104F1190AE36832689B1A05
:10521000AB4226DC94F84320131E226818BF0123FA
:1052200092062BD404F1430249463846C047013068
:105230001ED02368E568326803F00603042B08BF1C
:10524000AD1AA36822690CBF25EAE57500259342D3
:10525000C4BF9B1AED1800261A34B5421AD100209B
:1052600008E00123524649463846C047013003D181
:105270004FF0FF30BDE8F0870135C6E7E1185A1C52
:10528000302081F84300224494F8451082F84310FE
:105290000233C7E70123224649463846C04701305A
:1052A000E6D00136D9E700002DE9FF470C469146CC
:1052B000277E0C99782F80469A4604F1430207D83E
:1052C000622F0AD8002F00F0D880582F00F0A3805A
:1052D00004F1420684F842703AE0A7F16303152B0B
:1052E000F6D801A050F823F0415300905553009098
:1052F000D1520090D1520090D1520090D1520090E2
:1053000055530090D1520090D1520090D15200904C
:10531000D152009061540090855300904354009006
:10532000D1520090D152009083540090D1520090FD
:1053300085530090D1520090D15200904B54009070
:105340000B681A1D1B680A6004F1420684F842309B
:105350000123A3E0256808682E0600F104030AD59E
:1053600005680B60002D03DA2D236D4284F843306D
:105370005E480A2319E015F0400F05680B6018BF5E
:105380002DB2EFE70B682568181D0860280601D5C7
:105390001D6802E06906FBD51D8854486F2F0CBFBD
:1053A00008230A23002184F843106668A660002EB3
:1053B000A2BF216821F0040121600DB9002E4DD05B
:1053C0001646B5FBF3F103FB1157C75D06F8017DE7
:1053D0002F46BB420D46F4D9082B0BD12368DF07BB
:1053E00008D5236961689942DEBF302306F8013C85
:1053F00006F1FF36921B2261CDF800A04B4603AAAE
:1054000021464046FFF7E2FE01304CD14FF0FF301D
:1054100004B0BDE8F087354884F8457023680E680D
:105420001F0656F8045B0E6014D5D90744BF43F03D
:10543000200323601DB9236823F020032360102379
:10544000B0E7236843F0200323607823284884F8DA
:105450004530E3E75E0648BFADB2E6E71646BBE778
:105460000B68266860691D1D0D6035061B6801D537
:10547000186002E07106FBD51880002323611646F0
:10548000BAE70B681A1D0A601E6862680021304680
:10549000FAF7BEFE08B1801B6060636823610023D9
:1054A00084F84330A8E72369324649464046D0474E
:1054B0000130ABD023689B0713D4E068039B98426C
:1054C000B8BF1846A4E70123324649464046D047B4
:1054D00001309BD00135E36803995B1AAB42F2DCE3
:1054E000EBE7002504F11906F5E700BF9999009054
:1054F000AA99009038B5064D0023044608462B6053
:10550000FDF742FE431C02D12B6803B1236038BD76
:105510007042002010B50C46B1F90E1000F0A0F852
:105520000028ABBF636DA3891B1823F48053ACBF65
:105530006365A38110BD2DE9F0411F468B89DB0512
:1055400005460C46164605D5B1F90E100223002279
:1055500000F068F8A389B4F90E1023F48053A381F6
:1055600032463B462846BDE8F04100F017B810B57A
:105570000C46B1F90E1000F055F8431CA38915BF75
:10558000606523F4805343F48053A38118BFA38143
:1055900010BDB1F90E1000F013B8000038B5074D7A
:1055A00004460846114600222A601A46FDF7DEFD31
:1055B000431C02D12B6803B1236038BD7042002028
:1055C00038B5064D0023044608462B60FDF7F6FD6E
:1055D000431C02D12B6803B1236038BD7042002008
:1055E00038B5074D00230446084611462B60FDF7E9
:1055F000E8FD431C02D12B6803B1236038BD00BF16
:105600007042002038B5064D0023044608462B6042
:10561000FDF7DCFD431C02D12B6803B1236038BDCC
:105620007042002038B5074D044608461146002256
:105630002A601A46FDF7CCFD431C02D12B6803B14A
:10564000236038BD704200200148FFF755BB00BF02
:105650006A4200200148FFF750BB00BF6A420020A9
:1056600038B5074D04460846114600222A601A46FE
:10567000FDF76FFD431C02D12B6803B1236038BDD9
:1056800070420020F8B500BFF8BC08BC9E467047C9
:0C569000F8B500BFF8BC08BC9E4670478F
:10569C00000000000000000020202020002000005E
:1056AC0050500000000000002850F850F850A000A6
:1056BC002030603010602000202018601010000096
:1056CC0000382060507800002020200000000000EE
:1056DC0010202020202010004020202020204000DE
:1056EC002070205000000000002020F82020000036
:1056FC0000000000102020000000007000000000DE
:10570C0000000000002000001020202040408000FD
:10571C0020505050502000006020202020F8000025
:10572C0020502020407000002050102010600000FD
:10573C00103050781038000070406010502000007D
:10574C00304060505060000070501020202000004D
:10575C00205020505020000030505030106000007D
:10576C0000002000002000000000100010200000AD
:10577C00001020C02010000000700070000000001D
:10578C000040201820400000205010200020000075
:10579C0030484858484038006020507088D8000085
:1057AC00F048704848F00000705040404030000015
:1057BC00F048484848F00000F848604048F80000BD
:1057CC00F848604040E00000704040585030000005
:1057DC00E848784848E8000070202020207000003D
:1057EC003810105050200000D850607050D8000075
:1057FC00E040404048F80000D8D8D8A888D800002D
:10580C00D868685858E800003048484848300000CC
:10581C00F048487040E000003048484848301800D4
:10582C00F048487048E8000070502010507000009C
:10583C00F8A8202020700000D848484848300000C4
:10584C00D888485050300000D888A8A8A85000002C
:10585C00D850202050D80000D8885020207000004C
:10586C00784810204878000030202020202030007C
:10587C00804040202020100060202020202060004C
:10588C00202050000000000000000000000000F884
:10589C0020100000000000000000301070780000A4
:1058AC00C040704848F0000000007040407000009C
:1058BC00180838484838000000007070403000006C
:1058CC001020702020700000000038484838083044
:1058DC00C040704848E800002000602020700000A4
:1058EC002000701010101070C040587050D800007C
:1058FC0060202020207000000000D0A8A8A8000084
:10590C000000F04848C80000000030484830000053
:10591C000000F048487040E000003848483808184B
:10592C000000782020700000000030201060000083
:10593C000040F040483000000000D84848380000D3
:10594C000000C848303000000000D8A8A850000063
:10595C0000004830304800000000D8505020206033
:10596C0000007850287800001020206020201000C3
:10597C00202020202020200040202030202040000B
:10598C000000002850000000000000000000000093
:10599C00000000000010101010100000100000009B
:1059AC00006C48480000000000000000001414289F
:1059BC007C287C285050000000103840403848703B
:1059CC0010100000002050200C700814080000007B
:1059DC000000001820205448340000000010101063
:1059EC00100000000000000000080810101010103B
:1059FC00100808000020201010101010102020009B
:105A0C0000107C102828000000000000000010107E
:105A1C0010FE101010000000000000000000001824
:105A2C001030200000000000007C0000000000008E
:105A3C0000000000000000303000000000040408EA
:105A4C0008101020204000000038444444444444D2
:105A5C003800000000301010101010107C000000F6
:105A6C0000384404081020447C0000000038440432
:105A7C001804044438000000000C141424447E0460
:105A8C000E000000003C20203804044438000000C4
:105A9C00001C20407844444438000000007C44043E
:105AAC0008080810100000000038444438444444EE
:105ABC003800000000384444443C040870000000E6
:105ACC0000000030300000303000000000000018F2
