:0200000490006A
:1000000000000520D5300090B5320090B732009046
:10001000B9320090BB320090BD3200900000000069
:10002000000000000000000000000000BF3200904F
:10003000C132009000000000C3320090C532009031
:100040002531009025310090253100902531009018
:100050002531009025310090C93200902531009063
:10006000D13200902531009025310090253100904B
:1000700025310090253100902531009025310090E8
:1000800025310090253100902531009025310090D8
:1000900025310090253100902531009025310090C8
:1000A00025310090253100902531009025310090B8
:1000B00025310090253100902531009025310090A8
:1000C0002531009025310090253100902531009098
:1000D0002531009025310090253100902531009088
:1000E0009D320090253100902531009025310090FF
:1000F0002531009025310090253100902531009068
:100100002531009025310090253100902531009057
:100110002531009025310090253100902531009047
:10012000E5320090F13200902531009025310090A9
:100130002531009025310090253100902531009027
:100140002531009025310090253100902531009017
:100150002531009025310090D93200902531009052
:1001600025310090253100902531009025310090F7
:1001700025310090253100902531009025310090E7
:1001800025310090253100902531009025310090D7
:1001900025310090253100902531009025310090C7
:1001A00025310090253100902531009025310090B7
:1001B00025310090253100902531009025310090A7
:0801C00025310090253100906B
:1001C80010B5054C237833B9044B13B10448AFF389
:1001D80000800123237010BD600000200000000093
:1001E8005034009008B5034B1BB103490348AFF3E3
:1001F800008008BD0000000064000020503400901A
:1002080053B94AB9002908BF00281CBF4FF0FF3175
:100218004FF0FF3000F06EB9ADF1080C6DE904CE77
:1002280000F006F8DDF804E0DDE9022304B07047C9
:100238002DE9F047089D04468C46002B40F083804A
:100248008A42174647D9B2FA82F242B1C2F1200077
:1002580024FA00F09140974040EA010C94404FEA9C
:100268001748230CBCFBF8F61FFA87FE08FB16C1DB
:1002780043EA014306FB0EF1994209D9FB1806F13E
:10028800FF3080F01981994240F21681023E3B44CA
:100298005B1AA4B2B3FBF8F008FB103344EA03443A
:1002A80000FB0EFEA64509D93C1900F1FF3380F08A
:1002B8000581A64540F2028102383C4440EA0640E6
:1002C800A4EB0E0400261DB1D4400023C5E9004369
:1002D8003146BDE8F08702B9FFDEB2FA82F2002AA1
:1002E80050D1CB1B4FEA174E1FFA87F80126B3FBF4
:1002F800FEFC210C0EFB1C3341EA034108FB0CF306
:100308008B4207D979180CF1FF3002D28B4200F2E8
:10031800E9808446C91AA3B2B1FBFEF00EFB1011A6
:1003280043EA014408FB00F8A04507D93C1900F14D
:10033800FF3302D2A04500F2D9801846A4EB080486
:1003480040EA0C40BFE78B4209D9002D00F0B1808C
:100358000026C5E9000130463146BDE8F087B3FA0A
:1003680083F6002E4AD18B4202D3824200F2B88033
:10037800841A61EB030101208C46002DA8D0C5E941
:10038800004CA5E7C2F1200320FA03F6974001FAD2
:1003980002F04FEA174ED9403043030CB1FBFEF68A
:1003A8001FFA87F80EFB161143EA014306FB08F112
:1003B800994204FA02F409D9FB1806F1FF3C80F0CF
:1003C8008D80994240F28A80023E3B445B1A81B29A
:1003D800B3FBFEF00EFB103341EA034100FB08F3C8
:1003E8008B4207D9791800F1FF3C73D28B4271D93F
:1003F80002383944CB1A40EA064678E7C6F1200CA1
:1004080003FA06F422FA0CF31C4320FA0CF701FA5B
:1004180006F34FEA144E21FA0CF11F433B0CB1FBD3
:10042800FEF91FFA84F80EFB191143EA014109FB92
:1004380008FA8A4502FA06F200FA06F308D96118A2
:1004480009F1FF3048D28A4546D9A9F10209214469
:10045800A1EB0A01BFB2B1FBFEF00EFB101147EA97
:10046800014700FB08F8B84507D9E71900F1FF3143
:100478002ED2B8452CD90238274440EA0940A7EBC8
:100488000807A0FB02894F45C64649461AD317D02C
:100498005DB1B3EB0E0267EB010707FA0CFCF24003
:1004A8004CEA0202F740C5E9002700263146BDE8BC
:1004B800F0872E4628460BE70646E9E61846FDE68D
:1004C8004345E5D2B8EB020E69EB04010138DFE7DA
:1004D8000846D2E760468DE78146B9E7664675E784
:1004E80030464AE7ACF1020C394413E702383C4481
:1004F80024E700BF704700BF704700207047000026
:1005080037B500230F4C05468DF8073023781BB903
:1005180000F09EF9012323700324EDB2013CA821C9
:10052800284600F0A9F914F0FF048DF807009DF89B
:100538000730DBB203D19DF8070003B030BD512B63
:10054800ECD1F8E77C00002013B500240221C0B2EA
:100558008DF8074000F090F98DF807009DF80730F6
:1005680003F00F038DF807309DF80730052B01D9EC
:100578008DF807409DF80720034B9DF807005A7037
:1005880000229A7002B010BD7C0000202DE9F347CC
:100598002B4D164600230F46AC786A788DF8073045
:1005A800A24245D9092C46D804EB44035B00DBB2D0
:1005B800191D03F1030A03F106090533C9B25FFAED
:1005C8008AFA5FFA89F95FFA83F8C4B2204600F024
:1005D80053F98DF807009DF8073051462046AB8047
:1005E80000F04AF98DF8070049469DF80730204683
:1005F800AA881B0203F4706313433B80AB8000F0AE
:100608003BF98DF8070041469DF807302046AB803E
:1006180000F032F98DF807009DF80730AA881B0210
:1006280003F470631343AB803380AB780133AB7052
:1006380002B0BDE8F087984699469A461946C4E73D
:100648007C0000200122A421C0B200F003B90022DE
:10065800A421C0B200F0FEB8FFF7F9BF7047000050
:1006680010B5054CC82000F01DF923781BB900F01F
:10067800EFF80123237010BD7C00002070B58AB00C
:10068800054601F0D3FD002855D14A4B00264A4CB7
:100698009D426E610CBF494A494A9D422A60494AB7
:1006A800C5E901264FF00102C5E90766C5E9032639
:1006B800236B42D143F0800380204FF0020C05A940
:1006C8002363236B079603F080030193019B122396
:1006D800CDE9050304233C48CDE908C301F08EF9B0
:1006E8004FF4807305A93848059301F087F9236C06
:1006F80032460F21482043F400032364236C03F49B
:1007080000030293029B236A43F400032362236AD3
:1007180023F40003236200F04BFE482000F07AFE29
:10072800492032460F2100F043FE492000F072FEB6
:10073800284601F09EFB0AB070BD43F002034FF457
:100748008072022121482363236B079603F002037A
:100758000393039B1223CDE905230423CDE9081352
:1007680005A901F04BF94FF4007305A91748059343
:1007780001F044F9236C32460F211F2043F4001383
:100788002364236C03F400130493049B236A43F447
:1007980000132362236A23F40013236200F008FE87
:1007A8001F2000F037FE202032460F2100F000FE07
:1007B8002020BBE78400002000380240005C004095
:1007C8000054004032279140001C024000040240BF
:1007D80030B54FF47A7485B005460294BDF82440CC
:1007E8000194089C009401F0AFFB044628B1284608
:1007F80001F091FB2846FFF741FF204605B030BDC8
:1008080030B54FF47A7485B005460294BDF824409B
:100818000194089C009401F04DFC044628B1284638
:1008280001F079FB2846FFF729FF204605B030BDC7
:1008380020B901220221024801F0C6B9704700BF61
:10084800002002400148FFF719BF00BF84000020C4
:10085800FFF7F8BF1FB58DF80F200DF10F02012328
:1008680000920A46014601930248FFF7B1FF05B01E
:100878005DF804FB840000201FB500230A460DF133
:100888000F018DF80F3001230091014601930448B0
:10089800FFF7B6FF9DF80F0005B05DF804FB00BF39
:1008A8008400002000F060BD2DE9F347194C9846FC
:1008B8004FF440330E4617463421174A8146636089
:1008C8002046236CDDF82CA001FB03239D6C0A9BBA
:1008D800022DE36018BF0025104BA560236000F0CF
:1008E8007EFFA0B94946204601F040F878B93B465A
:1008F800324651462046CDF8008000F09CFF30B9C2
:100908000A21204602B0BDE8F04700F0AEBF02B0B1
:10091800BDE8F087440300204405002000B00240F1
:10092800034B3421034A1B6C01FB0323186E7047E9
:100938004403002044050020034B3421034A1B6C68
:1009480001FB0323586E7047440300204405002030
:1009580070B5184D0446342617482A6C8EB000230B
:1009680006FB02020A91FF21166E526E0193ADF842
:1009780034308DF83630CDE90423CDE90613CDE9BE
:1009880002634FF4C0610723CDE90B62CDE9081378
:10099800224601A901F040FD0C204FF0FF3300FB77
:1009A80004508364054BC3644FF07F4343640EB027
:1009B80070BD00BF4403002044050020280000202B
:1009C800014B1864704700BF44030020034A0C2100
:1009D800136C01FB03235864704700BF44030020D5
:1009E800034A0C21136C01FB03239864704700BF72
:1009F80044030020034A0C21136C01FB0323D86431
:100A0800704700BF44030020084B13B51C6C342109
:100A1800074B0190204601FB043100230093D1E9E4
:100A28001823C96DFFF740FF02B010BD4403002032
:100A380044050020F7B50F4D34240F4B2E6C04FBF2
:100A48000634D4E9173707FB0101A06C02283046A9
:100A58000CBF03EB410103EB81010C2303FB06559B
:100A68006B6C0193002300930123FFF71DFF03B074
:100A7800F0BD00BF44030020440500200A4B30B5F8
:100A88001B6C3425094C05FB0343D3E917459B6CC4
:100A980005FB0101022B03D192B224F8112030BDCD
:100AA80044F82120FBE700BF440300204405002050
:100AB8002DE9F04F85B0A2F120054FF00008CDE9EF
:100AC800000128480C21D0F840B001FB0B01C96C8B
:100AD800B1F80490B1F806A009F107060A680AFB04
:100AE80005F5F610C9EBC60006FB052509F1FF322E
:100AF80052FA80F30293019BD04503EB080189B2B7
:100B080002D305B0BDE8F08F012E2C7804D0022E58
:100B180009D12C8864BAA4B20027B9450AD808F1CB
:100B280001083544E7E76A78240444EA0224AA78ED
:100B38001443F1E7009B01220391D819029BA3EB10
:100B4800070C084B80B2013702FA0CF222424FF030
:100B58000C0202FB0B3214BF526C926CFFF78EFF33
:100B68000399DAE7440300202DE9F04705468A4651
:100B78001646144612F8010B0028FAD124480C2214
:100B8800012B016C02FB01024FF03400D76C214AA3
:100B9800B7F804E000FB0120006EB0FBFEF021D0A6
:100BA800022B27D02BB24FF034084FF00009002B4E
:100BB80008FB0128D8BF0125BC881FFA89F3D8F89B
:100BC800600016F8092009F1010904FB13039BB220
:100BD800A34234BF00230123002A08BF00237BB9A6
:100BE800BDE8F087341B04440EFB04F405EB540005
:100BF80085B2D7E7341B044414FB0EF4601BF7E7F7
:100C080028465146FFF754FFB888284485B2D3E7F1
:100C180044030020440500202DE9F04F540087B01C
:100C280088461546C4F103040027019035484FF063
:100C38000C0C019BAEB2026C1FFA87F913FA87F30A
:100C4800A8EB06010CFB02029BB289B2526C184653
:100C58000593CDE90321FFF711FF019BCDF808901B
:100C6800A3EB090B1FFA8BFBDDE903215846FFF7BD
:100C780005FF019B039A06EB030A029BA8EB0301FD
:100C88001FFA8AFA89B250460491FFF7F7FE019BD2
:100C9800A3EB06091FFA89F9DDE903214846FFF7A6
:100CA800EDFE06EB0801059B89B2039A18460491EC
:100CB800FFF7E4FE5846DDE90321FFF7DFFE029B5C
:100CC800039A504603EB080189B20291FFF7D6FE5A
:100CD8004846DDE90212FFF7D1FE002CB1BF063409
:100CE8007B1B0A3405F1FF35B8BF04EB870407F115
:100CF8000107A8BF04EB8304BD4297D207B0BDE843
:100D0800F08F00BF440300202DE9F34754008046CC
:100D18000E469146C4F1030417460025AFB1BAB296
:100D280016FA85F11FFA85FAA8EB0200520089B27B
:100D380080B292B200900192FFF77CFE5146019A70
:100D48000098711A89B2FFF775FEA5B1AAB2B9B2B7
:100D5800A8EB020052008A46711A80B292B289B298
:100D680000900192FFF766FE0AEB0601019A0098CF
:100D780089B2FFF75FFE002CB1BF0634EB1B0A34C3
:100D880007F1FF37B8BF04EB850405F10105A8BFDB
:100D980004EB8304AF42C1D24A463146404602B012
:100DA800BDE8F047FFF738BF4B4B4C485A6C42F050
:100DB8008062F0B55A648FB05A6C02240E2509A9D6
:100DC80002F080624FF48057454E0092009A1A6BE9
:100DD80042F400021A631A6B02F400020192019AAB
:100DE8001A6B42F010021A631A6B02F01002029298
:100DF800029A1A6B42F040021A631A6B02F0400220
:100E08000392039A1A6B42F480721A631A6B02F403
:100E180080720492049A1A6B42F400721A631A6B75
:100E280002F400720592059A1A6B42F480621A6302
:100E38001A6B02F480620692069A1A6B42F4807268
:100E48001A631A6B02F480720792079A1A6B42F4BB
:100E580080621A631B6B0D9503F480630893089BEB
:100E68001023CDE909340023CDE90B3400F0C6FD89
:100E7800092309A91B480D93CDE9097400F0BEFDAB
:100E88004FF4664309A930460D95CDE9093400F0C1
:100E9800B5FD4EF6FF7309A913480D95CDE9093440
:100EA80000F0ACFDF72309A90D950125CDE909341A
:100EB8000E4C204600F0A2FD09A9304609970A9574
:100EC80000F09CFD082309A92046CDE9093500F06A
:100ED80095FD0FB0F0BD00BF003802400010024081
:100EE800002002400018024000240240002802406E
:100EF80006480823C365C0235C3043610523C361EA
:100F08004FF48033C36201F07BBD00BF440300206F
:100F180010B52822244C0923352140F21B1040F239
:100F28001D1CC4E905230B23C4E9071340F215234C
:100F38000021C4E9093040F235232046C4E90B3CBE
:100F4800FFF7D6FF4FF4F07E4FF488732046C4E9CC
:100F580018E30023A38684F83630C4E90133C4E9D2
:100F68000333124B236001F084FA014610B920467E
:100F7800FFF71AFF0C4801F0E3F901224FF4805102
:100F88000B4800F021FE012208210A4800F01CFE4F
:100F980000F01EF9084A0C210020136C01FB032302
:100FA800064ADA6410BD00BF44050020006801400D
:100FB80000200240002802404403002028000020AE
:100FC8002DE9F743214C0126214D4FF00008102749
:100FD800214681464FF6FF722846CDF80480C4E9C1
:100FE8000067C4E9026801F0B6FF304600F0BCF9BA
:100FF800022321464FF6FF722846C4E90037C4E9A8
:10100800026801F0A8FF032321464FF6FF72284625
:10101800C4E900370823C4E9023801F09CFF4FF403
:10102800087321464FF6FF72019304232846A660F1
:10103800C4E90037019BE36001F08DFF494628466B
:1010480003B0BDE8F04301F09DBF00BF24040020B9
:10105800EC050020554B9A6B42F0010270B59A637B
:101068008EB09A6B064609A9514802F00102002485
:101078000192019A1A6B42F480021A631A6B02F405
:1010880080020292029A1A6B42F004021A631A6BE7
:1010980002F004020392039A1A6B42F008021A63E0
:1010A8001A6B02F008020492049A1A6B42F01002BA
:1010B8001A631A6B02F010020592059A1A6B42F035
:1010C80020021A631A6B02F020020692069A1A6B23
:1010D80042F040021A631A6B02F040020792079A24
:1010E8001A6B42F080021A6301221B6B03F0800323
:1010F8000893089B0223CDE90A320C930C230D9325
:101108000823099300F07AFC4CF2037309A92948D3
:10111800099300F073FC4FF6837309A926480993D5
:1011280000F06CFC4FF63F0309A92448099300F02E
:1011380065FC48F2331309A92148099300F05EFCC5
:10114800282309A91F48099300F058FC1E4B802248
:101158004FF400714FF480501D461C64DC62C3E9F3
:1011680005424FF48062C3E907124FF48042C3E995
:1011780009024FF40032C3E90C240322C3E90E2408
:10118800124A45F8102F284635639E6400F0FCF992
:10119800284600F079F922460F21382000F008F996
:1011A800382000F037F90EB070BD00BF003802409B
:1011B80000080240000C02400010024000140240E7
:1011C80000180240001C0240240400201064024061
:1011D80038B51A4C07211A4B04221A4D4FF40060F7
:1011E80023600223E260C5F88830C5E91C31C5E9EF
:1011F8001E21C5E92033102240230021C4E904231D
:101208004FF48073A162C4E906314FF48053C4E9F6
:1012180008032046C4E90111FFF71CFF05F170011E
:101228002046094C01F077FE003818BF01202070D5
:1012380040F20360FFF7C4FE207838BDEC050020BB
:10124800400100A0240400205000002038B50B4CB9
:101258000B4D208070202B68618098476B68702048
:101268009847512808D10823702065606372EB689D
:1012780020729847002038BD0320FCE710050020A5
:10128800000000200F490020D1F8883043F4700393
:10129800C1F888300C4B1A6842F001021A60986055
:1012A8001A6822F0847222F480321A60074A5A605F
:1012B8001A6822F480221A60D8604FF010438B60BD
:1012C800704700BF00ED00E00038024010300024F5
:1012D8007047000070B50E4E05464FF47A730D4AFC
:1012E8003078B3FBF0F31068B0FBF3F000F0A0F82F
:1012F800044650B90F2D08D8024629464FF0FF3052
:1013080000F056F82046756070BD0120FCE700BF6C
:10131800580000205400002008B5094B03201A6823
:1013280042F400721A601A6842F480721A6000F07F
:101338002DF80F20FFF7CEFFFFF7CAFF002008BDEA
:10134800003C0240034A044B11681B780B441360AD
:10135800704700BF2006002058000020014B186885
:10136800704700BF2006002038B50446FFF7F6FF97
:101378000546631C1EBF044B1B78E418FFF7EEFFFD
:10138800431BA342FAD338BD580000200749030283
:10139800CA6803F4E06322F4E0621204120C1343F7
:1013A80043F0BF6343F40033CB60704700ED00E0C7
:1013B800164B30B5DC68C4F30224C4F10705231DBD
:1013C800042D28BF0425062B4FF0FF338CBF033CA8
:1013D800002403FA05F5002803FA04F321EA0501BD
:1013E80022EA030201FA04F141EA02034FEA031375
:1013F800DBB206DB00F1604000F5614080F80033A5
:1014080030BD00F00F00024A1354F9E700ED00E088
:1014180014ED00E0002808DB4209012300F01F005A
:1014280003FA00F0014B43F82200704700E100E0A6
:101438000138B0F1807F0AD2064BF021064A586085
:10144800002082F82310072298601A607047012054
:10145800704700BF10E000E000ED00E003680246BE
:101468001820D9B21039B1FBF0F010B5054C5F293E
:10147800205CD06523F47F7020F0030088BF04301F
:10148800906510BD5C71009070B50446FFF766FF6B
:101498000546002C73D00023226884F834300223D8
:1014A80084F83530136823F00103136021680B6852
:1014B800D8072FD40B68334DA0691D40D4E9012308
:1014C8001343E26813432269134362691343E269D1
:1014D80003431343226A1343626A042A43EA050357
:1014E80002BFD4E90B5635432B43042A0B604B69E2
:1014F80023F0070343EA020333D1A26AE56A1343E0
:101508007DB390B9012A21D032F0020229D1EA0133
:1015180027D51EE0FFF722FF401B0528C6D9202348
:101528000320636584F8350070BDB0F5005F14D101
:10153800032A16D801A050F822F000BF5B150090CE
:10154800171500905B15009055150090B5F1C07FF8
:1015580007D1402301206365E4E7022AF9D9032A69
:10156800D5D04B612046FFF779FFE26D3F239340CA
:10157800836000200123606584F83530D4E70120BA
:10158800D2E700BF3F8010F038B5054620B390F889
:101598003530022BDCB21DD0036800241A6822F013
:1015A80001021A6021221C605C609C60DC601C6186
:1015B8005A61FFF753FFEA6D3F23934083606C65E0
:1015C80085F8344085F83540C5E90F44C5E911442C
:1015D800C5E91344204638BD0124FBE70023F7B5CD
:1015E800019308225B4B0446856D1F68C36D2E6806
:1015F8009A4032420CD001680868400708D508684C
:1016080020F004000860AA60626D42F00102626581
:1016180001229A40324208D021684969090604D556
:10162800AA60626D42F00202626504229A40324268
:1016380008D021680968880704D5AA60626D42F05D
:101648000402626510229A40324210D02368196859
:1016580009070CD5AA601A68500337D51B68190307
:1016680001D4236C00E0A36C0BB120469847E16DD0
:1016780020228A4032423AD023681868C60636D5F6
:10168800AA6094F83520052A1A6827D122F0160294
:101698001A605A6922F080025A61226C0AB9A26C57
:1016A8001AB11A6822F008021A603F238B40AB6017
:1016B800002384F83430012384F83530236D002B5F
:1016C80045D0204603B0BDE8F04018471A68D20557
:1016D800C7D41A6822F008021A60C2E7500327D557
:1016E8001B68190331D4636C0BB120469847636DAE
:1016F8006BB3636DDA0719D54FF416532268B7FB3D
:10170800F3F7052384F83530136823F001031360D9
:10171800019B0133BB42019302D81368DB07F7D45E
:10172800002384F83430012384F83530E36CC6E7AD
:101738001A6812F4807208D1196821F01001196032
:10174800012384F8342084F83530E36BCCE703B008
:10175800F0BD00BF5400002070B50468049D666C9D
:1017680045EA034306F04046334363644368E26353
:10177800B3F5403F30D186681EB1012E03D121F068
:101788007F41A16370BD022E01F47F0301F47F4500
:10179800C8B207D1DB0CAD0ADB0243EA451343EAC2
:1017A800D001EEE7032E01F07F420AD1DB0CED0AEF
:1017B8009B02D10F43EA451343EAD00343EAC13100
:1017C800DFE7190D2D0B0902130F41EA051141EA54
:1017D800101141EA0331D4E7E160D3E7704710B54F
:1017E800044630B390F8393003F0FF021BB980F893
:1017F8003820FFF7F3FF226802236168002084F88D
:101808003930136823F440330B43A1681360536BDA
:1018180023F007030B43E1685363136C23F47F53EE
:1018280023F03F030B4313640123E06384F839304A
:1018380010BD0120FCE773B590F838500446012D1F
:101848004FF002050FD080F839500126069D80F828
:1018580038600095FFF780FF226800201368334343
:10186800136002B070BD2846FBE7002373B50193EF
:10187800044603680D461B68DB0717D42268D36942
:10188800526A13439E0606D5FFF768FD064623688D
:101898005A68D20643D52368122200209A60012391
:1018A80084F8380084F8393002B070BDFFF756FD6F
:1018B800064623685A689207E0D45A680192019A4A
:1018C80012F0210F17D0019A950603D5E26B42F06A
:1018D8000202E263019AD00703D5E26B42F00102EB
:1018E800E26321229A600423012084F8393000231E
:1018F80084F83830D8E7691CDCD0FFF72FFD801B4F
:10190800A84201D8002DD4D1E36B032043F0200373
:10191800E363002384F8390084F83830C4E75A6850
:101928000192019A12F0290F16D0019A160703D5D1
:10193800E26B42F00402E263019A950603D5E26B7A
:1019480042F00202E263019AD00703D5E26B42F04B
:101958000102E2632922C5E7691C99D0FFF7FEFC62
:10196800801BA842D0D8002D91D1CDE7F0B590F8D2
:101978003830012B4FF002032BD080F83930012288
:1019880000EB01131C4F80F838200E015D6AD3E983
:10199800074244EA0242093C012C96BF05F07F4306
:1019A80042EA05621A430368A9B9596A012C01EA97
:1019B800070142EA01025A6282699A6103D8426ABF
:1019C80022F07F429A62012380F83930002380F8A0
:1019D80038301846F0BDD969012C01EA070142EAFE
:1019E8000102DA6100EB060292691A61EBD825F070
:1019F8007F451D62E7E700BFF0FFFC002DE9F74FC8
:101A08000023DFF8BC816C4ADFF8B89101240D6827
:101A18009C4004EA0506AC4340F0B4804C684FEAA9
:101A2800430E032524F0100C05FA0EF50CF1FF37D0
:101A3800ED43012F11D8876807EA050ACF6807FA2E
:101A48000EF747EA0A078760476827EA060AC4F3D9
:101A580000179F4047EA0A074760C768BCF1020FB2
:101A680007EA050A8F6807FA0EF747EA0A07C76008
:101A780016D14FEAD30A03F0070B4FF00F0C00EB17
:101A88008A0A4FEA8B0BDAF820700CFA0BFC27EA6B
:101A98000C0C0F6907FA0BF747EA0C07CAF8207015
:101AA80007683D4004F0030707FA0EFE4EEA0505F5
:101AB8000560E50066D5D8F8445023F0030703F025
:101AC800030C4FF00F0E45F4804507F180474FEAAD
:101AD8008C0CC8F8445007F59C37D8F8445005F4E6
:101AE80080450195019D0EFA0CF5D7F808A02AEA61
:101AF800050E324DA8424CD005F58065A8424AD063
:101B080005F58065A84248D005F58065A84246D00D
:101B180005F58065A84244D0484544D005F50065E0
:101B2800A84242D005F58065A84240D005F58065F9
:101B3800A8423ED005F58065A8420CBF09250A25B4
:101B480005FA0CF514F4803F45EA0E05BD606FEA0E
:101B5800060715680CBF3D40354314F4003F156077
:101B680055680CBF3D40354314F4801F5560956897
:101B78000CBF3D403543A4029560D56854BF3D4035
:101B88003543D5600133102B7FF440AF03B0BDE877
:101B9800F08F0025D4E70125D2E70225D0E70325F9
:101BA800CEE70425CCE70525CAE70625C8E70725BB
:101BB800C6E70825C4E700BF003C0140000002401A
:101BC80000380240001402400AB1816170470904DC
:101BD800FBE77047044A5169014208B502D05061D9
:101BE800FFF7F7FF08BD00BF003C014003689A6992
:101BF800910701D500229A629A69D20703D49A699B
:101C080042F001029A61704730B5039DC1F30901A2
:101C1800046845EA024260681A43044B43EA555394
:101C28000A4320EA03000243626030BDFF63FF03FA
:101C3800036870B5044698690D46164610F0100002
:101C480016D170BD691C14D0FFF788FB801BA84211
:101C580000D86DB9636C43F020036364202384F8D3
:101C680041300023012084F8423084F84030E8E70E
:101C780023689A699206E5D5102220252046DA6164
:101C8800DD61FFF7B3FF2268536823F0FF7323F485
:101C98008B3323F4FF7323F001035360636C43F029
:101CA8000403636484F84150DBE770B504460D46CD
:101CB800164623689B699B0601D5002070BD3246F5
:101CC80029462046FFF7B4FF90B9FFF747FB801B72
:101CD800A84201D8002DECD1636C43F02003636463
:101CE800202384F84130002384F8423084F84030BF
:101CF8000120E3E72DE9F041069F04468846164691
:101D08001D462268936938EA03030CBF01230023A8
:101D1800B34201D0002015E06B1CF3D0FFF71EFB87
:101D2800C01BA84201D8002DEBD1636C012043F001
:101D380020036364202384F84130002384F8423070
:101D480084F84030BDE8F08170B504460D4616466B
:101D580023689B699B0701D5002070BD3246294640
:101D68002046FFF765FFA0B96A1CF1D0FFF7F6FA25
:101D7800801BA84201D8002DEAD1636C43F02003F0
:101D88006364202384F84130002384F8423084F8C7
:101D980040300120E1E700002DE9F3411E46184BD1
:101DA800054614460093F2B24FF08073DDE90878D7
:101DB800FFF72AFF284642463946FFF7C5FF18B104
:101DC800012002B0BDE8F081012E2B680DD1E4B2EC
:101DD8000022802128469C623B46CDF80080FFF710
:101DE80089FF003818BF0120EBE7220A3946284648
:101DF8009A624246FFF7A8FF0028E1D12B68E6E780
:101E0800002000802DE9F3411E46184B0546144674
:101E18000093F2B20023DDE90878FFF7F5FE2846C3
:101E280042463946FFF790FF18B1012002B0BDE8DD
:101E3800F081012E2B680DD1E4B200224021284602
:101E48009C623B46CDF80080FFF754FF003818BF6E
:101E58000120EBE7220A394628469A624246FFF7F4
:101E680073FF0028E1D12B68E6E700BF002000805F
:101E7800704710B5044600284AD090F8413003F066
:101E8800FF021BB980F84020FFF7F2FF242384F8F3
:101E9800413023681A6822F001021A60626822F051
:101EA80070621A619A6822F400429A60D4E90221A9
:101EB800012924D142F400429A605A68002042F075
:101EC800007242F400425A60DA6822F40042DA6092
:101ED800D4E904210A43A16942EA0122DA60D4E97B
:101EE80007210A431A601A6842F001021A60202387
:101EF800606484F84130206384F8420010BD42F4E5
:101F0800044202299A60D8D14FF400625A60D4E79B
:101F18000120F3E7704710B5044698B102682423FE
:101F280080F84130136823F001031360FFF7F2FFD4
:101F38000020606484F8400084F84100206384F83D
:101F4800420010BD0120FCE72DE9F04F85B09B460B
:101F580004460F46BDF83C309246DDF840900393A6
:101F680090F84130202B40F0A3800E9B0BB1039BCF
:101F780033B94FF400736364012005B0BDE8F08FF6
:101F880090F84030012B00F09380012580F84050F4
:101F9800FFF7E4F91923009006462A464FF400415A
:101FA8002046FFF7A7FE80460028E5D1212360637D
:101FB8005246394684F84130402384F842300E9B1B
:101FC800606420466362039BCDE9009663855B46A7
:101FD800FFF7E2FE10B184F84080CDE7638D9BB235
:101FE800FF2B55D9FF224FF0807300902285394688
:101FF8002046FFF709FE324649462046FFF7A4FE71
:102008000028B9D1636A226813F8011B91626362E0
:10201800638D228D013B013A9BB292B26385638D39
:1020280022859BB2ABB1A2B94B46802120460096CF
:10203800FFF760FE00289FD1638D9BB2FF2B2FD93D
:10204800FF224FF080730090228539462046FFF723
:10205800DBFD638D9BB2002BCDD13246494620462D
:10206800FFF723FE002887D123682021D9615A6809
:1020780022F0FF7222F48B3222F4FF7222F0010266
:102088005A6084F8411084F8400084F8420074E7EC
:10209800628D4FF00073009092B22285D2B2A6E70B
:1020A800628D4FF00073009092B22285D2B2CCE7D5
:1020B800022062E72DE9F04F85B09B4604460F46A3
:1020C800BDF83C309246DDF84090039390F84130DB
:1020D800202B40F0A7800E9B0BB1039B33B94FF424
:1020E80000736364012005B0BDE8F08F90F84030BC
:1020F800012B00F09780012580F84050FFF72EF95A
:102108001923009006462A464FF400412046FFF75F
:10211800F1FD80460028E5D1222360635246394606
:1021280084F84130402384F842300E9B6064204696
:102138006362039BCDE9009663855B46FFF762FE09
:1021480010B184F84080CDE7638D9BB2FF2B364BEE
:1021580058D9FF2200934FF08073228539462046D4
:10216800FFF752FD4B460022042120460096FFF758
:10217800C1FD0028B6D123685A6A636A1A70636A77
:10218800228D0133013A6362638D92B2013B22854D
:102198009BB26385638D9BB2ABB1A2B94B468021DC
:1021A80020460096FFF7A6FD00289BD1638D9BB2C1
:1021B800FF2B2FD9FF224FF08073009022853946DC
:1021C8002046FFF721FD638D9BB2002BCAD1324612
:1021D80049462046FFF769FD002883D1236820215E
:1021E800D9615A6822F0FF7222F48B3222F4FF720E
:1021F80022F001025A6084F8411084F8400084F803
:10220800420070E7628D00934FF0007392B222850E
:10221800D2B2A3E7628D4FF00073009092B222858C
:10222800D2B2CCE702205EE70024008090F841009B
:102238007047D201D1F800C02DE9F0438432046818
:102248004F680CF10106A318E5684FF0000ED1F8AD
:1022580018905868C5F30B4500F470403D44586029
:10226800E068C0F30B40304440EA0540CD68586050
:10227800E068C0F30A000544986800F4704098606C
:102288008868E6680130C6F30A0630440E6940EAF9
:1022980005409860186920F0070018611E619D6963
:1022A80091F8320091F83180C3F818E091F8305075
:1022B80045EA096545EA082545EA00459D615869EA
:1022C80020F0FF00586148695861D86920F4E0603F
:1022D80020F00700D861D1E907500543DD61986A0D
:1022E800486AC3F828E098621EB3012E23D0B01EB6
:1022F800022822D9072E0CBF02200120DD6AA7EB95
:102308000C0705F0E025DD628D6AC96A454378430C
:10231800033040EA0540D862186B20F4FF6020F0D3
:10232800070018631963A35843F00103A350BDE8DD
:10233800F0830420E2E70320E0E70220DEE77047AD
:1023480038B50446002863D090F8A13003F0FF02A6
:102358001BB980F8A020FFF7F2FF022384F8A13010
:1023680023689A6922F070429A619969D4E9012038
:102378000243E06802432069024360690A43254931
:102388009A619A680A409A609A6842EA0042A0698B
:102398000243E0699A60DA680A40DA60DA6842EA79
:1023A8000042206A0243606ADA601A690A401A61C8
:1023B8001A6942EA0042A06A02431A615A69114046
:1023C8005961E16A5A6942EA0142216B0A435A613A
:1023D800D96A94F8360001F07F4194F83550D962F3
:1023E800D96A94F834200A4342EA052242EA0042B4
:1023F8000020DA625A6B42F006025A639A6942F088
:1024080001029A610123C4F8A40084F8A13038BD00
:102418000120FCE700F800F02DE9F04190F8A03029
:1024280006460F469446012B4FF002001FD0342475
:102438004FF001080D4686F8A10004FB026486F8F7
:10244800A08038340FCD0FC40FCD0FC40FCD0FC4EB
:102458002B683046624639462360FFF7EAFE336848
:102468000020C3F8248086F8A18086F8A000BDE883
:10247800F08190F8A1007047194B37B51A6C194CC8
:1024880042F080521A641B6C03F080530193019B45
:10249800236843F480332360FEF760FF05466368D2
:1024A800DA030CD523680F4D43F400332360FEF79D
:1024B80055FF04466B689B030AD5002006E0FEF72B
:1024C8004DFF401BB0F57A7FE9D9032003B030BD3A
:1024D800FEF744FF001BB0F57A7FEBD9F5E700BFA4
:1024E80000380240007000402DE9F341044640B333
:1024F8000368D80710D42368990764D42368190798
:1025080000F1AA8023685A0700F1CB80A269002A4B
:1025180040F0348100202BE0964B9A6802F00C02C0
:10252800042A07D09A6802F00C02082A0BD15A68CC
:10253800520208D58F4B1B689B03DCD56368002BC0
:10254800D9D1012014E06268B2F5803F13D11A682E
:1025580042F480321A60FEF701FF864E0546336862
:102568009F03C8D4FEF7FAFE401B6428F7D903205E
:1025780002B0BDE8F0817F4D2B6892B923F4803317
:102588002B602B6823F480232B60FEF7E7FE0646BA
:102598002B689803AFD5FEF7E1FE801B6428F7D9B6
:1025A800E5E7B2F5A02F07D143F480232B602B6811
:1025B80043F480332B60CEE723F480332B602B6801
:1025C80023F48023F6E76B4B9A6812F00C0F07D0C0
:1025D8009A6802F00C02082A11D15A6851020ED4E6
:1025E800644B1A68920702D5E268012AA9D11A68D1
:1025F800216922F0F80242EAC1021A607EE7E26825
:10260800C2B11A685B4D42F001021A60FEF7A6FEDD
:1026180006462B689F0707D52B68226923F0F80325
:1026280043EAC2032B6069E7FEF798FE801B022885
:10263800EFD99CE71A684F4E22F001021A60FEF7A4
:102648008DFE0546336898077FF558AFFEF786FE7E
:10265800401B0228F6D98AE76369464D83B16B6F40
:1026680043F001036B67FEF779FE06466B6F9B0725
:102678003FF548AFFEF772FE801B0228F6D976E7D1
:102688006B6F23F001036B67FEF768FE06466B6FFE
:102698009F077FF537AFFEF761FE801B0228F6D94A
:1026A80065E7344B1A6CD00027D41A6C012742F026
:1026B80080521A641B6C03F080530193019B2E4DCA
:1026C8002B68D9051BD5A3682A4D012B27D12B6F61
:1026D80043F001032B6741F28838FEF73FFE254E91
:1026E8000546336F9B073FD5002F3FF40FAF214AB4
:1026F800136C23F08053136408E70027DFE72B6887
:1027080043F480732B60FEF729FE06462B68DA0532
:10271800D9D4FEF723FE801B6428F7D927E7ABB985
:102728002B6F41F2883823F001032B672B6F23F0BE
:1027380004032B67FEF712FE06462B6F9807D3D5C6
:10274800FEF70CFE801B4045F7D910E7052B2B6FD1
:1027580003D143F004032B67B9E723F001032B6788
:102768002B6F23F00403B5E7FEF7F8FD401B404547
:10277800B7D9FCE60038024000700040384DAB681D
:1027880003F00C03082B41D02B68022A23F0807336
:102798002B602ED1FEF7E2FD06462B68990122D464
:1027A800A36A5B085A1ED4E907310B4343EA024384
:1027B800626A43EA8213E26A43EA026343F000531F
:1027C8006B602B6843F080732B60FEF7C7FD244DC8
:1027D80004462B689A013FF59DAEFEF7BFFD001B2E
:1027E8000228F6D9C3E6FEF7B9FD801B0228D4D922
:1027F800BDE6FEF7B3FD04462B689B017FF58AAE64
:10280800FEF7ACFD001B0228F6D9B0E6012A6B687A
:102818003FF497AE03F48002E1698A427FF491AEF7
:1028280003F03F02216A8A427FF48BAE47F6C072FA
:10283800616A1A40B2EB811F7FF483AEA26A03F487
:1028480040315208013AB1EB024F7FF47AAE03F0FF
:102858007063E26AB3EB026F3FF45CAE71E600BFEF
:1028680000380240134908B58B6803F00C03042BA9
:102878001BD0082B1BD14A684B68496802F03F02FD
:1028880013F48003C1F388111ABF0B4800230B48C7
:10289800A1FB0001FDF7B4FC064B5B68C3F30143E1
:1028A80001335B00B0FBF3F008BD0348FCE70348C5
:1028B800FAE700BF0038024040787D010024F400A8
:1028C8002DE9F0410D46044610B90120BDE8F0811C
:1028D800464A136803F00F038B4228D322689707F0
:1028E80030D4D00744D4414A136803F00F03AB42F5
:1028F80067D82268510770D4130707D53C4A216965
:10290800936823F4604343EAC1039360FFF7AAFF87
:10291800374B384A9B68C3F30313D35CD840364B14
:102928001860364B1868FEF7D5FC0020CEE7136810
:1029380023F00F030B431360136803F00F038B425C
:10294800C3D1CBE712F0040F294B03D0996841F4A7
:10295800E0519960160703D5996841F46041996080
:102968002349A0688B6823F0F00303438B60B8E722
:1029780061681F4B01291A681BD112F4003FA4D0CB
:102988009A6841F288381A4F22F003020A439A6083
:10299800FEF7E4FC0646BB68626803F00C03B3EB81
:1029A800820FA0D0FEF7DAFC801B4045F3D9032044
:1029B8008CE7022902D112F0007FE0E712F0020F43
:1029C800DDE7136823F00F032B431360136803F04C
:1029D8000F03AB427FF479AF8BE70549E0688B685A
:1029E80023F4E05303438B6086E700BF003C0240BA
:1029F8000038024044710090540000205C00002020
:102A080003682DE9F74313F0010604460BD0AB4ADF
:102A1800916821F400019160466B91683143B6FAE0
:102A280086F67609916013F4002512D0A349E56B68
:102A3800D1F88C20B5F5801F22F4401208BF01267A
:102A480042EA050216BFB5FA85F500256D09C1F8F9
:102A58008C20D80210D59948216CD0F88C20B1F57B
:102A6800800F22F4400242EA0102C0F88C2000F0F4
:102A78008681002908BF012513F0807F18BF012631
:102A8800990631D58D4B8E4F1A6C42F080521A64DC
:102A98001B6C03F080530193019B3B6843F48073E4
:102AA8003B60FEF75BFC80463B68DA0540F16981D4
:102AB800824F3B6F13F4407340F06E81236B03F435
:102AC8004072B2F5407F7D4A40F08C81916823F0D6
:102AD800704021F4F81120F4407001439160C3F371
:102AE8000B03116F0B4313672368D9060CD5734A80
:102AF800D2F88C1021F08071C2F88C10D2F88C10AA
:102B0800A06B0143C2F88C105A0408D56B49606E5B
:102B1800D1F8902022F440320243C1F890201F04DB
:102B280008D56649A06ED1F8902022F440220243CD
:102B3800C1F89020D80308D56049E06ED1F89020FC
:102B480022F440120243C1F89020990308D55B494A
:102B5800206FD1F8902022F440020243C1F890205F
:102B68005A0608D55549606CD1F8902022F0030226
:102B78000243C1F890201F0608D55049A06CD1F82F
:102B8800902022F00C020243C1F89020D80508D505
:102B98004A49E06CD1F8902022F030020243C1F893
:102BA8009020990508D54549206DD1F8902022F04C
:102BB800C0020243C1F890205A0508D53F49606D0C
:102BC800D1F8902022F440720243C1F890201F05EA
:102BD80008D53A49A06DD1F8902022F4406202430A
:102BE800C1F89020D80408D53449E06DD1F8902078
:102BF80022F440520243C1F89020990408D52F4985
:102C0800206ED1F8902022F440420243C1F890206F
:102C18005A0208D52949A06FD1F8902022F0806285
:102C28000243C1F890209F020CD52448E16FD0F8E8
:102C38009020B1F1006F22F0006208BF01250A431D
:102C4800C0F8902013F0080F18BF0125580308D5C5
:102C58001A49606FD1F8902022F040720243C1F8FF
:102C68009020190209D51549D4F88000D1F8902090
:102C780022F080520243C1F89020012E00F0B68065
:102C8800B3F1007F00F0B280012D76D10B4D2B6897
:102C98002E4623F080532B60FEF760FB07462B6817
:102CA8009B0000F127812268150301D5E36B4BB126
:102CB800D00222D5236C03BB04E000BF00380240D9
:102CC80000700040D6F88830D6F8881003F44033F6
:102CD80001F0E0410B43616943EA8113A16943EACA
:102CE8000163C6F88830D6F88C30A16A23F4F8530B
:102CF800013943EA0123C6F88C30910215D5E36FF8
:102D0800B3F1006F11D18249D1F88830D1F8880029
:102D180003F0706300F0E0400343606943EA801306
:102D2800206A43EA0043C1F88830120719D5784A67
:102D3800D2F88810D2F8883001F0706103F440337B
:102D48000B43616943EA8113E16943EA0173C2F8FD
:102D58008830D2F88C30E16A23F440330B43C2F850
:102D68008C306B4C236843F080532360FEF7F6FAEF
:102D7800054623689B0040F1C480002009E0012635
:102D88007AE6FEF7EBFAA0EB080064287FF68CAE33
:102D9800032003B0BDE8F083226B02F44072934233
:102DA8003FF48CAE3B6F3A6F23F4407342F48032A9
:102DB8003A673A6F22F480323A673B673B6FDB072A
:102DC8007FF57CAEFEF7CAFA41F2883980463B6F40
:102DD80098073FF573AEFEF7C1FAA0EB0800484527
:102DE800F5D9D5E7916821F4F81177E6484E3368AC
:102DF80023F080633360FEF7B1FA074633681A019F
:102E080072D42268D30712D5636B83B9D6F884309D
:102E1800D6F8841003F4403301F070610B43616805
:102E280043EA8113A16843EA0173C6F884301703A3
:102E380003D5E36BB3F5801F05D0D6021ED5236CEE
:102E4800B3F5800F1AD13249D1F88430D1F8840013
:102E580003F4403300F0E0400343606843EA801322
:102E6800E06843EA0063C1F88430D1F88C00636AF3
:102E780020F01F00013B0343C1F88C30D00111D56D
:102E88002349D1F88430D1F8840003F0706300F04E
:102E9800E0400343606843EA8013206943EA004343
:102EA800C1F8843091010DD5236962681B0443EA97
:102EB8008213E26843EA0263A26843EA0273144A8F
:102EC800C2F88430124E336843F080633360FEF7F3
:102ED80045FA074633681A013FF5D6AEFEF73EFAC3
:102EE800C01B6428F6D953E7FEF738FAC01B6428DC
:102EF80084D94DE7FEF732FAC01B64287FF6CFAEBF
:102F080046E7FEF72BFA401B64287FF632AF3FE70F
:102F180000380240704738B50D460446C8B190F8ED
:102F28002C3003F0FF021BB980F82D20FFF7F2FFC9
:102F38000223211D206884F82C3000F035F86268DF
:102F48002946206800F066F80123002084F82C3018
:102F580038BD0120FCE738B590F82C3004460D4602
:102F6800022BD8B20DD00223206884F82C3000F050
:102F780094F82B680020022B0CBF0523012384F84A
:102F88002C3038BD10B590F82C300446022BD8B23E
:102F980009D00223206884F82C3000F091F801232E
:102FA800002084F82C3010BD2DE9F0414A6AD1E99F
:102FB8000743D1E90158D1E903ECD1E9057609685D
:102FC80023430468012912490FD01A4321402A4398
:102FD80042EA080343EA0E0343EA0C033B43334344
:102FE8000B4303600020BDE8F0811343426824F4DA
:102FF800F844114045EA0802234342EA0E020360FE
:1030080042EA0C023A4332430A434260EAE700BF0D
:103018000080FFFFCB68012AF0B50C6803F1FF3789
:103028004B698E6804F1FF3C0D6903F1FF334C686E
:1030380006F1FF3689694FEA035304F1FF3405F1BD
:10304800FF3501F1FF314FEA06264FEA04144FEA33
:1030580005454FEA016143EA07330CD043EA0C0304
:103068008268234302F0704233432B430B431343DC
:1030780083600020F0BD8768344327F4700744EA72
:103088000C0227F470472A433B43C7680A4307F0FA
:10309800704783603A43C260EBE7D1E9003213B569
:1030A8001343CA68002443EA42238A680194013A18
:1030B80043EA42130193019B0361204602B010BD0D
:1030C800436943EA4101416100207047DFF834D089
:1030D800002103E00C4B5B58435004310B480C4B68
:1030E80042189A42F6D30B4A02E0002342F8043B06
:1030F800094B9A42F9D3FEF7C5F800F081F900F0C0
:1031080021F8704700000520887100900000002019
:10311800600000206000002024060020FEE7000078
:10312800416802684B1C4360054B59435A434A4067
:1031380082EA11625343036083EA5330704700BF49
:1031480095E9D15B10B52DED048B82B000F016F92E
:10315800FEF7E2F800F0C9F8FDF7DAFEFDF7E0FB4C
:103168000446FDF7E9FB81B2A0B2FEF76FF804460A
:1031780000287BD14FF040410120FDF7E9FB0120F9
:10318800FDF71EFC3C48FDF735FC4FF0FF30FDF71E
:1031980027FC4FF0FF30FDF737FC3848FDF716FCE9
:1031A800F1EE048AFDF7C8FB01234008344ADFED3D
:1031B800359AA0F10801204689B2FDF7D5FC3248BE
:1031C800FDF704FCFDF7B8FB012340082F4A00F186
:1031D8000801204689B2FDF7C7FCFDF7A1FB0538B9
:1031E80007EE900AB8EE679AFDF7A6FB0538284B5C
:1031F80007EE900AB8EE678ACDE900346846FFF713
:103208008FFF40F07F40FDF7E1FB6846FFF788FF3E
:1032180007EE900A39EE687A6846F8EE677AF0EEBB
:10322800686A67EEA97AE7EE276AB0EE667AFFF772
:1032380077FF07EE900A78EE686AB0EE686A0422B3
:10324800F8EE677ABCEEC77A67EEA97AA6EEA76AA7
:10325800FCEEC67A17EE903A99B217EE103A98B289
:10326800FDF752FD0120FEF77FF8C7E7002002B006
:10327800BDEC048B10BD00BF38000020FF0000FF2C
:10328800647100900000802F800000FF6F71009033
:10329800ADFBCADE044B5B699B044CBF4FF4005086
:1032A8004FF40060FEF796BC003C01407047FEE713
:1032B800FEE7FEE7FEE7704770477047FEF742B843
:1032C8004FF40060FEF786BC0420FEF783BC0000C4
:1032D800014B186FFEF782B9A0010020014B186B53
:1032E800FEF77CB9EC050020FEE700B50122B3B07B
:1032F8004FF48033192105A8CDE9052302234FF4A3
:1033080080020F93CDE90B324FF4D8720923CDE92F
:103318000D121093FFF7E8F808B100F06BF8FFF70B
:10332800ABF808B100F066F84FF400134FF0C00E88
:1033380011A811934FF0006330930423CDE916E3ED
:1033480001231993FFF75CFB08B100F053F802233F
:103358000F2200216846CDE900234FF4A053CDE9A0
:1033680002134FF4805307210493FFF7A9FA08B119
:1033780000F040F833B05DF804FB000070B5BFF30F
:103388004F8FBFF36F8F1A4B0021C3F85012BFF352
:103398004F8FBFF36F8F5A6942F400325A61BFF3FF
:1033A8004F8FBFF36F8FC3F88410BFF34F8FD3F8DD
:1033B800802043F6E074C2F3C900C2F34E325201D2
:1033C80002EA0406014646EA81750139C3F86052EB
:1033D800F9D2203A12F1200FF2D1BFF34F8F5A6978
:1033E80042F480325A61BFF34F8FBFF36F8F70BDC5
:1033F80000ED00E0002008B5FDF71AFAFEE700002E
:1034080070B50D4D0D4C641BA4100026A64209D1C1
:103418000B4D0C4C00F018F8641BA4100026A642B3
:1034280005D170BD55F8043B98470136EEE755F8CD
:10343800043B98470136F2E7807100908071009054
:103448008071009084710090F8B500BFF8BC08BC8A
:103458009E467047F8B500BFF8BC08BC9E4670474A
:1034680000000000000000002020202000200000B4
:1034780050500000000000002850F850F850A000FC
:1034880020306030106020002020186010100000EC
:103498000038206050780000202020000000000044
:1034A8001020202020201000402020202020400034
:1034B8002070205000000000002020F8202000008C
:1034C8000000000010202000000000700000000034
:1034D8000000000000200000102020204040800054
:1034E80020505050502000006020202020F800007C
:1034F8002050202040700000205010201060000054
:1035080010305078103800007040601050200000D3
:1035180030406050506000007050102020200000A3
:1035280020502050502000003050503010600000D3
:103538000000200000200000000010001020000003
:10354800001020C020100000007000700000000073
:1035580000402018204000002050102000200000CB
:1035680030484858484038006020507088D80000DB
:10357800F048704848F0000070504040403000006B
:10358800F048484848F00000F848604048F8000013
:10359800F848604040E0000070404058503000005B
:1035A800E848784848E80000702020202070000093
:1035B8003810105050200000D850607050D80000CB
:1035C800E040404048F80000D8D8D8A888D8000083
:1035D800D868685858E80000304848484830000023
:1035E800F048487040E0000030484848483018002B
:1035F800F048487048E800007050201050700000F3
:10360800F8A8202020700000D8484848483000001A
:10361800D888485050300000D888A8A8A850000082
:10362800D850202050D80000D888502020700000A2
:1036380078481020487800003020202020203000D2
:1036480080404020202010006020202020206000A2
:10365800202050000000000000000000000000F8DA
:1036680020100000000000000000301070780000FA
:10367800C040704848F000000000704040700000F2
:1036880018083848483800000000707040300000C2
:10369800102070202070000000003848483808309A
:1036A800C040704848E800002000602020700000FA
:1036B8002000701010101070C040587050D80000D2
:1036C80060202020207000000000D0A8A8A80000DA
:1036D8000000F04848C800000000304848300000AA
:1036E8000000F048487040E00000384848380818A2
:1036F80000007820207000000000302010600000DA
:103708000040F040483000000000D8484838000029
:103718000000C848303000000000D8A8A8500000B9
:1037280000004830304800000000D8505020206089
:103738000000785028780000102020602020100019
:103748002020202020202000402020302020400061
:1037580000000028500000000000000000000000E9
:1037680000000000001010101010000010000000F1
:10377800006C4848000000000000000000141428F5
:103788007C287C2850500000001038404038487091
:1037980010100000002050200C70081408000000D1
:1037A80000000018202054483400000000101010B9
:1037B8001000000000000000000808101010101091
:1037C80010080800002020101010101010202000F1
:1037D80000107C10282800000000000000001010D5
:1037E80010FE10101000000000000000000000187B
:1037F8001030200000000000007C000000000000E5
:103808000000000000000030300000000004040840
:103818000810102020400000003844444444444428
:103828003800000000301010101010107C0000004C
:1038380000384404081020447C0000000038440488
:103848001804044438000000000C141424447E04B6
:103858000E000000003C202038040444380000001A
:10386800001C20407844444438000000007C440494
:103878000808081010000000003844443844444444
:103888003800000000384444443C0408700000003C
:103898000000003030000030300000000000001848
:1038A800180000183020000000000C106080601024
:1038B8000C000000000000007C007C0000000000FC
:1038C8000000C02018041820C000000000001824C0
:1038D80004081000300000003844444C54544C4054
:1038E800443800000030102828287C44EE000000EE
:1038F80000F8444478444444F8000000003C444044
:10390800404040443800000000F0484444444448E3
:10391800F000000000FC445070504044FC000000DF
:10392800007E22283828202070000000003C4440F7
:10393800404E44443800000000EE44447C44444473
:10394800EE000000007C1010101010107C00000029
:10395800003C0808084848483000000000EE444889
:1039680050704844E60000000070202020202424E5
:103978007C00000000EE6C6C54544444EE000000DF
:1039880000EE64645454544CEC0000000038444485
:10399800444444443800000000782424243820207B
:1039A800700000000038444444444444381C00007B
:1039B80000F8444444784844E200000000344C4095
:1039C800380404645800000000FE92101010101013
:1039D8003800000000EE44444444444438000000E9
:1039E80000EE4444282828101000000000EE44444B
:1039F800545454542800000000C644281010284489
:103A0800C600000000EE44282810101038000000FE
:103A1800007C4408101020447C000000003820205E
:103A280020202020202038000040202020101008CE
:103A380008080000003808080808080808083800BE
:103A480000101028440000000000000000000000E2
:103A580000000000000000FE001008000000000048
:103A68000000000000000038443C44443E000000D0
:103A780000C0405864444444F80000000000003C82
:103A88004440404438000000000C04344C44444492
:103A98003E00000000000038447C40403C0000002C
:103AA800001C207C202020207C0000000000003624
:103AB8004C4444443C04380000C0405864444444E6
:103AC800EE00000000100070101010107C000000C4
:103AD80000100078080808080808700000C0405C5A
:103AE80048705048DC000000003010101010101012
:103AF8007C000000000000E854545454FE0000000C
:103B0800000000D864444444EE000000000000387F
:103B18004444444438000000000000D8644444444D
:103B28007840E000000000364C4444443C040E0059
:103B38000000006C302020207C0000000000003CC9
:103B480044380444780000000000207C2020202213
:103B58001C000000000000CC4444444C3600000027
:103B6800000000EE4444282810000000000000EE89
:103B78004454545428000000000000CC4830304819
:103B8800CC000000000000EE442428181010780033
:103B98000000007C481020447C0000000008101041
:103BA8001010201010100800001010101010101025
:103BB8001010000000201010101008101010200025
:103BC8000000000000245800000000000000000071
:103BD80000000000000000000000000000000000DD
:103BE80000000000000000000000000000000C00C1
:103BF8000C000C000C000C000C000C000C00000069
:103C08000C000000000000000000000000000000A0
:103C18001DC01DC00880088008800000000000004A
:103C280000000000000000000000000000000D80FF
:103C38000D800D800D803FC01B003FC01B001B0086
:103C48001B001B00000000000000000004001F8093
:103C58003180318038001E000F00038031803180B0
:103C68003F000400040000000000000000001800ED
:103C78002400240018C007801E0031800240024042
:103C880001800000000000000000000000000000AB
:103C98000F001800180018000C001D8037003300B2
:103CA8001D8000000000000000000000000000006F
:103CB80007000700020002000200000000000000E8
:103CC80000000000000000000000000000000300E9
:103CD800030006000E000C000C000C000C000E0087
:103CE80006000300030000000000000000001800A8
:103CF80018000C0006000600060006000600060074
:103D08000C001C0018000000000000000000060065
:103D180006003FC03FC00F001F8019800000000050
:103D2800000000000000000000000000000000008B
:103D380000000400040004003F80040004000400A4
:103D4800000000000000000000000000000000006B
:103D58000000000000000000000000000000060055
:103D680004000C000800080000000000000000002B
:103D780000000000000000003F800000000000007C
:103D8800000000000000000000000000000000002B
:103D980000000000000000000000000000000C000F
:103DA8000C000000000000000000000000C000C07F
:103DB800018001800300030006000C000C001800BD
:103DC80018003000300000000000000000000E0065
:103DD8001B003180318031803180318031801B007F
:103DE8000E000000000000000000000000000600B7
:103DF8003E00060006000600060006000600060053
:103E08003FC00000000000000000000000000F009C
:103E1800198031803180030006000C001800300042
:103E28003F800000000000000000000000003F008C
:103E38006180018003001F00038001800180618090
:103E48003F00000000000000000000000000070024
:103E580007000F000B001B00130033003F80030016
:103E68000F800000000000000000000000001F801C
:103E78001800180018001F0011800180018021809F
:103E88001F00000000000000000000000000078084
:103E98001C001800300037003980318031801980CB
:103EA8000F000000000000000000000000007F007C
:103EB8004300030006000600060006000C000C0084
:103EC8000C000000000000000000000000001F00BF
:103ED8003180318031801F003180318031803180E4
:103EE8001F000000000000000000000000001E008D
:103EF80033003180318033801D800180030007004A
:103F08003C0000000000000000000000000000006D
:103F1800000000000C000C000000000000000C0075
:103F28000C0000000000000000000000000000007D
:103F3800000000000300030000000000000006006D
:103F48000400080008000000000000000000000055
:103F580000C00300040018006000180004000300FB
:103F680000C0000000000000000000000000000089
:103F78000000000000007FC000007FC000000000BB
:103F88000000000000000000000000000000000029
:103F9800600018000400030000C0030004001800BB
:103FA80060000000000000000000000000000000A9
:103FB8001F0031803180018007000C000C000000D8
:103FC8000C000000000000000000000000000E00CF
:103FD80011002100210027002900290027002000C6
:103FE80011000E00000000000000000000000000AA
:103FF8003F000F000900198019801F8030C030C0B1
:1040080079E000000000000000000000000000004F
:104018007F003180318031803F00318031803180B4
:104028007F00000000000000000000000000000009
:104038001F4030C060406000600060006040308019
:104048001F00000000000000000000000000000049
:104058007F00318030C030C030C030C030C03180C7
:104068007F000000000000000000000000000000C9
:104078007F803080308032003E00320030803080D7
:104088007F80000000000000000000000000000029
:104098007FC03040304032003E00320030003000F7
:1040A8007C0000000000000000000000000000008C
:1040B8001E80318060806000600067C06180318050
:1040C8001F000000000000000000000000000000C9
:1040D8007BC03180318031803F80318031803180B8
:1040E8007BC000000000000000000000000000008D
:1040F8003FC006000600060006000600060006008F
:104108003FC00000000000000000000000000000A8
:104118001FC0030003000300030063006300630083
:104128003E00000000000000000000000000000049
:104138007BC03180330036003C003E0033003180C4
:1041480079C000000000000000000000000000002E
:104158007E00180018001800180018401840184071
:104168007FC0000000000000000000000000000008
:10417800E0E060C071C07BC06AC06EC064C060C04F
:10418800FBE000000000000000000000000000004C
:1041980073C0318039803D803580378033803180ED
:1041A800798000000000000000000000000000000E
:1041B8001F00318060C060C060C060C060C03180D6
:1041C8001F000000000000000000000000000000C8
:1041D8007F0031803180318031803F0030003000F5
:1041E8007E00000000000000000000000000000049
:1041F8001F00318060C060C060C060C060C0318096
:104208001F000CC01F80000000000000000000001C
:104218007F003180318031803E0033003180318031
:104228007CE000000000000000000000000000002A
:104238001F803180318038001F0003803180318039
:104248003F00000000000000000000000000000027
:104258007F804C804C804C800C000C000C000C00C3
:104268003F00000000000000000000000000000007
:104278007BC0318031803180318031803180318024
:104288001F00000000000000000000000000000007
:104298007BC0318031801B001B001B000A000E0010
:1042A8000E000000000000000000000000000000F8
:1042B800FBE060C064C06EC06EC02A803B803B805B
:1042C8003180000000000000000000000000000035
:1042D8007BC031801B000E000E000E001B003180D9
:1042E8007BC000000000000000000000000000008B
:1042F80079E030C019800F000600060006000600AD
:104308001F80000000000000000000000000000006
:104318003F8021802300060004000C0018803080B4
:104328003F8000000000000000000000000007803F
:104338000600060006000600060006000600060045
:104348000600060007800000000000003000300072
:10435800180018000C000C00060003000300018080
:10436800018000C000C000000000000000001E0026
:104378000600060006000600060006000600060005
:10438800060006001E0000000000000004000A00ED
:104398000A001100208020800000000000000000BA
:1043A8000000000000000000000000000000000005
:1043B80000000000000000000000000000000000F5
:1043C80000000000000000000000FFE008000400FA
:1043D80002000000000000000000000000000000D3
:1043E80000000000000000000000000000000000C5
:1043F800000000001F00018001801F803180338091
:104408001DC0000000000000000000000000700057
:10441800300030003700398030C030C030C03980BB
:10442800770000000000000000000000000000000D
:10443800000000001E803180608060006080318054
:104448001F000000000000000000000000000380C2
:10445800018001801D8033806180618061803380AC
:104468001DC0000000000000000000000000000067
:10447800000000001F00318060C07FC0600030C0B5
:104488001F8000000000000000000000000007E09E
:104498000C000C003F800C000C000C000C000C0001
:1044A8003F80000000000000000000000000000045
:1044B800000000001DC0338061806180618033800E
:1044C8001D80018001801F000000000000007000B6
:1044D80030003000370039803180318031803180C0
:1044E8007BC0000000000000000000000000060083
:1044F800060000001E000600060006000600060072
:104508003FC000000000000000000000000006009E
:10451800060000003F00030003000300030003003F
:104528000300030003003E000000000000007000CC
:1045380030003000378036003C003C003600330045
:1045480077C00000000000000000000000001E000E
:104558000600060006000600060006000600060023
:104568003FC0000000000000000000000000000044
:10457800000000007F8036C036C036C036C036C066
:1045880076E00000000000000000000000000000CD
:10459800000000007700398031803180318031801F
:1045A8007BC00000000000000000000000000000C8
:1045B800000000001F00318060C060C060C0318012
:1045C8001F000000000000000000000000000000C4
:1045D800000000007700398030C030C030C039801A
:1045E8003700300030007C000000000000000000B0
:1045F800000000001DC033806180618061803380CD
:104608001D800180018007C000000000000000003C
:10461800000000007B801CC018001800180018005B
:104628007F00000000000000000000000000000003
:10463800000000001F8031803C001F000380318093
:104648003F0000000000000000000000000018000B
:10465800180018007F0018001800180018001880AB
:104668000F00000000000000000000000000000033
:1046780000000000738031803180318031803380C8
:104688001DC0000000000000000000000000000045
:10469800000000007BC0318031801B001B000E0031
:1046A8000E000000000000000000000000000000F4
:1046B80000000000F1E060C064C06EC03B803B8039
:1046C8003180000000000000000000000000000031
:1046D800000000007BC01B000E000E000E001B0037
:1046E8007BC0000000000000000000000000000087
:1046F8000000000079E030C0198019800B000F001D
:10470800060006000C003E0000000000000000004B
:10471800000000003F80218003000E001800308058
:104728003F800000000000000000000000000600BC
:104738000C000C000C000C000C0018000C000C0005
:104748000C000C000600000000000000000006003D
:104758000600060006000600060006000600060021
:1047680006000600060000000000000000000C0023
:104778000600060006000600060003000600060004
:10478800060006000C000000000000000000000009
:104798000000000000001800248003000000000052
:1047A8000000000000000000000000000000000001
:1047B80000000000000000000000000000000000F1
:1047C80000000000000000000000000000000000E1
:1047D80000000000000007000700070007000700AE
:1047E80007000700020002000000000007000700A1
:1047F80000000000000000000000000000000000B1
:104808001CE01CE01CE008400840084000000000D4
:104818000000000000000000000000000000000090
:10482800000000000CC00CC00CC00CC00CC03FF055
:104838003FF00CC00CC03FF03FF00CC00CC00CC0E7
:104848000CC00CC0000000000000000003000300C2
:1048580007E00FE0186018001F000FC000E01860A4
:1048680018601FC01F800300030003000000000041
:104878000000000000001C002200220022001C6032
:1048880001E00F803C0031C002200220022001C05C
:104898000000000000000000000000000000000010
:1048A800000003E00FE00C000C0006000F301FF0C2
:1048B80019E018C01FF007B0000000000000000059
:1048C8000000000000000000038003800380010056
:1048D80001000100000000000000000000000000CE
:1048E800000000000000000000000000000000C000
:1048F80000C0018001800180030003000300030061
:104908000300030001800180018000C000C0000096
:104918000000000000000C000C0006000600060065
:104928000300030003000300030003000600060061
:1049380006000C000C00000000000000000003004E
:10494800030003001B601FE0078007800FC00CC036
:10495800000000000000000000000000000000004F
:104968000000000000000000000003000300030036
:1049780003003FF03FF003000300030003000000C2
:10498800000000000000000000000000000000001F
:10499800000000000000000000000000000000000F
:1049A8000000038003000300060006000400000066
:1049B80000000000000000000000000000000000EF
:1049C80000003FE03FE000000000000000000000A1
:1049D80000000000000000000000000000000000CF
:1049E80000000000000000000000000000000000BF
:1049F8000000038003800380000000000000000026
:104A0800000000000060006000C000C000C001801D
:104A1800018003000300060006000C000C000C00D7
:104A280018001800000000000000000000000F80BF
:104A38001FC018C030603060306030603060306057
:104A4800306018C01FC00F80000000000000000088
:104A580000000000000003001F001F000300030007
:104A68000300030003000300030003001FE01FE02E
:104A780000000000000000000000000000000F809F
:104A88001FC038E03060006000C0018003000600ED
:104A98000C0018003FE03FE00000000000000000AC
:104AA8000000000000000F803FC030E0006000E020
:104AB80007C007C000E00060006060E07FC03F8082
:104AC800000000000000000000000000000001C01D
:104AD80003C003C006C00CC00CC018C030C03FE003
:104AE8003FE000C003E003E0000000000000000019
:104AF8000000000000001FC01FC0180018001F8021
:104B08001FC018E000600060006030E03FC01F80F8
:104B1800000000000000000000000000000003E0AA
:104B28000FE01E001800380037803FC038E03060C2
:104B3800306018E01FC0078000000000000000007F
:104B48000000000000003FE03FE03060006000C06F
:104B580000C000C001800180018003000300030041
:104B680000000000000000000000000000000F80AE
:104B78001FC038E0306038E01FC01FC038E0306028
:104B8800306038E01FC00F80000000000000000007
:104B98000000000000000F001FC038C03060306007
:104BA80038E01FE00F6000E000C003C03F803E0017
:104BB80000000000000000000000000000000000ED
:104BC8000000000000000380038003800000000054
:104BD8000000038003800380000000000000000044
:104BE800000000000000000000000000000001C0FC
:104BF80001C001C00000000000000380030006009F
:104C08000600040000000000000000000000000092
:104C18000000003000F003C007001C0078001C00F2
:104C2800070003C000F00030000000000000000092
:104C380000000000000000000000000000007FF0FD
:104C48007FF0000000007FF07FF00000000000000F
:104C5800000000000000000000000000000000004C
:104C6800000030003C000F00038000E0007800E006
:104C780003800F003C00300000000000000000002E
:104C880000000000000000000F801FC018601860BE
:104C9800006001C003800300000000000700070057
:104CA8000000000000000000000000000000038079
:104CB8000C8008401040104011C0124012401240B1
:104CC80011C0100008000840078000000000000024
:104CD80000000000000000001F801F80038006C045
:104CE80006C00CC00C601FE01FE030307878787880
:104CF80000000000000000000000000000000000AC
:104D08003F803FC01860186018E01FC01FE018708F
:104D1800183018303FF03FE00000000000000000AD
:104D2800000000000000000007B00FF01C703830D1
:104D3800300030003000300038301C700FE007C001
:104D4800000000000000000000000000000000005B
:104D58007F807FC030E030703030303030303030DD
:104D6800307030E07FC07F8000000000000000004D
:104D780000000000000000003FF03FF0183018303D
:104D880019801F801F801980183018303FF03FF0BD
:104D9800000000000000000000000000000000000B
:104DA8003FF03FF01830183019801F801F8019809D
:104DB800180018003F003F0000000000000000003D
:104DC800000000000000000007B01FF0187030302D
:104DD8003000300031F831F8303018301FF007C09B
:104DE80000000000000000000000000000000000BB
:104DF8003CF03CF01860186018601FE01FE0186075
:104E0800186018603CF03CF0000000000000000052
:104E180000000000000000001FE01FE00300030086
:104E28000300030003000300030003001FE01FE06A
:104E3800000000000000000000000000000000006A
:104E480003F803F8006000600060006030603060C4
:104E5800306030E03FC00F8000000000000000001C
:104E680000000000000000003EF83EF818E019803D
:104E78001B001F001D8018C018C018603E783E38FF
:104E8800000000000000000000000000000000001A
:104E98003F003F000C000C000C000C000C000C3014
:104EA8000C300C303FF03FF0000000000000000024
:104EB80000000000000000007878787838703CF036
:104EC80034B037B037B03330333030307CF87CF81A
:104ED80000000000000000000000000000000000CA
:104EE80039F03DF01C601E601E601B601B6019E0FD
:104EF80019E018E03EE03E600000000000000000FD
:104F0800000000000000000007800FC01CE038709F
:104F1800303030303030303038701CE00FC007800F
:104F28000000000000000000000000000000000079
:104F38003FC03FE018701830183018701FE01FC0CD
:104F4800180018003F003F000000000000000000AB
:104F5800000000000000000007800FC01CE038704F
:104F6800303030303030303038701CE00FC00780BF
:104F780007B00FF00CE00000000000000000000087
:104F88003FC03FE01870183018701FE01FC018E0CD
:104F9800186018703E383E1800000000000000003D
:104FA80000000000000000000FB01FF03870303023
:104FB80038001F8007E00070303038703FE037C09D
:104FC80000000000000000000000000000000000D9
:104FD8003FF03FF033303330333003000300030039
:104FE800030003000FC00FC0000000000000000015
:104FF80000000000000000003CF03CF01860186061
:10500800186018601860186018601CE00FC00780EE
:105018000000000000000000000000000000000088
:1050280078F078F03060306018C018C00D800D80BE
:105038000D800700070007000000000000000000C6
:1050480000000000000000007C7C7C7C3018339855
:105058003398339836D816D01C701C701C701830D2
:105068000000000000000000000000000000000038
:1050780078F078F0306018C00D80070007000D80C8
:1050880018C0306078F078F00000000000000000E0
:1050980000000000000000003CF03CF018600CC06C
:1050A8000780078003000300030003000FC00FC040
:1050B80000000000000000000000000000000000E8
:1050C8001FE01FE0186018C00180030003000600FD
:1050D8000C6018601FE01FE00000000000000000E6
:1050E80000000000000003C003C003000300030029
:1050F8000300030003000300030003000300030090
:10510800030003C003C000000000000018001800DE
:105118000C000C000C0006000600030003000180D0
:10512800018000C000C000C00060006000000000F6
:105138000000000000000F000F0003000300030040
:10514800030003000300030003000300030003003F
:1051580003000F000F000000000000000000020024
:1051680007000D8018C030602020000000000000FB
:105178000000000000000000000000000000000027
:105188000000000000000000000000000000000017
:105198000000000000000000000000000000000007
:1051A8000000000000000000FFFCFFFC00000400FD
:1051B8000300008000000000000000000000000064
:1051C80000000000000000000000000000000000D7
:1051D80000000000000000000000000000000FC0F8
:1051E8001FE000600FE01FE0386030E03FF01F7004
:1051F8000000000000000000000000000000700037
:1052080070003000300037803FE038603030303098
:10521800303038607FE07780000000000000000038
:10522800000000000000000000000000000007B0BF
:105238001FF0183030303000300038301FF00FC009
:1052480000000000000000000000000000000070E6
:1052580000700030003007B01FF018703030303068
:10526800303038701FF807B8000000000000000058
:10527800000000000000000000000000000007809F
:105288001FE018603FF03FF0300018301FF007C0F3
:10529800000000000000000000000000000003F013
:1052A80007F0060006001FE01FE0060006000600E3
:1052B800060006001FE01FE00000000000000000DC
:1052C800000000000000000000000000000007B817
:1052D8001FF8187030303030303018701FF007B0B9
:1052E800003000700FE00FC0000000000000380020
:1052F8003800180018001BC01FE01C6018601860F8
:10530800186018603CF03CF000000000000000004D
:1053180000000000000003000300000000001F0060
:105328001F00030003000300030003001FE01FE049
:105338000000000000000000000000000000030062
:105348000300000000001FC01FC000C000C000C054
:1053580000C000C000C000C000C001C03F803F00C6
:1053680000000000000038003800180018001BE09A
:105378001BE01B001E001E001B00198039F039F0CD
:1053880000000000000000000000000000001F00F6
:105398001F000300030003000300030003000300D1
:1053A800030003001FE01FE00000000000000000F1
:1053B80000000000000000000000000000007EE087
:1053C8007FF0333033303330333033307BB87BB811
:1053D80000000000000000000000000000000000C5
:1053E8000000000000003BC03FE01C60186018602F
:1053F800186018603CF03CF000000000000000005D
:10540800000000000000000000000000000007800D
:105418001FE0186030303030303018601FE00780EF
:105428000000000000000000000000000000000074
:1054380000000000000077807FE0386030303030B6
:10544800303038603FE03780300030007C007C002E
:10545800000000000000000000000000000007B885
:105468001FF8187030303030303018701FF007B027
:105478000030003000F800F80000000000000000D4
:105488000000000000003CE03DF00F300E000C0072
:105498000C000C003FC03FC00000000000000000EE
:1054A800000000000000000000000000000007E00D
:1054B8001FE018601E000FC001E018601FE01F8089
:1054C80000000000000000000000000000000000D4
:1054D8000C000C000C003FE03FE00C000C000C003E
:1054E8000C000C300FF007C00000000000000000A6
:1054F800000000000000000000000000000038E08C
:1055080038E0186018601860186018E01FF00F7015
:105518000000000000000000000000000000000083
:1055280000000000000078F078F0306018C018C063
:105538000D800D800700070000000000000000003B
:10554800000000000000000000000000000078F0EB
:1055580078F03260326037E01DC01DC018C018C036
:105568000000000000000000000000000000000033
:105578000000000000003CF03CF00CC00780030075
:1055880007800CC03CF03CF0000000000000000068
:10559800000000000000000000000000000078F09B
:1055A80078F0306018C018C00D800F800700060022
:1055B80006000C007F007F000000000000000000D3
:1055C8000000000000001FE01FE018C00180030079
:1055D80006000C601FE01FE0000000000000000053
:1055E80000000000000001C003C003000300030026
:1055F8000300030007000E00070003000300030078
:10560800030003C001C00000000000000000030008
:10561800030003000300030003000300030003006A
:10562800030003000300030003000300030000005D
:105638000000000000001C001E0006000600060016
:1056480006000600070003800700060006000600A3
:1056580006001E001C000000000000000000000002
:1056680000000000000000000E003F3033F001E0B1
:105678000000000000000000000000000000000022
:105688000000000000000000000000000000000012
:105698000000000000000000000000000000000002
:1056A80000000000000000000000000000000000F2
:1056B80000000000000000000000000000000000E2
:1056C80000000000000000000000000000000000D2
:1056D8000000038000038000038000038000038033
:1056E80000038000038000038000038000010000A5
:1056F800010000000000000000038000038000009B
:105708000000000000000000000000000000000091
:10571800000000000000000000000000000E700003
:105728000E70000E70000420000420000420000405
:105738002000000000000000000000000000000041
:105748000000000000000000000000000000000051
:105758000000000000000000000000000000000041
:105768000000066000066000066000066000066033
:10577800003FF8003FF8000660000CC0003FF8004A
:105788003FF8000CC0000CC0000CC0000CC0000C9E
:10579800C000000000000000000000000000000041
:1057A8000000000000000001800001800007B00038
:1057B8000FF0001870001870001C00000F80000720
:1057C800E00000F0001830001C30001C70001FE0E2
:1057D800001BC000018000018000018000018000E2
:1057E80000000000000000000000000000000000B1
:1057F80000000780000FC0001CE00018600018605F
:10580800001CE0000FF80007E0001FF00007380058
:1058180006180006180007380003F00001E0000031
:105828000000000000000000000000000000000070
:105838000000000000000000000000000000000060
:1058480003F00007F0000C60000C00000C000006DC
:1058580000000700000F9C001DFC0018F0001870E5
:10586800000FFC0007DC0000000000000000000042
:105878000000000000000000000000000000000020
:105888000000000000038000038000038000010086
:1058980000010000010000010000000000000000FD
:1058A80000000000000000000000000000000000F0
:1058B80000000000000000000000000000000000E0
:1058C8000000000000000000000000180000380080
:1058D80000700000F00000E00000E00001C00001DE
:1058E800C00001C00001C00001C00001C00000E00C
:1058F8000000E00000700000700000380000180090
:10590800000000000000000000000000000000008F
:1059180000001800001C00000E00000E0000070028
:10592800000700000380000380000380000380005C
:105938000380000380000700000700000F00000E2E
:1059480000001C000018000000000000000000001B
:10595800000000000000000000000180000180003D
:105968000180001DB8001FF80007E00003C0000315
:10597800C000066000066000000000000000000093
:10598800000000000000000000000000000000000F
:1059980000000000000000000000000000000000FF
:1059A800000000000000000001800001800001806C
:1059B800000180000180003FFC003FFC00018000E6
:1059C80001800001800001800001800000000000CB
:1059D80000000000000000000000000000000000BF
:1059E80000000000000000000000000000000000AF
:1059F800000000000000000000000000000000009F
:105A0800000000000000000000000000000000E0AE
:105A18000000C00001C000018000018000030000F8
:105A2800030000000000000000000000000000006B
:105A3800000000000000000000000000000000005E
:105A4800000000000000001FF8001FF80000000020
:105A5800000000000000000000000000000000003E
:105A6800000000000000000000000000000000002E
:105A7800000000000000000000000000000000001E
:105A8800000000000000000000000000000000000E
:105A9800000000000000000000000000000003C03B
:105AA8000003C00003C00000000000000000000068
:105AB80000000000000000000000000000180000C6
:105AC800180000380000300000700000600000601E
